{
  "contractName": "Drug",
  "abi": [
    {
      "inputs": [],
      "payable": false,
      "stateMutability": "nonpayable",
      "type": "constructor"
    },
    {
      "anonymous": false,
      "inputs": [
        {
          "indexed": false,
          "internalType": "uint256",
          "name": "slu",
          "type": "uint256"
        }
      ],
      "name": "EnvUpdated",
      "type": "event"
    },
    {
      "anonymous": false,
      "inputs": [
        {
          "indexed": false,
          "internalType": "uint256",
          "name": "slu",
          "type": "uint256"
        }
      ],
      "name": "ForSale",
      "type": "event"
    },
    {
      "anonymous": false,
      "inputs": [
        {
          "indexed": false,
          "internalType": "uint256",
          "name": "slu",
          "type": "uint256"
        }
      ],
      "name": "Manufactured",
      "type": "event"
    },
    {
      "anonymous": false,
      "inputs": [
        {
          "indexed": false,
          "internalType": "uint256",
          "name": "slu",
          "type": "uint256"
        }
      ],
      "name": "Packed",
      "type": "event"
    },
    {
      "anonymous": false,
      "inputs": [
        {
          "indexed": false,
          "internalType": "uint256",
          "name": "pku",
          "type": "uint256"
        }
      ],
      "name": "Purchased",
      "type": "event"
    },
    {
      "anonymous": false,
      "inputs": [
        {
          "indexed": false,
          "internalType": "uint256",
          "name": "slu",
          "type": "uint256"
        }
      ],
      "name": "Received",
      "type": "event"
    },
    {
      "anonymous": false,
      "inputs": [
        {
          "indexed": false,
          "internalType": "uint256",
          "name": "slu",
          "type": "uint256"
        }
      ],
      "name": "Shipped",
      "type": "event"
    },
    {
      "anonymous": false,
      "inputs": [
        {
          "indexed": false,
          "internalType": "uint256",
          "name": "slu",
          "type": "uint256"
        }
      ],
      "name": "Sold",
      "type": "event"
    },
    {
      "constant": false,
      "inputs": [
        {
          "internalType": "uint256",
          "name": "_udpc",
          "type": "uint256"
        },
        {
          "internalType": "uint256",
          "name": "quantity",
          "type": "uint256"
        }
      ],
      "name": "manufacturDrugsLoud",
      "outputs": [],
      "payable": false,
      "stateMutability": "nonpayable",
      "type": "function"
    },
    {
      "constant": false,
      "inputs": [
        {
          "internalType": "uint256",
          "name": "_slu",
          "type": "uint256"
        }
      ],
      "name": "packDrugsLoud",
      "outputs": [],
      "payable": false,
      "stateMutability": "nonpayable",
      "type": "function"
    },
    {
      "constant": false,
      "inputs": [
        {
          "internalType": "uint256",
          "name": "_slu",
          "type": "uint256"
        },
        {
          "internalType": "uint256",
          "name": "_unitPrice",
          "type": "uint256"
        }
      ],
      "name": "addDrugsLoud",
      "outputs": [],
      "payable": false,
      "stateMutability": "nonpayable",
      "type": "function"
    },
    {
      "constant": false,
      "inputs": [
        {
          "internalType": "uint256",
          "name": "_slu",
          "type": "uint256"
        },
        {
          "internalType": "address",
          "name": "_receiver",
          "type": "address"
        }
      ],
      "name": "buyDrugsLoud",
      "outputs": [],
      "payable": true,
      "stateMutability": "payable",
      "type": "function"
    },
    {
      "constant": false,
      "inputs": [
        {
          "internalType": "uint256",
          "name": "_slu",
          "type": "uint256"
        }
      ],
      "name": "shipDrugsLoud",
      "outputs": [],
      "payable": false,
      "stateMutability": "nonpayable",
      "type": "function"
    },
    {
      "constant": false,
      "inputs": [
        {
          "internalType": "uint256",
          "name": "_slu",
          "type": "uint256"
        },
        {
          "internalType": "uint256",
          "name": "_humidity",
          "type": "uint256"
        },
        {
          "internalType": "uint256",
          "name": "_temprture",
          "type": "uint256"
        }
      ],
      "name": "updateDrugsLoudShippmentEnv",
      "outputs": [],
      "payable": false,
      "stateMutability": "nonpayable",
      "type": "function"
    },
    {
      "constant": false,
      "inputs": [
        {
          "internalType": "uint256",
          "name": "_slu",
          "type": "uint256"
        }
      ],
      "name": "receiveDrugsLoud",
      "outputs": [],
      "payable": false,
      "stateMutability": "nonpayable",
      "type": "function"
    },
    {
      "constant": false,
      "inputs": [
        {
          "internalType": "uint256",
          "name": "_slu",
          "type": "uint256"
        },
        {
          "internalType": "uint256",
          "name": "_humidity",
          "type": "uint256"
        },
        {
          "internalType": "uint256",
          "name": "_temprture",
          "type": "uint256"
        }
      ],
      "name": "updateDrugsLoudStockEnv",
      "outputs": [],
      "payable": false,
      "stateMutability": "nonpayable",
      "type": "function"
    },
    {
      "constant": false,
      "inputs": [
        {
          "internalType": "uint256",
          "name": "_pku",
          "type": "uint256"
        }
      ],
      "name": "purchaseDrug",
      "outputs": [],
      "payable": true,
      "stateMutability": "payable",
      "type": "function"
    },
    {
      "constant": true,
      "inputs": [
        {
          "internalType": "uint256",
          "name": "_slu",
          "type": "uint256"
        }
      ],
      "name": "fetchDrugLoaudData",
      "outputs": [
        {
          "internalType": "uint256",
          "name": "quantity",
          "type": "uint256"
        },
        {
          "internalType": "uint256",
          "name": "_udpc",
          "type": "uint256"
        },
        {
          "internalType": "string",
          "name": "state",
          "type": "string"
        },
        {
          "internalType": "address",
          "name": "currentOwner",
          "type": "address"
        },
        {
          "internalType": "address",
          "name": "manufacturerId",
          "type": "address"
        },
        {
          "internalType": "address",
          "name": "deistributorId",
          "type": "address"
        },
        {
          "internalType": "address",
          "name": "retailerId",
          "type": "address"
        },
        {
          "internalType": "uint256",
          "name": "price",
          "type": "uint256"
        }
      ],
      "payable": false,
      "stateMutability": "view",
      "type": "function"
    },
    {
      "constant": true,
      "inputs": [
        {
          "internalType": "uint256",
          "name": "_pku",
          "type": "uint256"
        }
      ],
      "name": "fetchDrugItemData",
      "outputs": [
        {
          "internalType": "uint256",
          "name": "_udpc",
          "type": "uint256"
        },
        {
          "internalType": "uint256",
          "name": "_slu",
          "type": "uint256"
        },
        {
          "internalType": "string",
          "name": "state",
          "type": "string"
        },
        {
          "internalType": "address",
          "name": "currentOwner",
          "type": "address"
        },
        {
          "internalType": "address",
          "name": "manufacturerId",
          "type": "address"
        },
        {
          "internalType": "address",
          "name": "deistributorId",
          "type": "address"
        },
        {
          "internalType": "address",
          "name": "retailerId",
          "type": "address"
        },
        {
          "internalType": "uint256",
          "name": "price",
          "type": "uint256"
        },
        {
          "internalType": "uint256",
          "name": "packingTimeStamp",
          "type": "uint256"
        },
        {
          "internalType": "uint256",
          "name": "numberOfEnvUpdate",
          "type": "uint256"
        }
      ],
      "payable": false,
      "stateMutability": "view",
      "type": "function"
    },
    {
      "constant": true,
      "inputs": [
        {
          "internalType": "uint256",
          "name": "_slu",
          "type": "uint256"
        }
      ],
      "name": "fetchLoudPKUs",
      "outputs": [
        {
          "internalType": "uint256[]",
          "name": "loadPKUs",
          "type": "uint256[]"
        }
      ],
      "payable": false,
      "stateMutability": "view",
      "type": "function"
    },
    {
      "constant": true,
      "inputs": [
        {
          "internalType": "uint256",
          "name": "_pku",
          "type": "uint256"
        }
      ],
      "name": "fetchEnvHistory",
      "outputs": [
        {
          "internalType": "uint256",
          "name": "numberOfupdate",
          "type": "uint256"
        },
        {
          "internalType": "uint256[]",
          "name": "timeStamps",
          "type": "uint256[]"
        },
        {
          "internalType": "uint256[]",
          "name": "temprtures",
          "type": "uint256[]"
        },
        {
          "internalType": "uint256[]",
          "name": "humiditys",
          "type": "uint256[]"
        },
        {
          "internalType": "address[]",
          "name": "updaterAddresses",
          "type": "address[]"
        }
      ],
      "payable": false,
      "stateMutability": "view",
      "type": "function"
    }
  ],
  "bytecode": "0x608060405234801561001057600080fd5b506000600181905550600080819055506127108061002f6000396000f3fe6080604052600436106100c25760003560e01c8063b63505361161007f578063d8f271a911610059578063d8f271a91461043d578063d8fcc6f8146104cd578063e716a4d714610662578063fb32211114610805576100c2565b8063b635053614610382578063c3c7b82c146103c7578063d331029714610402576100c2565b80635043ceaf146100c7578063693082c41461010c578063719c2e521461015b57806383be91e5146101aa578063a7d25040146101d8578063b442510b14610347575b600080fd5b3480156100d357600080fd5b5061010a600480360360408110156100ea57600080fd5b810190808035906020019092919080359060200190929190505050610853565b005b34801561011857600080fd5b506101596004803603606081101561012f57600080fd5b81019080803590602001909291908035906020019092919080359060200190929190505050610b6f565b005b34801561016757600080fd5b506101a86004803603606081101561017e57600080fd5b81019080803590602001909291908035906020019092919080359060200190929190505050610e7c565b005b6101d6600480360360208110156101c057600080fd5b81019080803590602001909291905050506111ba565b005b3480156101e457600080fd5b50610211600480360360208110156101fb57600080fd5b81019080803590602001909291905050506112ef565b6040518086815260200180602001806020018060200180602001858103855289818151815260200191508051906020019060200280838360005b8381101561026657808201518184015260208101905061024b565b50505050905001858103845288818151815260200191508051906020019060200280838360005b838110156102a857808201518184015260208101905061028d565b50505050905001858103835287818151815260200191508051906020019060200280838360005b838110156102ea5780820151818401526020810190506102cf565b50505050905001858103825286818151815260200191508051906020019060200280838360005b8381101561032c578082015181840152602081019050610311565b50505050905001995050505050505050505060405180910390f35b34801561035357600080fd5b506103806004803603602081101561036a57600080fd5b8101908080359060200190929190505050611529565b005b34801561038e57600080fd5b506103c5600480360360408110156103a557600080fd5b81019080803590602001909291908035906020019092919050505061171d565b005b3480156103d357600080fd5b50610400600480360360208110156103ea57600080fd5b810190808035906020019092919050505061192c565b005b34801561040e57600080fd5b5061043b6004803603602081101561042557600080fd5b8101908080359060200190929190505050611b3b565b005b34801561044957600080fd5b506104766004803603602081101561046057600080fd5b8101908080359060200190929190505050611d84565b6040518080602001828103825283818151815260200191508051906020019060200280838360005b838110156104b957808201518184015260208101905061049e565b505050509050019250505060405180910390f35b3480156104d957600080fd5b50610506600480360360208110156104f057600080fd5b8101908080359060200190929190505050611def565b60405180898152602001888152602001806020018773ffffffffffffffffffffffffffffffffffffffff1673ffffffffffffffffffffffffffffffffffffffff1681526020018673ffffffffffffffffffffffffffffffffffffffff1673ffffffffffffffffffffffffffffffffffffffff1681526020018573ffffffffffffffffffffffffffffffffffffffff1673ffffffffffffffffffffffffffffffffffffffff1681526020018473ffffffffffffffffffffffffffffffffffffffff1673ffffffffffffffffffffffffffffffffffffffff168152602001838152602001828103825288818151815260200191508051906020019080838360005b83811015610620578082015181840152602081019050610605565b50505050905090810190601f16801561064d5780820380516001836020036101000a031916815260200191505b50995050505050505050505060405180910390f35b34801561066e57600080fd5b5061069b6004803603602081101561068557600080fd5b8101908080359060200190929190505050611f1d565b604051808b81526020018a8152602001806020018973ffffffffffffffffffffffffffffffffffffffff1673ffffffffffffffffffffffffffffffffffffffff1681526020018873ffffffffffffffffffffffffffffffffffffffff1673ffffffffffffffffffffffffffffffffffffffff1681526020018773ffffffffffffffffffffffffffffffffffffffff1673ffffffffffffffffffffffffffffffffffffffff1681526020018673ffffffffffffffffffffffffffffffffffffffff1673ffffffffffffffffffffffffffffffffffffffff16815260200185815260200184815260200183815260200182810382528a818151815260200191508051906020019080838360005b838110156107c15780820151818401526020810190506107a6565b50505050905090810190601f1680156107ee5780820380516001836020036101000a031916815260200191505b509b50505050505050505050505060405180910390f35b6108516004803603604081101561081b57600080fd5b8101908080359060200190929190803573ffffffffffffffffffffffffffffffffffffffff169060200190929190505050612391565b005b6000600160008154600101919050819055905061086e6125e0565b838160000181815250508181604001818152505060008160600190600681111561089457fe5b908160068111156108a157fe5b8152505033816080019073ffffffffffffffffffffffffffffffffffffffff16908173ffffffffffffffffffffffffffffffffffffffff1681525050338160a0019073ffffffffffffffffffffffffffffffffffffffff16908173ffffffffffffffffffffffffffffffffffffffff168152505060008161014001818152505060008090505b83811015610b315760008060008154600101919050819055905080836020018181525050826002600083815260200190815260200160002060008201518160000155602082015181600101556040820151816002015560608201518160030160006101000a81548160ff021916908360068111156109a157fe5b021790555060808201518160030160016101000a81548173ffffffffffffffffffffffffffffffffffffffff021916908373ffffffffffffffffffffffffffffffffffffffff16021790555060a08201518160040160006101000a81548173ffffffffffffffffffffffffffffffffffffffff021916908373ffffffffffffffffffffffffffffffffffffffff16021790555060c08201518160050160006101000a81548173ffffffffffffffffffffffffffffffffffffffff021916908373ffffffffffffffffffffffffffffffffffffffff16021790555060e08201518160060160006101000a81548173ffffffffffffffffffffffffffffffffffffffff021916908373ffffffffffffffffffffffffffffffffffffffff1602179055506101008201518160070155610120820151816008015561014082015181600a015590505060036000858152602001908152602001600020819080600181540180825580915050906001820390600052602060002001600090919290919091505550508080600101915050610927565b507fd29d8a68ca7c8c74be5579719d445aabfe230ed6e6a83aff475a663500eb7609826040518082815260200191505060405180910390a150505050565b82600060036000838152602001908152602001600020600081548110610b9157fe5b9060005260206000200154905060056006811115610bab57fe5b6002600083815260200190815260200160002060030160009054906101000a900460ff166006811115610bda57fe5b14610be457600080fd5b84600060036000838152602001908152602001600020600081548110610c0657fe5b9060005260206000200154905060003373ffffffffffffffffffffffffffffffffffffffff166002600084815260200190815260200160002060060160009054906101000a900473ffffffffffffffffffffffffffffffffffffffff1673ffffffffffffffffffffffffffffffffffffffff1614905080610c8657600080fd5b6000600360008a8152602001908152602001600020805490509050610ca961269d565b60405180608001604052804281526020018a81526020018981526020013373ffffffffffffffffffffffffffffffffffffffff16815250905060008090505b82811015610e38576000600360008d81526020019081526020016000208281548110610d1057fe5b90600052602060002001549050600680811115610d2957fe5b6002600083815260200190815260200160002060030160009054906101000a900460ff166006811115610d5857fe5b14610e2a578260026000838152602001908152602001600020600901600060026000858152602001908152602001600020600a0154815260200190815260200160002060008201518160000155602082015181600101556040820151816002015560608201518160030160006101000a81548173ffffffffffffffffffffffffffffffffffffffff021916908373ffffffffffffffffffffffffffffffffffffffff16021790555090505060026000828152602001908152602001600020600a01600081548092919060010191905055505b508080600101915050610ce8565b507f332d23c9d7e8e885c3f1696ae3b424351c1e9e2a4cc531396d6848b79a0dac988a6040518082815260200191505060405180910390a150505050505050505050565b82600060036000838152602001908152602001600020600081548110610e9e57fe5b9060005260206000200154905060046006811115610eb857fe5b6002600083815260200190815260200160002060030160009054906101000a900460ff166006811115610ee757fe5b14610ef157600080fd5b84600060036000838152602001908152602001600020600081548110610f1357fe5b9060005260206000200154905060003373ffffffffffffffffffffffffffffffffffffffff166002600084815260200190815260200160002060040160009054906101000a900473ffffffffffffffffffffffffffffffffffffffff1673ffffffffffffffffffffffffffffffffffffffff1614905060003373ffffffffffffffffffffffffffffffffffffffff166002600085815260200190815260200160002060050160009054906101000a900473ffffffffffffffffffffffffffffffffffffffff1673ffffffffffffffffffffffffffffffffffffffff161490508180610ffb5750805b61100457600080fd5b6000600360008b815260200190815260200160002080549050905061102761269d565b60405180608001604052804281526020018b81526020018a81526020013373ffffffffffffffffffffffffffffffffffffffff16815250905060008090505b82811015611175576000600360008e8152602001908152602001600020828154811061108e57fe5b906000526020600020015490508260026000838152602001908152602001600020600901600060026000858152602001908152602001600020600a0154815260200190815260200160002060008201518160000155602082015181600101556040820151816002015560608201518160030160006101000a81548173ffffffffffffffffffffffffffffffffffffffff021916908373ffffffffffffffffffffffffffffffffffffffff16021790555090505060026000828152602001908152602001600020600a0160008154809291906001019190505550508080600101915050611066565b507f332d23c9d7e8e885c3f1696ae3b424351c1e9e2a4cc531396d6848b79a0dac988b6040518082815260200191505060405180910390a15050505050505050505050565b80600560068111156111c857fe5b6002600083815260200190815260200160002060030160009054906101000a900460ff1660068111156111f757fe5b1461120157600080fd5b81600060026000838152602001908152602001600020600a0154141561122657600080fd5b60066002600085815260200190815260200160002060030160006101000a81548160ff0219169083600681111561125957fe5b0217905550336002600085815260200190815260200160002060030160016101000a81548173ffffffffffffffffffffffffffffffffffffffff021916908373ffffffffffffffffffffffffffffffffffffffff1602179055507f653d56639fee6b566a5c804764e9689de38645f0b733df89a36a1b7b42173dd8836040518082815260200191505060405180910390a1505050565b600060608060608085600060026000838152602001908152602001600020600a0154141561131c57600080fd5b600060026000898152602001908152602001600020905080600a0154965060608760405190808252806020026020018201604052801561136b5781602001602082028038833980820191505090505b50905060608860405190808252806020026020018201604052801561139f5781602001602082028038833980820191505090505b5090506060896040519080825280602002602001820160405280156113d35781602001602082028038833980820191505090505b50905060608a6040519080825280602002602001820160405280156114075781602001602082028038833980820191505090505b50905060008090505b85600a01548110156115055760008660090160008381526020019081526020016000209050806000015486838151811061144657fe5b602002602001018181525050806002015485838151811061146357fe5b602002602001018181525050806001015484838151811061148057fe5b6020026020010181815250508060030160009054906101000a900473ffffffffffffffffffffffffffffffffffffffff168383815181106114bd57fe5b602002602001019073ffffffffffffffffffffffffffffffffffffffff16908173ffffffffffffffffffffffffffffffffffffffff1681525050508080600101915050611410565b5083838383809a50819b50829c50839d505050505050505050505091939590929450565b8060006003600083815260200190815260200160002060008154811061154b57fe5b906000526020600020015490506003600681111561156557fe5b6002600083815260200190815260200160002060030160009054906101000a900460ff16600681111561159457fe5b1461159e57600080fd5b826000600360008381526020019081526020016000206000815481106115c057fe5b9060005260206000200154905060003373ffffffffffffffffffffffffffffffffffffffff166002600084815260200190815260200160002060040160009054906101000a900473ffffffffffffffffffffffffffffffffffffffff1673ffffffffffffffffffffffffffffffffffffffff161490508061164057600080fd5b60006003600088815260200190815260200160002080549050905060008090505b818110156116dc576000600360008a8152602001908152602001600020828154811061168957fe5b9060005260206000200154905060046002600083815260200190815260200160002060030160006101000a81548160ff021916908360068111156116c957fe5b0217905550508080600101915050611661565b507ff00b9a5725b80c54016f42114f6ed7792d22eecb116011c4afac29c57bef6c95876040518082815260200191505060405180910390a150505050505050565b8160006003600083815260200190815260200160002060008154811061173f57fe5b906000526020600020015490506001600681111561175957fe5b6002600083815260200190815260200160002060030160009054906101000a900460ff16600681111561178857fe5b1461179257600080fd5b836000600360008381526020019081526020016000206000815481106117b457fe5b9060005260206000200154905060003373ffffffffffffffffffffffffffffffffffffffff166002600084815260200190815260200160002060040160009054906101000a900473ffffffffffffffffffffffffffffffffffffffff1673ffffffffffffffffffffffffffffffffffffffff161490508061183457600080fd5b60006003600089815260200190815260200160002080549050905060008090505b818110156118ea576000600360008b8152602001908152602001600020828154811061187d57fe5b90600052602060002001549050600280600083815260200190815260200160002060030160006101000a81548160ff021916908360068111156118bc57fe5b0217905550886002600083815260200190815260200160002060070181905550508080600101915050611855565b507fa96ae0fc3224ebd79eebfe54bd130cc9cb94416cddd1f2386115e00b72532468886040518082815260200191505060405180910390a15050505050505050565b8060006003600083815260200190815260200160002060008154811061194e57fe5b906000526020600020015490506000600681111561196857fe5b6002600083815260200190815260200160002060030160009054906101000a900460ff16600681111561199757fe5b146119a157600080fd5b826000600360008381526020019081526020016000206000815481106119c357fe5b9060005260206000200154905060003373ffffffffffffffffffffffffffffffffffffffff166002600084815260200190815260200160002060040160009054906101000a900473ffffffffffffffffffffffffffffffffffffffff1673ffffffffffffffffffffffffffffffffffffffff1614905080611a4357600080fd5b60006003600088815260200190815260200160002080549050905060008090505b81811015611afa576000600360008a81526020019081526020016000208281548110611a8c57fe5b9060005260206000200154905060016002600083815260200190815260200160002060030160006101000a81548160ff02191690836006811115611acc57fe5b0217905550426002600083815260200190815260200160002060080181905550508080600101915050611a64565b507f9b3b66e2380b690bae22c73ef1428fb0c91e72fe14a4b6defa13035214187aff876040518082815260200191505060405180910390a150505050505050565b80600060036000838152602001908152602001600020600081548110611b5d57fe5b9060005260206000200154905060046006811115611b7757fe5b6002600083815260200190815260200160002060030160009054906101000a900460ff166006811115611ba657fe5b14611bb057600080fd5b82600060036000838152602001908152602001600020600081548110611bd257fe5b90600052602060002001549050600060026000838152602001908152602001600020600a01541415611c0357600080fd5b84600060036000838152602001908152602001600020600081548110611c2557fe5b9060005260206000200154905060003373ffffffffffffffffffffffffffffffffffffffff166002600084815260200190815260200160002060060160009054906101000a900473ffffffffffffffffffffffffffffffffffffffff1673ffffffffffffffffffffffffffffffffffffffff1614905080611ca557600080fd5b6000600360008a815260200190815260200160002080549050905060008090505b81811015611d41576000600360008c81526020019081526020016000208281548110611cee57fe5b9060005260206000200154905060056002600083815260200190815260200160002060030160006101000a81548160ff02191690836006811115611d2e57fe5b0217905550508080600101915050611cc6565b507fa8142743f8f70a4c26f3691cf4ed59718381fb2f18070ec52be1f1022d855557896040518082815260200191505060405180910390a1505050505050505050565b606060036000838152602001908152602001600020805480602002602001604051908101604052809291908181526020018280548015611de357602002820191906000526020600020905b815481526020019060010190808311611dcf575b50505050509050919050565b600080606060008060008060006001548911158015611e0f575060008914155b611e81576040517f08c379a000000000000000000000000000000000000000000000000000000000815260040180806020018281038252601a8152602001807f476976656e20534c55204e6f742043726561746564205965742100000000000081525060200191505060405180910390fd5b6000600360008b81526020019081526020016000206001600360008d8152602001908152602001600020805490500381548110611eba57fe5b90600052602060002001549050611ed081611f1d565b909192939495969750905050809850819950829a50839b50849c50859d50869e5050505050505050600360008b815260200190815260200160002080549050985050919395975091939597565b6000806060600080600080600080600080548b11158015611f3f575060008b14155b611fb1576040517f08c379a000000000000000000000000000000000000000000000000000000000815260040180806020018281038252601a8152602001807f476976656e20504b55204e6f742043726561746564205965742100000000000081525060200191505060405180910390fd5b6000600260008d8152602001908152602001600020905080600001549a508060020154995060006006811115611fe357fe5b8160030160009054906101000a900460ff16600681111561200057fe5b1415612043576040518060400160405280600c81526020017f4d616e756661637475726564000000000000000000000000000000000000000081525098506122d2565b6001600681111561205057fe5b8160030160009054906101000a900460ff16600681111561206d57fe5b14156120b0576040518060400160405280600681526020017f5061636b6564000000000000000000000000000000000000000000000000000081525098506122d1565b600260068111156120bd57fe5b8160030160009054906101000a900460ff1660068111156120da57fe5b141561211d576040518060400160405280600781526020017f466f7253616c650000000000000000000000000000000000000000000000000081525098506122d0565b6003600681111561212a57fe5b8160030160009054906101000a900460ff16600681111561214757fe5b141561218a576040518060400160405280600481526020017f536f6c640000000000000000000000000000000000000000000000000000000081525098506122cf565b6004600681111561219757fe5b8160030160009054906101000a900460ff1660068111156121b457fe5b14156121f7576040518060400160405280600781526020017f536869707065640000000000000000000000000000000000000000000000000081525098506122ce565b6005600681111561220457fe5b8160030160009054906101000a900460ff16600681111561222157fe5b1415612264576040518060400160405280600881526020017f526563656976656400000000000000000000000000000000000000000000000081525098506122cd565b60068081111561227057fe5b8160030160009054906101000a900460ff16600681111561228d57fe5b14156122cc576040518060400160405280600981526020017f507572636861736564000000000000000000000000000000000000000000000081525098505b5b5b5b5b5b5b8060030160019054906101000a900473ffffffffffffffffffffffffffffffffffffffff1697508060040160009054906101000a900473ffffffffffffffffffffffffffffffffffffffff1696508060050160009054906101000a900473ffffffffffffffffffffffffffffffffffffffff1695508060060160009054906101000a900473ffffffffffffffffffffffffffffffffffffffff169450806007015493508060080154925080600a01549150509193959799509193959799565b816000600360008381526020019081526020016000206000815481106123b357fe5b90600052602060002001549050600260068111156123cd57fe5b6002600083815260200190815260200160002060030160009054906101000a900460ff1660068111156123fc57fe5b1461240657600080fd5b60006003600086815260200190815260200160002080549050905060008090505b818110156125a157600060036000888152602001908152602001600020828154811061244f57fe5b9060005260206000200154905060036002600083815260200190815260200160002060030160006101000a81548160ff0219169083600681111561248f57fe5b0217905550336002600083815260200190815260200160002060030160016101000a81548173ffffffffffffffffffffffffffffffffffffffff021916908373ffffffffffffffffffffffffffffffffffffffff160217905550336002600083815260200190815260200160002060050160006101000a81548173ffffffffffffffffffffffffffffffffffffffff021916908373ffffffffffffffffffffffffffffffffffffffff160217905550856002600083815260200190815260200160002060060160006101000a81548173ffffffffffffffffffffffffffffffffffffffff021916908373ffffffffffffffffffffffffffffffffffffffff160217905550508080600101915050612427565b507f92f64ca637d023f354075a4be751b169c1a8a9ccb6d33cdd0cb3520543995727856040518082815260200191505060405180910390a15050505050565b6040518061016001604052806000815260200160008152602001600081526020016000600681111561260e57fe5b8152602001600073ffffffffffffffffffffffffffffffffffffffff168152602001600073ffffffffffffffffffffffffffffffffffffffff168152602001600073ffffffffffffffffffffffffffffffffffffffff168152602001600073ffffffffffffffffffffffffffffffffffffffff1681526020016000815260200160008152602001600081525090565b6040518060800160405280600081526020016000815260200160008152602001600073ffffffffffffffffffffffffffffffffffffffff168152509056fea265627a7a7231582095e98bbb24ce2e4ac89e8d8b29cc78289ef325c3e8ffa70aacdb707615ef1dfb64736f6c63430005110032",
  "source": "pragma solidity ^0.5.0;\n\n\n/// @author Rakshith Vikramraj\n/// @title Drug Chain Contract\ncontract Drug {\n\n    /// Variable for tracking Product Keeping Unit (PKU)\n    uint pku;\n\n    /// Variable for tracking Stock Loading Uint (SLU)\n    uint slu;\n\n    /// Public mapping from PKU to a Drug Item\n    mapping (uint => DrugItem) dItems;\n\n    /// Public mapping from SLU to a array of PKU\n    mapping (uint => uint[]) stockLouds;\n\n    // Enumaration for defining variety of Drug State\n    enum DrugState {\n        Manufactured,\n        Packed,\n        ForSale,\n        Sold,\n        Shipped,\n        Received,\n        Purchased\n    }\n\n    // Structure for Envirument update unit\n    struct EnvUpdateOpj {\n        uint timeStamp;\n        uint humidity;\n        uint temprture;\n        address updaterAddress;\n    }\n\n    /// Structure for keeping Drug Design fields structured\n    struct DrugItem {\n        uint udpc;\n        uint pku;\n        uint slu;\n        DrugState state;\n        address payable currentOwnerId;\n        address manufacturerId;\n        address deistributorId;\n        address retailerId;\n        uint price;\n        uint packingTimeStamp;\n        mapping(uint => EnvUpdateOpj) envHistory;\n        uint envUpdateCounter;\n    }\n\n    /// Event to emit them for users in functions, accept `slu` as input as stock expected\n    event Manufactured(uint slu);\n    event Packed(uint slu);\n    event ForSale(uint slu);\n    event Sold(uint slu);\n    event Shipped(uint slu);\n    event EnvUpdated(uint slu);\n    event Received(uint slu);\n    /// Event to emit them for users in functions, accept `pku` as input as one product unit expected\n    event Purchased(uint pku);\n\n    /// Modifier that checks if an DrugDesignItem.state of a udpc is Owned\n    modifier isManufactured(uint _slu) {\n        uint firstPKU = stockLouds[_slu][0];\n        require(dItems[firstPKU].state == DrugState.Manufactured);\n        _;\n    }\n\n    /// Modifier that checks if an DrugDesignItem.state of a udpc is Owned\n    modifier isPacked(uint _slu) {\n        uint firstPKU = stockLouds[_slu][0];\n        require(dItems[firstPKU].state == DrugState.Packed);\n        _;\n    }\n\n    /// Modifier that checks if an DrugDesignItem.state of a udpc is Owned\n    modifier drugLoudforSale(uint _slu) {\n        uint firstPKU = stockLouds[_slu][0];\n        require(dItems[firstPKU].state == DrugState.ForSale);\n        _;\n    }\n\n    /// Modifier that checks if an DrugDesignItem.state of a udpc is Owned\n    modifier isSold(uint _slu) {\n        uint firstPKU = stockLouds[_slu][0];\n        require(dItems[firstPKU].state == DrugState.Sold);\n        _;\n    }\n\n    /// Modifier that checks if an DrugDesignItem.state of a udpc is Owned\n    modifier isShipped(uint _slu) {\n        uint firstPKU = stockLouds[_slu][0];\n        require(dItems[firstPKU].state == DrugState.Shipped);\n        _;\n    }\n\n    /// Modifier that checks if an DrugDesignItem.state of a udpc is Owned\n    modifier isEnvTracked(uint _slu) {\n        uint firstPKU = stockLouds[_slu][0];\n        require(dItems[firstPKU].envUpdateCounter != 0);\n        _;\n    }\n\n    modifier isReceived(uint _slu) {\n        uint firstPKU = stockLouds[_slu][0];\n        require(dItems[firstPKU].state == DrugState.Received);\n        _;\n    }\n\n    /// Modifier that checks if an DrugDesignItem.state of a udpc is Owned\n    modifier onlyManufacturerOf(uint _slu) {\n        uint firstPKU = stockLouds[_slu][0];\n        bool isManuf = dItems[firstPKU].manufacturerId == msg.sender;\n        require(isManuf);\n        _;\n    }\n\n\n    /// Modifier that checks if an DrugDesignItem.state of a udpc is Owned\n    modifier onlyManufacturerOrDistributorOf(uint _slu) {\n        uint firstPKU = stockLouds[_slu][0];\n        bool isManuf = dItems[firstPKU].manufacturerId == msg.sender;\n        bool isDistr = dItems[firstPKU].deistributorId == msg.sender;\n        require(isManuf || isDistr);\n        _;\n    }\n\n    /// Modifier that checks if an DrugDesignItem.state of a udpc is Owned\n    modifier onlyRetailerOf(uint _slu) {\n        uint firstPKU = stockLouds[_slu][0];\n        bool isReta = dItems[firstPKU].retailerId == msg.sender;\n        require(isReta);\n        _;\n    }\n\n    /// Modifier that checks if an DrugDesignItem.state of a udpc is Owned\n    modifier isDrugReceived(uint _pku) {\n        require(dItems[_pku].state == DrugState.Received);\n        _;\n    }\n\n    /// Modifier that checks if an DrugDesignItem.state of a udpc is Owned\n    modifier isDrugEnvTracked(uint _pku) {\n        require(dItems[_pku].envUpdateCounter != 0);\n        _;\n    }\n\n    /// Constructor Function sets up SLU and PKU to 0\n    constructor() public {\n        slu = 0;\n        pku = 0;\n    }\n\n    /// Function helps manufacturer to manufactur a new Drug Loud\n    function manufacturDrugsLoud(uint _udpc, uint quantity) public {\n        uint _slu = ++slu;\n        DrugItem memory newDrugItem;\n        newDrugItem.udpc = _udpc;\n        newDrugItem.slu = _slu;\n        newDrugItem.state = DrugState.Manufactured;\n        newDrugItem.currentOwnerId = msg.sender;\n        newDrugItem.manufacturerId = msg.sender;\n        newDrugItem.envUpdateCounter = 0;\n        for (uint i = 0; i < quantity; i++) {\n            uint _pku = ++pku;\n            newDrugItem.pku = _pku;\n            dItems[_pku] = newDrugItem;\n            \n            stockLouds[_slu].push(_pku);\n        }\n        emit Manufactured(_slu);\n    }\n\n    /// Function helps manufacturer to Pack a isManufactured Drug Loud\n    function packDrugsLoud(uint _slu)\n        public\n        isManufactured(_slu)\n        onlyManufacturerOf(_slu)\n    {\n        uint quantity = stockLouds[_slu].length;\n        for (uint i = 0; i < quantity; i++) {\n            uint _pku = stockLouds[_slu][i];\n            dItems[_pku].state = DrugState.Packed;\n            dItems[_pku].packingTimeStamp = now;\n        }\n        emit Packed(_slu);\n    }\n\n    /// Function helps manufacturer to add Drug Loud for sale\n    function addDrugsLoud(uint _slu, uint _unitPrice)\n        public\n        isPacked(_slu)\n        onlyManufacturerOf(_slu)\n    {\n        uint quantity = stockLouds[_slu].length;\n        for (uint i = 0; i < quantity; i++) {\n            uint _pku = stockLouds[_slu][i];\n            dItems[_pku].state = DrugState.ForSale;\n            dItems[_pku].price = _unitPrice;\n        }\n        emit ForSale(_slu);\n    }\n\n    /// Function helps distributor to buy a Drug Loud\n    /// it can be quantity only order but i think its not important for now\n    function buyDrugsLoud(uint _slu, address _receiver)\n        public\n        payable\n        drugLoudforSale(_slu)\n    {\n        uint quantity = stockLouds[_slu].length;\n        for (uint i = 0; i < quantity; i++) {\n            uint _pku = stockLouds[_slu][i];\n            dItems[_pku].state = DrugState.Sold;\n            dItems[_pku].currentOwnerId = msg.sender;\n            dItems[_pku].deistributorId = msg.sender;\n            dItems[_pku].retailerId = _receiver;\n\n        }\n        emit Sold(_slu);\n    }\n\n    /// Function helps manufacturer to ship a Drug Loud\n    function shipDrugsLoud(uint _slu)\n        public\n        isSold(_slu)\n        onlyManufacturerOf(_slu)\n    {\n        uint quantity = stockLouds[_slu].length;\n        for (uint i = 0; i < quantity; i++) {\n            uint _pku = stockLouds[_slu][i];\n            dItems[_pku].state = DrugState.Shipped;\n        }\n        emit Shipped(_slu);\n    }\n\n    /// Function helps manufacturer and distributor to update Drug Loud envuirment\n    function updateDrugsLoudShippmentEnv (\n        uint _slu,\n        uint _humidity,\n        uint _temprture\n    )\n        public\n        isShipped(_slu)\n        onlyManufacturerOrDistributorOf(_slu)\n    {\n        uint quantity = stockLouds[_slu].length;\n        EnvUpdateOpj memory _envUpdate = EnvUpdateOpj(\n            now,\n            _humidity,\n            _temprture,\n            msg.sender\n        );\n        for (uint i = 0; i < quantity; i++) {\n            uint _pku = stockLouds[_slu][i];\n\n            dItems[_pku].envHistory[dItems[_pku].envUpdateCounter] = _envUpdate;\n            dItems[_pku].envUpdateCounter ++;\n        }\n        emit EnvUpdated(_slu);\n    }\n\n    /// Function helps manufacturer to Pack a isManufactured Drug Loud\n    function receiveDrugsLoud (\n        uint _slu\n    )\n        public\n        isShipped(_slu)\n        isEnvTracked(_slu)\n        onlyRetailerOf(_slu)\n    {\n        uint quantity = stockLouds[_slu].length;\n        for (uint i = 0; i < quantity; i++) {\n            uint _pku = stockLouds[_slu][i];\n\n            dItems[_pku].state = DrugState.Received;\n        }\n        emit Received(_slu);\n    }\n\n    /// Function helps manufacturer to Pack a isManufactured Drug Loud\n    function updateDrugsLoudStockEnv (\n        uint _slu,\n        uint _humidity,\n        uint _temprture\n    )\n        public\n        isReceived(_slu)\n        onlyRetailerOf(_slu)\n    {\n        uint quantity = stockLouds[_slu].length;\n        EnvUpdateOpj memory _envUpdate = EnvUpdateOpj(\n            now,\n            _humidity,\n            _temprture,\n            msg.sender\n        );\n\n        for (uint i = 0; i < quantity; i++) {\n            uint _pku = stockLouds[_slu][i];\n\n            if (dItems[_pku].state != DrugState.Purchased) {\n                dItems[_pku].envHistory[dItems[_pku].envUpdateCounter] = _envUpdate;\n                dItems[_pku].envUpdateCounter ++;\n            }\n        }\n        emit EnvUpdated(_slu);\n    }\n\n    /// Function helps manufacturer to Pack a isManufactured Drug Loud\n    function purchaseDrug (uint _pku)\n        public\n        payable\n        isDrugReceived(_pku)\n        isDrugEnvTracked(_pku)\n    {\n        dItems[_pku].state = DrugState.Purchased;\n        dItems[_pku].currentOwnerId = msg.sender;\n\n        emit Purchased(_pku);\n    }\n    \n    /// public data featching functions\n    function fetchDrugLoaudData(uint _slu) \n        external \n        view \n        returns(\n            uint quantity,\n            uint _udpc,\n            string memory state,\n            address currentOwner,\n            address manufacturerId,\n            address deistributorId,\n            address retailerId,\n            uint price\n        )\n    {\n        require(_slu <= slu && _slu != 0, 'Given SLU Not Created Yet!');\n\n        uint sampleItemPKU = stockLouds[_slu][stockLouds[_slu].length-1];\n        (\n            _udpc,\n            ,\n            state,\n            currentOwner,\n            manufacturerId,\n            deistributorId,\n            retailerId,\n            price,\n            ,\n            \n        ) = fetchDrugItemData(sampleItemPKU);\n\n        quantity = stockLouds[_slu].length;\n    }\n\n    function fetchDrugItemData(uint _pku)\n        public\n        view\n        returns(\n            uint _udpc,\n            uint _slu,\n            string memory state,\n            address currentOwner,\n            address manufacturerId,\n            address deistributorId,\n            address retailerId,\n            uint price,\n            uint packingTimeStamp,\n            uint numberOfEnvUpdate\n        )\n    {\n        require(_pku <= pku && _pku != 0, 'Given PKU Not Created Yet!');\n        DrugItem  storage _drugItem = dItems[_pku];\n\n        _udpc = _drugItem.udpc;\n        _slu = _drugItem.slu;\n\n        if (_drugItem.state == DrugState.Manufactured)\n            state = 'Manufactured';\n        else if (_drugItem.state == DrugState.Packed)\n            state = 'Packed';\n        else if (_drugItem.state == DrugState.ForSale)\n            state = 'ForSale';\n        else if (_drugItem.state == DrugState.Sold)\n            state = 'Sold';\n        else if (_drugItem.state == DrugState.Shipped)\n            state = 'Shipped';\n        else if (_drugItem.state == DrugState.Received)\n            state = 'Received';\n        else if (_drugItem.state == DrugState.Purchased)\n            state = 'Purchased';\n\n        currentOwner = _drugItem.currentOwnerId;\n        manufacturerId = _drugItem.manufacturerId;\n        deistributorId = _drugItem.deistributorId;\n        retailerId = _drugItem.retailerId;\n        price = _drugItem.price;\n        packingTimeStamp = _drugItem.packingTimeStamp;\n        numberOfEnvUpdate = _drugItem.envUpdateCounter;\n    }\n\n    function fetchLoudPKUs(uint _slu)\n        external\n        view\n        returns(\n            uint[] memory loadPKUs\n        )\n    {\n        loadPKUs = stockLouds[_slu];\n    }\n\n    function fetchEnvHistory(uint _pku)\n        external\n        view\n        isDrugEnvTracked(_pku)\n        returns(\n            uint numberOfupdate,\n            uint[] memory timeStamps,\n            uint[] memory temprtures,\n            uint[] memory humiditys,\n            address[] memory updaterAddresses\n        )\n    {\n        DrugItem  storage _drugItem = dItems[_pku];\n        numberOfupdate = _drugItem.envUpdateCounter;\n        uint[] memory _timeStamps = new uint[](numberOfupdate);\n        uint[] memory _temprtures = new uint[](numberOfupdate);\n        uint[] memory _humiditys = new uint[](numberOfupdate);\n        address[] memory _updaterAddresses = new address[](numberOfupdate);\n        for (uint i = 0; i < _drugItem.envUpdateCounter; i++) {\n            EnvUpdateOpj storage _envUpdate = _drugItem.envHistory[i];\n            _timeStamps[i] = _envUpdate.timeStamp;\n            _temprtures[i] = _envUpdate.temprture;\n            _humiditys[i] = _envUpdate.humidity;\n            _updaterAddresses[i] = _envUpdate.updaterAddress;\n        }\n        (timeStamps, temprtures, humiditys, updaterAddresses) = (\n            _timeStamps, \n            _temprtures, \n            _humiditys,\n            _updaterAddresses\n        );\n    }\n\n}\n",
  "sourcePath": "/Users/rakshith/Workspace/blockchain/drug-supply-chain/contracts/Base/Storage/Drug.sol",
  "compiler": {
    "name": "solc",
    "version": "0.5.17+commit.d19bba13.Emscripten.clang"
  },
  "schemaVersion": "3.3.0",
  "updatedAt": "2020-11-19T05:52:10.919Z",
  "devdoc": {
    "author": "Rakshith Vikramraj",
    "methods": {},
    "title": "Drug Chain Contract"
  },
  "userdoc": {
    "methods": {
      "addDrugsLoud(uint256,uint256)": {
        "notice": "Function helps manufacturer to add Drug Loud for sale"
      },
      "buyDrugsLoud(uint256,address)": {
        "notice": "Function helps distributor to buy a Drug Loud it can be quantity only order but i think its not important for now"
      },
      "constructor": "Constructor Function sets up SLU and PKU to 0",
      "fetchDrugLoaudData(uint256)": {
        "notice": "public data featching functions"
      },
      "manufacturDrugsLoud(uint256,uint256)": {
        "notice": "Function helps manufacturer to manufactur a new Drug Loud"
      },
      "packDrugsLoud(uint256)": {
        "notice": "Function helps manufacturer to Pack a isManufactured Drug Loud"
      },
      "purchaseDrug(uint256)": {
        "notice": "Function helps manufacturer to Pack a isManufactured Drug Loud"
      },
      "receiveDrugsLoud(uint256)": {
        "notice": "Function helps manufacturer to Pack a isManufactured Drug Loud"
      },
      "shipDrugsLoud(uint256)": {
        "notice": "Function helps manufacturer to ship a Drug Loud"
      },
      "updateDrugsLoudShippmentEnv(uint256,uint256,uint256)": {
        "notice": "Function helps manufacturer and distributor to update Drug Loud envuirment"
      },
      "updateDrugsLoudStockEnv(uint256,uint256,uint256)": {
        "notice": "Function helps manufacturer to Pack a isManufactured Drug Loud"
      }
    }
  }
}