{
  "contractName": "DrugDesign",
  "abi": [
    {
      "inputs": [],
      "payable": false,
      "stateMutability": "nonpayable",
      "type": "constructor"
    },
    {
      "anonymous": false,
      "inputs": [
        {
          "indexed": false,
          "internalType": "uint256",
          "name": "udpc",
          "type": "uint256"
        }
      ],
      "name": "Approved",
      "type": "event"
    },
    {
      "anonymous": false,
      "inputs": [
        {
          "indexed": false,
          "internalType": "uint256",
          "name": "udpc",
          "type": "uint256"
        }
      ],
      "name": "DrugDesignPurchased",
      "type": "event"
    },
    {
      "anonymous": false,
      "inputs": [
        {
          "indexed": false,
          "internalType": "uint256",
          "name": "udpc",
          "type": "uint256"
        }
      ],
      "name": "Owned",
      "type": "event"
    },
    {
      "anonymous": false,
      "inputs": [
        {
          "indexed": false,
          "internalType": "uint256",
          "name": "udpc",
          "type": "uint256"
        }
      ],
      "name": "PartnerClosed",
      "type": "event"
    },
    {
      "anonymous": false,
      "inputs": [
        {
          "indexed": false,
          "internalType": "uint256",
          "name": "udpc",
          "type": "uint256"
        }
      ],
      "name": "PartnerGained",
      "type": "event"
    },
    {
      "anonymous": false,
      "inputs": [
        {
          "indexed": false,
          "internalType": "uint256",
          "name": "udpc",
          "type": "uint256"
        },
        {
          "indexed": false,
          "internalType": "address",
          "name": "partner",
          "type": "address"
        }
      ],
      "name": "RestrictPartnerTransfered",
      "type": "event"
    },
    {
      "anonymous": false,
      "inputs": [
        {
          "indexed": false,
          "internalType": "uint256",
          "name": "udpc",
          "type": "uint256"
        }
      ],
      "name": "SaleCanceled",
      "type": "event"
    },
    {
      "anonymous": false,
      "inputs": [
        {
          "indexed": false,
          "internalType": "uint256",
          "name": "udpc",
          "type": "uint256"
        }
      ],
      "name": "TestCaseAdded",
      "type": "event"
    },
    {
      "anonymous": false,
      "inputs": [
        {
          "indexed": false,
          "internalType": "uint256",
          "name": "udpc",
          "type": "uint256"
        }
      ],
      "name": "UpForPartnered",
      "type": "event"
    },
    {
      "anonymous": false,
      "inputs": [
        {
          "indexed": false,
          "internalType": "uint256",
          "name": "udpc",
          "type": "uint256"
        }
      ],
      "name": "UpForRestrictPartnered",
      "type": "event"
    },
    {
      "anonymous": false,
      "inputs": [
        {
          "indexed": false,
          "internalType": "uint256",
          "name": "udpc",
          "type": "uint256"
        }
      ],
      "name": "UpForSale",
      "type": "event"
    },
    {
      "constant": true,
      "inputs": [],
      "name": "udpc",
      "outputs": [
        {
          "internalType": "uint256",
          "name": "",
          "type": "uint256"
        }
      ],
      "payable": false,
      "stateMutability": "view",
      "type": "function"
    },
    {
      "constant": true,
      "inputs": [],
      "name": "getUdpc",
      "outputs": [
        {
          "internalType": "uint256",
          "name": "_udpc",
          "type": "uint256"
        }
      ],
      "payable": false,
      "stateMutability": "view",
      "type": "function"
    },
    {
      "constant": false,
      "inputs": [
        {
          "internalType": "string",
          "name": "_designerName",
          "type": "string"
        },
        {
          "internalType": "string",
          "name": "_drugName",
          "type": "string"
        },
        {
          "internalType": "string",
          "name": "_description",
          "type": "string"
        },
        {
          "internalType": "string",
          "name": "_notes",
          "type": "string"
        }
      ],
      "name": "designDrug",
      "outputs": [],
      "payable": false,
      "stateMutability": "nonpayable",
      "type": "function"
    },
    {
      "constant": false,
      "inputs": [
        {
          "internalType": "uint256",
          "name": "_udpc",
          "type": "uint256"
        },
        {
          "internalType": "string",
          "name": "_description",
          "type": "string"
        },
        {
          "internalType": "bool",
          "name": "_isPassed",
          "type": "bool"
        },
        {
          "internalType": "string",
          "name": "_notes",
          "type": "string"
        }
      ],
      "name": "addTestCase",
      "outputs": [],
      "payable": false,
      "stateMutability": "nonpayable",
      "type": "function"
    },
    {
      "constant": false,
      "inputs": [
        {
          "internalType": "uint256",
          "name": "_udpc",
          "type": "uint256"
        },
        {
          "internalType": "string",
          "name": "_description",
          "type": "string"
        },
        {
          "internalType": "bool",
          "name": "_isPassed",
          "type": "bool"
        },
        {
          "internalType": "string",
          "name": "_notes",
          "type": "string"
        }
      ],
      "name": "addTestCaseByRegulaor",
      "outputs": [],
      "payable": false,
      "stateMutability": "nonpayable",
      "type": "function"
    },
    {
      "constant": false,
      "inputs": [
        {
          "internalType": "uint256",
          "name": "_udpc",
          "type": "uint256"
        }
      ],
      "name": "approveDrug",
      "outputs": [],
      "payable": false,
      "stateMutability": "nonpayable",
      "type": "function"
    },
    {
      "constant": false,
      "inputs": [
        {
          "internalType": "uint256",
          "name": "_udpc",
          "type": "uint256"
        },
        {
          "internalType": "uint256",
          "name": "_price",
          "type": "uint256"
        }
      ],
      "name": "upForSale",
      "outputs": [],
      "payable": false,
      "stateMutability": "nonpayable",
      "type": "function"
    },
    {
      "constant": false,
      "inputs": [
        {
          "internalType": "uint256",
          "name": "_udpc",
          "type": "uint256"
        }
      ],
      "name": "purchaseDrugDesign",
      "outputs": [],
      "payable": true,
      "stateMutability": "payable",
      "type": "function"
    },
    {
      "constant": false,
      "inputs": [
        {
          "internalType": "uint256",
          "name": "_udpc",
          "type": "uint256"
        },
        {
          "internalType": "uint256",
          "name": "_shares",
          "type": "uint256"
        }
      ],
      "name": "openManufactPartnership",
      "outputs": [],
      "payable": false,
      "stateMutability": "nonpayable",
      "type": "function"
    },
    {
      "constant": false,
      "inputs": [
        {
          "internalType": "uint256",
          "name": "_udpc",
          "type": "uint256"
        },
        {
          "internalType": "string",
          "name": "_name",
          "type": "string"
        }
      ],
      "name": "buildPartnerContract",
      "outputs": [],
      "payable": false,
      "stateMutability": "nonpayable",
      "type": "function"
    },
    {
      "constant": false,
      "inputs": [
        {
          "internalType": "uint256",
          "name": "_udpc",
          "type": "uint256"
        }
      ],
      "name": "closeManufactPartnership",
      "outputs": [],
      "payable": false,
      "stateMutability": "nonpayable",
      "type": "function"
    },
    {
      "constant": false,
      "inputs": [
        {
          "internalType": "uint256",
          "name": "_udpc",
          "type": "uint256"
        }
      ],
      "name": "restrictManufactPartnership",
      "outputs": [],
      "payable": false,
      "stateMutability": "nonpayable",
      "type": "function"
    },
    {
      "constant": false,
      "inputs": [
        {
          "internalType": "uint256",
          "name": "_udpc",
          "type": "uint256"
        },
        {
          "internalType": "address payable",
          "name": "_partner",
          "type": "address"
        },
        {
          "internalType": "string",
          "name": "_name",
          "type": "string"
        },
        {
          "internalType": "uint256",
          "name": "_shares",
          "type": "uint256"
        }
      ],
      "name": "buildRestrictPartnerContract",
      "outputs": [],
      "payable": false,
      "stateMutability": "nonpayable",
      "type": "function"
    },
    {
      "constant": true,
      "inputs": [
        {
          "internalType": "uint256",
          "name": "_udpc",
          "type": "uint256"
        }
      ],
      "name": "fetchDrugDesignData",
      "outputs": [
        {
          "internalType": "address",
          "name": "currentOwner",
          "type": "address"
        },
        {
          "internalType": "address",
          "name": "designerId",
          "type": "address"
        },
        {
          "internalType": "string",
          "name": "designerName",
          "type": "string"
        },
        {
          "internalType": "string",
          "name": "drugName",
          "type": "string"
        },
        {
          "internalType": "string",
          "name": "currentState",
          "type": "string"
        },
        {
          "internalType": "bool",
          "name": "forSale",
          "type": "bool"
        },
        {
          "internalType": "uint256",
          "name": "salePrice",
          "type": "uint256"
        },
        {
          "internalType": "string",
          "name": "partnershipState",
          "type": "string"
        },
        {
          "internalType": "uint256",
          "name": "partnershipShares",
          "type": "uint256"
        },
        {
          "internalType": "uint256",
          "name": "numberOfTests",
          "type": "uint256"
        },
        {
          "internalType": "uint256",
          "name": "numberOfManufacturers",
          "type": "uint256"
        }
      ],
      "payable": false,
      "stateMutability": "view",
      "type": "function"
    },
    {
      "constant": true,
      "inputs": [
        {
          "internalType": "uint256",
          "name": "_udpc",
          "type": "uint256"
        }
      ],
      "name": "featchDrugDesignMetaData",
      "outputs": [
        {
          "internalType": "string",
          "name": "name",
          "type": "string"
        },
        {
          "internalType": "string",
          "name": "description",
          "type": "string"
        },
        {
          "internalType": "string",
          "name": "notes",
          "type": "string"
        }
      ],
      "payable": false,
      "stateMutability": "view",
      "type": "function"
    },
    {
      "constant": true,
      "inputs": [
        {
          "internalType": "uint256",
          "name": "_udpc",
          "type": "uint256"
        },
        {
          "internalType": "uint256",
          "name": "_testIndex",
          "type": "uint256"
        }
      ],
      "name": "featchDrugDesignTestCases",
      "outputs": [
        {
          "internalType": "string",
          "name": "description",
          "type": "string"
        },
        {
          "internalType": "bool",
          "name": "isPassed",
          "type": "bool"
        },
        {
          "internalType": "string",
          "name": "notes",
          "type": "string"
        }
      ],
      "payable": false,
      "stateMutability": "view",
      "type": "function"
    },
    {
      "constant": true,
      "inputs": [
        {
          "internalType": "uint256",
          "name": "_udpc",
          "type": "uint256"
        },
        {
          "internalType": "address",
          "name": "_manufacturerId",
          "type": "address"
        }
      ],
      "name": "isManufacturerOf",
      "outputs": [
        {
          "internalType": "bool",
          "name": "",
          "type": "bool"
        }
      ],
      "payable": false,
      "stateMutability": "view",
      "type": "function"
    },
    {
      "constant": true,
      "inputs": [
        {
          "internalType": "uint256",
          "name": "_udpc",
          "type": "uint256"
        },
        {
          "internalType": "address",
          "name": "_manufacturerId",
          "type": "address"
        }
      ],
      "name": "manufacturerSharesOf",
      "outputs": [
        {
          "internalType": "uint256",
          "name": "",
          "type": "uint256"
        }
      ],
      "payable": false,
      "stateMutability": "view",
      "type": "function"
    }
  ],
  "bytecode": "0x608060405234801561001057600080fd5b506000808190555061388e806100276000396000f3fe6080604052600436106101095760003560e01c806365c7c33111610095578063c778145d11610064578063c778145d14610b1e578063c7bead1e14610b49578063e32ba99514610c7e578063e63d2ee914610d7a578063fc42925214610db557610109565b806365c7c33114610994578063784167af146109d95780639ce6f51c14610a1e5780639f17968214610a4c57610109565b8063374a2409116100dc578063374a24091461035c5780633f968f9e14610397578063424ee0db146104065780634314d44d146106935780634346fac51461080857610109565b806301715f751461010e578063076ed968146101815780631395d0f2146101ac5780631e8acbeb146101e7575b600080fd5b34801561011a57600080fd5b506101676004803603604081101561013157600080fd5b8101908080359060200190929190803573ffffffffffffffffffffffffffffffffffffffff16906020019092919050505061103a565b604051808215151515815260200191505060405180910390f35b34801561018d57600080fd5b5061019661106c565b6040518082815260200191505060405180910390f35b3480156101b857600080fd5b506101e5600480360360208110156101cf57600080fd5b8101908080359060200190929190505050611075565b005b3480156101f357600080fd5b5061035a6004803603608081101561020a57600080fd5b81019080803590602001909291908035906020019064010000000081111561023157600080fd5b82018360208201111561024357600080fd5b8035906020019184600183028401116401000000008311171561026557600080fd5b91908080601f016020809104026020016040519081016040528093929190818152602001838380828437600081840152601f19601f820116905080830192505050505050509192919290803515159060200190929190803590602001906401000000008111156102d457600080fd5b8201836020820111156102e657600080fd5b8035906020019184600183028401116401000000008311171561030857600080fd5b91908080601f016020809104026020016040519081016040528093929190818152602001838380828437600081840152601f19601f82011690508083019250505050505050919291929050505061112f565b005b34801561036857600080fd5b506103956004803603602081101561037f57600080fd5b810190808035906020019092919050505061142a565b005b3480156103a357600080fd5b506103f0600480360360408110156103ba57600080fd5b8101908080359060200190929190803573ffffffffffffffffffffffffffffffffffffffff169060200190929190505050611557565b6040518082815260200191505060405180910390f35b34801561041257600080fd5b506106916004803603608081101561042957600080fd5b810190808035906020019064010000000081111561044657600080fd5b82018360208201111561045857600080fd5b8035906020019184600183028401116401000000008311171561047a57600080fd5b91908080601f016020809104026020016040519081016040528093929190818152602001838380828437600081840152601f19601f820116905080830192505050505050509192919290803590602001906401000000008111156104dd57600080fd5b8201836020820111156104ef57600080fd5b8035906020019184600183028401116401000000008311171561051157600080fd5b91908080601f016020809104026020016040519081016040528093929190818152602001838380828437600081840152601f19601f8201169050808301925050505050505091929192908035906020019064010000000081111561057457600080fd5b82018360208201111561058657600080fd5b803590602001918460018302840111640100000000831117156105a857600080fd5b91908080601f016020809104026020016040519081016040528093929190818152602001838380828437600081840152601f19601f8201169050808301925050505050505091929192908035906020019064010000000081111561060b57600080fd5b82018360208201111561061d57600080fd5b8035906020019184600183028401116401000000008311171561063f57600080fd5b91908080601f016020809104026020016040519081016040528093929190818152602001838380828437600081840152601f19601f820116905080830192505050505050509192919290505050611589565b005b34801561069f57600080fd5b50610806600480360360808110156106b657600080fd5b8101908080359060200190929190803590602001906401000000008111156106dd57600080fd5b8201836020820111156106ef57600080fd5b8035906020019184600183028401116401000000008311171561071157600080fd5b91908080601f016020809104026020016040519081016040528093929190818152602001838380828437600081840152601f19601f8201169050808301925050505050505091929192908035151590602001909291908035906020019064010000000081111561078057600080fd5b82018360208201111561079257600080fd5b803590602001918460018302840111640100000000831117156107b457600080fd5b91908080601f016020809104026020016040519081016040528093929190818152602001838380828437600081840152601f19601f8201169050808301925050505050505091929192905050506118c4565b005b34801561081457600080fd5b506108416004803603602081101561082b57600080fd5b8101908080359060200190929190505050611b4f565b60405180806020018060200180602001848103845287818151815260200191508051906020019080838360005b8381101561088957808201518184015260208101905061086e565b50505050905090810190601f1680156108b65780820380516001836020036101000a031916815260200191505b50848103835286818151815260200191508051906020019080838360005b838110156108ef5780820151818401526020810190506108d4565b50505050905090810190601f16801561091c5780820380516001836020036101000a031916815260200191505b50848103825285818151815260200191508051906020019080838360005b8381101561095557808201518184015260208101905061093a565b50505050905090810190601f1680156109825780820380516001836020036101000a031916815260200191505b50965050505050505060405180910390f35b3480156109a057600080fd5b506109d7600480360360408110156109b757600080fd5b810190808035906020019092919080359060200190929190505050611dfe565b005b3480156109e557600080fd5b50610a1c600480360360408110156109fc57600080fd5b810190808035906020019092919080359060200190929190505050611fc0565b005b610a4a60048036036020811015610a3457600080fd5b8101908080359060200190929190505050612106565b005b348015610a5857600080fd5b50610b1c60048036036040811015610a6f57600080fd5b810190808035906020019092919080359060200190640100000000811115610a9657600080fd5b820183602082011115610aa857600080fd5b80359060200191846001830284011164010000000083111715610aca57600080fd5b91908080601f016020809104026020016040519081016040528093929190818152602001838380828437600081840152601f19601f82011690508083019250505050505050919291929050505061236e565b005b348015610b2a57600080fd5b50610b33612469565b6040518082815260200191505060405180910390f35b348015610b5557600080fd5b50610b8c60048036036040811015610b6c57600080fd5b81019080803590602001909291908035906020019092919050505061246f565b60405180806020018415151515815260200180602001838103835286818151815260200191508051906020019080838360005b83811015610bda578082015181840152602081019050610bbf565b50505050905090810190601f168015610c075780820380516001836020036101000a031916815260200191505b50838103825284818151815260200191508051906020019080838360005b83811015610c40578082015181840152602081019050610c25565b50505050905090810190601f168015610c6d5780820380516001836020036101000a031916815260200191505b509550505050505060405180910390f35b348015610c8a57600080fd5b50610d7860048036036080811015610ca157600080fd5b8101908080359060200190929190803573ffffffffffffffffffffffffffffffffffffffff16906020019092919080359060200190640100000000811115610ce857600080fd5b820183602082011115610cfa57600080fd5b80359060200191846001830284011164010000000083111715610d1c57600080fd5b91908080601f016020809104026020016040519081016040528093929190818152602001838380828437600081840152601f19601f8201169050808301925050505050505091929192908035906020019092919050505061274f565b005b348015610d8657600080fd5b50610db360048036036020811015610d9d57600080fd5b8101908080359060200190929190505050612966565b005b348015610dc157600080fd5b50610dee60048036036020811015610dd857600080fd5b8101908080359060200190929190505050612ab5565b604051808c73ffffffffffffffffffffffffffffffffffffffff1673ffffffffffffffffffffffffffffffffffffffff1681526020018b73ffffffffffffffffffffffffffffffffffffffff1673ffffffffffffffffffffffffffffffffffffffff1681526020018060200180602001806020018a1515151581526020018981526020018060200188815260200187815260200186815260200185810385528e818151815260200191508051906020019080838360005b83811015610ec0578082015181840152602081019050610ea5565b50505050905090810190601f168015610eed5780820380516001836020036101000a031916815260200191505b5085810384528d818151815260200191508051906020019080838360005b83811015610f26578082015181840152602081019050610f0b565b50505050905090810190601f168015610f535780820380516001836020036101000a031916815260200191505b5085810383528c818151815260200191508051906020019080838360005b83811015610f8c578082015181840152602081019050610f71565b50505050905090810190601f168015610fb95780820380516001836020036101000a031916815260200191505b50858103825289818151815260200191508051906020019080838360005b83811015610ff2578082015181840152602081019050610fd7565b50505050905090810190601f16801561101f5780820380516001836020036101000a031916815260200191505b509f5050505050505050505050505050505060405180910390f35b60006110648260016000868152602001908152602001600020600b0161304890919063ffffffff16565b905092915050565b60008054905090565b806001600381111561108357fe5b6001600083815260200190815260200160002060040160009054906101000a900460ff1660038111156110b257fe5b146110bc57600080fd5b60026001600084815260200190815260200160002060040160006101000a81548160ff021916908360038111156110ef57fe5b02179055507f3ad93af63cb7967b23e4fb500b7d7d28b07516325dcf341f88bebf959d82c1cb826040518082815260200191505060405180910390a15050565b833373ffffffffffffffffffffffffffffffffffffffff166001600083815260200190815260200160002060010160009054906101000a900473ffffffffffffffffffffffffffffffffffffffff1673ffffffffffffffffffffffffffffffffffffffff161461119e57600080fd5b600054851115611216576040517f08c379a000000000000000000000000000000000000000000000000000000000815260040180806020018281038252601b8152602001807f476976656e2055445043204e6f7420437265617465642059657421000000000081525060200191505060405180910390fd5b61121e61363d565b6040518060a001604052803373ffffffffffffffffffffffffffffffffffffffff16815260200142815260200185151581526020018681526020018481525090508060016000888152602001908152602001600020600a016000600160008a815260200190815260200160002060090154815260200190815260200160002060008201518160000160006101000a81548173ffffffffffffffffffffffffffffffffffffffff021916908373ffffffffffffffffffffffffffffffffffffffff1602179055506020820151816001015560408201518160020160006101000a81548160ff021916908315150217905550606082015181600301908051906020019061132a929190613684565b506080820151816004019080519060200190611347929190613684565b5090505060016000878152602001908152602001600020600901600081548092919060010191905055506000600381111561137e57fe5b6001600088815260200190815260200160002060040160009054906101000a900460ff1660038111156113ad57fe5b14156113eb57600180600088815260200190815260200160002060040160006101000a81548160ff021916908360038111156113e557fe5b02179055505b7f81d5f9bced9b9d1723f40796f43346ab2f3d2147b09cc27e573f3eb3b5875864866040518082815260200191505060405180910390a1505050505050565b806002600381111561143857fe5b6001600083815260200190815260200160002060040160009054906101000a900460ff16600381111561146757fe5b1461147157600080fd5b813373ffffffffffffffffffffffffffffffffffffffff166001600083815260200190815260200160002060010160009054906101000a900473ffffffffffffffffffffffffffffffffffffffff1673ffffffffffffffffffffffffffffffffffffffff16146114e057600080fd5b600060016000858152602001908152602001600020600b0160020160006101000a81548160ff0219169083600281111561151657fe5b02179055507fecd07b3c3d2d5a97909bbc0b960a7481613849c91ef6c3a8b139c3b7c4c8083b836040518082815260200191505060405180910390a1505050565b60006115818260016000868152602001908152602001600020600b016130da90919063ffffffff16565b905092915050565b60008081548092919060010191905055506115a2613704565b60005481600001818152505033816020019073ffffffffffffffffffffffffffffffffffffffff16908173ffffffffffffffffffffffffffffffffffffffff168152505033816040019073ffffffffffffffffffffffffffffffffffffffff16908173ffffffffffffffffffffffffffffffffffffffff168152505084816060018190525060008160800190600381111561163957fe5b9081600381111561164657fe5b815250506040518060600160405280858152602001848152602001838152508160a0018190525060008160c0018181525050600181610100015160600181815250508060016000805481526020019081526020016000206000820151816000015560208201518160010160006101000a81548173ffffffffffffffffffffffffffffffffffffffff021916908373ffffffffffffffffffffffffffffffffffffffff16021790555060408201518160020160006101000a81548173ffffffffffffffffffffffffffffffffffffffff021916908373ffffffffffffffffffffffffffffffffffffffff1602179055506060820151816003019080519060200190611751929190613684565b5060808201518160040160006101000a81548160ff0219169083600381111561177657fe5b021790555060a08201518160050160008201518160000190805190602001906117a0929190613684565b5060208201518160010190805190602001906117bd929190613684565b5060408201518160020190805190602001906117da929190613684565b50505060c0820151816008015560e0820151816009015561010082015181600b0160008201518160000160006101000a81548173ffffffffffffffffffffffffffffffffffffffff021916908373ffffffffffffffffffffffffffffffffffffffff1602179055506020820151816001015560408201518160020160006101000a81548160ff0219169083600281111561187057fe5b02179055506060820151816003015550509050507f4bea4fa538d41a7b7fb10bb3405cf3e168122aa3438625bbf0ac6dde64fbdb0c6000546040518082815260200191505060405180910390a15050505050565b60005484111561193c576040517f08c379a000000000000000000000000000000000000000000000000000000000815260040180806020018281038252601b8152602001807f476976656e2055445043204e6f7420437265617465642059657421000000000081525060200191505060405180910390fd5b61194461363d565b6040518060a001604052803373ffffffffffffffffffffffffffffffffffffffff16815260200142815260200184151581526020018581526020018381525090508060016000878152602001908152602001600020600a0160006001600089815260200190815260200160002060090154815260200190815260200160002060008201518160000160006101000a81548173ffffffffffffffffffffffffffffffffffffffff021916908373ffffffffffffffffffffffffffffffffffffffff1602179055506020820151816001015560408201518160020160006101000a81548160ff0219169083151502179055506060820151816003019080519060200190611a50929190613684565b506080820151816004019080519060200190611a6d929190613684565b50905050600160008681526020019081526020016000206009016000815480929190600101919050555060006003811115611aa457fe5b6001600087815260200190815260200160002060040160009054906101000a900460ff166003811115611ad357fe5b1415611b1157600180600087815260200190815260200160002060040160006101000a81548160ff02191690836003811115611b0b57fe5b02179055505b7f81d5f9bced9b9d1723f40796f43346ab2f3d2147b09cc27e573f3eb3b5875864856040518082815260200191505060405180910390a15050505050565b6060806060600054841115611bcc576040517f08c379a000000000000000000000000000000000000000000000000000000000815260040180806020018281038252601b8152602001807f476976656e2055445043204e6f7420437265617465642059657421000000000081525060200191505060405180910390fd5b600160008581526020019081526020016000206005016000016001600086815260200190815260200160002060050160010160016000878152602001908152602001600020600501600201828054600181600116156101000203166002900480601f016020809104026020016040519081016040528092919081815260200182805460018160011615610100020316600290048015611cac5780601f10611c8157610100808354040283529160200191611cac565b820191906000526020600020905b815481529060010190602001808311611c8f57829003601f168201915b50505050509250818054600181600116156101000203166002900480601f016020809104026020016040519081016040528092919081815260200182805460018160011615610100020316600290048015611d485780601f10611d1d57610100808354040283529160200191611d48565b820191906000526020600020905b815481529060010190602001808311611d2b57829003601f168201915b50505050509150808054600181600116156101000203166002900480601f016020809104026020016040519081016040528092919081815260200182805460018160011615610100020316600290048015611de45780601f10611db957610100808354040283529160200191611de4565b820191906000526020600020905b815481529060010190602001808311611dc757829003601f168201915b505050505090508093508194508295505050509193909250565b8160026003811115611e0c57fe5b6001600083815260200190815260200160002060040160009054906101000a900460ff166003811115611e3b57fe5b14611e4557600080fd5b823373ffffffffffffffffffffffffffffffffffffffff166001600083815260200190815260200160002060010160009054906101000a900473ffffffffffffffffffffffffffffffffffffffff1673ffffffffffffffffffffffffffffffffffffffff1614611eb457600080fd5b6064831115611f2b576040517f08c379a00000000000000000000000000000000000000000000000000000000081526004018080602001828103825260168152602001807f4d6f7374206265206c657373207468616e20253130300000000000000000000081525060200191505060405180910390fd5b8260016000868152602001908152602001600020600b01600101819055506001806000868152602001908152602001600020600b0160020160006101000a81548160ff02191690836002811115611f7e57fe5b02179055507f7757356b46f23cb3ef1647e45863d1afc6f69c56c39b4afc70f3e2cea14c3a9d846040518082815260200191505060405180910390a150505050565b813373ffffffffffffffffffffffffffffffffffffffff166001600083815260200190815260200160002060010160009054906101000a900473ffffffffffffffffffffffffffffffffffffffff1673ffffffffffffffffffffffffffffffffffffffff161461202f57600080fd5b826002600381111561203d57fe5b6001600083815260200190815260200160002060040160009054906101000a900460ff16600381111561206c57fe5b1461207657600080fd5b82600160008681526020019081526020016000206008018190555060036001600086815260200190815260200160002060040160006101000a81548160ff021916908360038111156120c457fe5b02179055507f9830dea00c267e7b6913a128e9a399b9272b3c2b650ac4c447ce2b876b100488846040518082815260200191505060405180910390a150505050565b8060038081111561211357fe5b6001600083815260200190815260200160002060040160009054906101000a900460ff16600381111561214257fe5b1461214c57600080fd5b8160016000828152602001908152602001600020600801543410156121d9576040517f08c379a000000000000000000000000000000000000000000000000000000000815260040180806020018281038252600b8152602001807f4e6f7420456e6f7567682100000000000000000000000000000000000000000081525060200191505060405180910390fd5b60026001600085815260200190815260200160002060040160006101000a81548160ff0219169083600381111561220c57fe5b0217905550336001600085815260200190815260200160002060010160006101000a81548173ffffffffffffffffffffffffffffffffffffffff021916908373ffffffffffffffffffffffffffffffffffffffff1602179055503360016000858152602001908152602001600020600b0160000160006101000a81548173ffffffffffffffffffffffffffffffffffffffff021916908373ffffffffffffffffffffffffffffffffffffffff1602179055507f761e3276be1dd60429a48581fa8d3df6c90c05fff554645023f8318bc29402b7836040518082815260200191505060405180910390a16000600160008381526020019081526020016000206008015490506000813403905060008114612367573373ffffffffffffffffffffffffffffffffffffffff166108fc829081150290604051600060405180830381858888f19350505050158015612365573d6000803e3d6000fd5b505b5050505050565b816002600381111561237c57fe5b6001600083815260200190815260200160002060040160009054906101000a900460ff1660038111156123ab57fe5b146123b557600080fd5b82600160028111156123c357fe5b60016000838152602001908152602001600020600b0160020160009054906101000a900460ff1660028111156123f557fe5b146123ff57600080fd5b61242c3384600060016000898152602001908152602001600020600b01613190909392919063ffffffff16565b7f74c5d412ef45f2e49816788001b6e27a174bb63e91ade58fd0631869b74a6ec5846040518082815260200191505060405180910390a150505050565b60005481565b6060600060606000548511156124ed576040517f08c379a000000000000000000000000000000000000000000000000000000000815260040180806020018281038252601b8152602001807f476976656e2055445043204e6f7420437265617465642059657421000000000081525060200191505060405180910390fd5b60016000868152602001908152602001600020600901548410612578576040517f08c379a000000000000000000000000000000000000000000000000000000000815260040180806020018281038252601a8152602001807f546573742043617365204e6f742043726561746564205965742100000000000081525060200191505060405180910390fd5b60016000868152602001908152602001600020600a01600085815260200190815260200160002060030160016000878152602001908152602001600020600a01600086815260200190815260200160002060020160009054906101000a900460ff1660016000888152602001908152602001600020600a016000878152602001908152602001600020600401828054600181600116156101000203166002900480601f0160208091040260200160405190810160405280929190818152602001828054600181600116156101000203166002900480156126995780601f1061266e57610100808354040283529160200191612699565b820191906000526020600020905b81548152906001019060200180831161267c57829003601f168201915b50505050509250808054600181600116156101000203166002900480601f0160208091040260200160405190810160405280929190818152602001828054600181600116156101000203166002900480156127355780601f1061270a57610100808354040283529160200191612735565b820191906000526020600020905b81548152906001019060200180831161271857829003601f168201915b505050505090508093508194508295505050509250925092565b836002600381111561275d57fe5b6001600083815260200190815260200160002060040160009054906101000a900460ff16600381111561278c57fe5b1461279657600080fd5b843373ffffffffffffffffffffffffffffffffffffffff166001600083815260200190815260200160002060010160009054906101000a900473ffffffffffffffffffffffffffffffffffffffff1673ffffffffffffffffffffffffffffffffffffffff161461280557600080fd5b856000600281111561281357fe5b60016000838152602001908152602001600020600b0160020160009054906101000a900460ff16600281111561284557fe5b1461284f57600080fd5b60648411156128c6576040517f08c379a00000000000000000000000000000000000000000000000000000000081526004018080602001828103825260168152602001807f4d6f7374206265206c657373207468616e20253130300000000000000000000081525060200191505060405180910390fd5b6128f2868686600160008c8152602001908152602001600020600b01613190909392919063ffffffff16565b7fcf9b82493d27751c082844bdd5f86709a115d8bbc98b6ebb688d96ff15837cc48787604051808381526020018273ffffffffffffffffffffffffffffffffffffffff1673ffffffffffffffffffffffffffffffffffffffff1681526020019250505060405180910390a150505050505050565b803373ffffffffffffffffffffffffffffffffffffffff166001600083815260200190815260200160002060010160009054906101000a900473ffffffffffffffffffffffffffffffffffffffff1673ffffffffffffffffffffffffffffffffffffffff16146129d557600080fd5b81600160028111156129e357fe5b60016000838152602001908152602001600020600b0160020160009054906101000a900460ff166002811115612a1557fe5b14612a1f57600080fd5b600260016000858152602001908152602001600020600b0160020160006101000a81548160ff02191690836002811115612a5557fe5b0217905550600060016000858152602001908152602001600020600b01600101819055507fa54024b3473fdbaabff7d6742d51ced76d6ec5df786a4b361595bb0623e8d167836040518082815260200191505060405180910390a1505050565b60008060608060606000806060600080600080548c1115612b3e576040517f08c379a000000000000000000000000000000000000000000000000000000000815260040180806020018281038252601b8152602001807f476976656e2055445043204e6f7420437265617465642059657421000000000081525060200191505060405180910390fd5b600160008d815260200190815260200160002060010160009054906101000a900473ffffffffffffffffffffffffffffffffffffffff169a50600160008d815260200190815260200160002060020160009054906101000a900473ffffffffffffffffffffffffffffffffffffffff169950600160008d81526020019081526020016000206003018054600181600116156101000203166002900480601f016020809104026020016040519081016040528092919081815260200182805460018160011615610100020316600290048015612c5a5780601f10612c2f57610100808354040283529160200191612c5a565b820191906000526020600020905b815481529060010190602001808311612c3d57829003601f168201915b50505050509850600160008d81526020019081526020016000206005016000018054600181600116156101000203166002900480601f016020809104026020016040519081016040528092919081815260200182805460018160011615610100020316600290048015612d0e5780601f10612ce357610100808354040283529160200191612d0e565b820191906000526020600020905b815481529060010190602001808311612cf157829003601f168201915b5050505050975060006003811115612d2257fe5b600160008e815260200190815260200160002060040160009054906101000a900460ff166003811115612d5157fe5b1415612d94576040518060400160405280600781526020017f43726561746564000000000000000000000000000000000000000000000000008152509650612f8e565b60016003811115612da157fe5b600160008e815260200190815260200160002060040160009054906101000a900460ff166003811115612dd057fe5b1415612e13576040518060400160405280600681526020017f54657374656400000000000000000000000000000000000000000000000000008152509650612f8d565b60026003811115612e2057fe5b600160008e815260200190815260200160002060040160009054906101000a900460ff166003811115612e4f57fe5b1415612e92576040518060400160405280600881526020017f417070726f7665640000000000000000000000000000000000000000000000008152509650612f8c565b600380811115612e9e57fe5b600160008e815260200190815260200160002060040160009054906101000a900460ff166003811115612ecd57fe5b1415612f10576040518060400160405280600781526020017f466f7253616c65000000000000000000000000000000000000000000000000008152509650612f8b565b600380811115612f1c57fe5b600160008e815260200190815260200160002060040160009054906101000a900460ff166003811115612f4b57fe5b1415612f8a576040518060400160405280600781526020017f466f7253616c650000000000000000000000000000000000000000000000000081525096505b5b5b5b5b612fac600160008e8152602001908152602001600020600b0161344a565b9350600160008d8152602001908152602001600020600b016001015492506000600160008e81526020019081526020016000206008015414159550600160008d8152602001908152602001600020600801549450600160008d8152602001908152602001600020600901549150613037600160008e8152602001908152602001600020600b01613598565b905091939597999b90929496989a50565b60008073ffffffffffffffffffffffffffffffffffffffff168273ffffffffffffffffffffffffffffffffffffffff16141561308357600080fd5b8260050160008373ffffffffffffffffffffffffffffffffffffffff1673ffffffffffffffffffffffffffffffffffffffff16815260200190815260200160002060009054906101000a900460ff16905092915050565b60008073ffffffffffffffffffffffffffffffffffffffff168273ffffffffffffffffffffffffffffffffffffffff16141561311557600080fd5b61311f8383613048565b61312857600080fd5b60008360060160008473ffffffffffffffffffffffffffffffffffffffff1673ffffffffffffffffffffffffffffffffffffffff1681526020019081526020016000205490508360040160008281526020019081526020016000206002015491505092915050565b600084600101549050600073ffffffffffffffffffffffffffffffffffffffff168473ffffffffffffffffffffffffffffffffffffffff1614156131d357600080fd5b6131dd8585613048565b156131e757600080fd5b600060028111156131f457fe5b8560020160009054906101000a900460ff16600281111561321157fe5b1415613277578460000160009054906101000a900473ffffffffffffffffffffffffffffffffffffffff1673ffffffffffffffffffffffffffffffffffffffff163373ffffffffffffffffffffffffffffffffffffffff161461327357600080fd5b8190505b60028081111561328357fe5b8560020160009054906101000a900460ff1660028111156132a057fe5b14156132ac5750613444565b60018560050160008673ffffffffffffffffffffffffffffffffffffffff1673ffffffffffffffffffffffffffffffffffffffff16815260200190815260200160002060006101000a81548160ff02191690831515021790555061330e613793565b84816000019073ffffffffffffffffffffffffffffffffffffffff16908173ffffffffffffffffffffffffffffffffffffffff168152505083816020018190525081816040018181525050808660040160008860030154815260200190815260200160002060008201518160000160006101000a81548173ffffffffffffffffffffffffffffffffffffffff021916908373ffffffffffffffffffffffffffffffffffffffff16021790555060208201518160010190805190602001906133d6929190613684565b506040820151816002015590505085600301548660060160008773ffffffffffffffffffffffffffffffffffffffff1673ffffffffffffffffffffffffffffffffffffffff168152602001908152602001600020819055506001866003016000828254019250508190555050505b50505050565b60606001600281111561345957fe5b8260020160009054906101000a900460ff16600281111561347657fe5b14156134b9576040518060400160405280600481526020017f4f70656e000000000000000000000000000000000000000000000000000000008152509050613593565b6002808111156134c557fe5b8260020160009054906101000a900460ff1660028111156134e257fe5b1415613525576040518060400160405280600581526020017f436c6f73650000000000000000000000000000000000000000000000000000008152509050613593565b6000600281111561353257fe5b8260020160009054906101000a900460ff16600281111561354f57fe5b1415613592576040518060400160405280600881526020017f52657374726963740000000000000000000000000000000000000000000000008152509050613593565b5b919050565b6000806000905060008090505b836003015481101561363357600073ffffffffffffffffffffffffffffffffffffffff1684600401600083815260200190815260200160002060000160009054906101000a900473ffffffffffffffffffffffffffffffffffffffff1673ffffffffffffffffffffffffffffffffffffffff16146136265781806001019250505b80806001019150506135a5565b5080915050919050565b6040518060a00160405280600073ffffffffffffffffffffffffffffffffffffffff1681526020016000815260200160001515815260200160608152602001606081525090565b828054600181600116156101000203166002900490600052602060002090601f016020900481019282601f106136c557805160ff19168380011785556136f3565b828001600101855582156136f3579182015b828111156136f25782518255916020019190600101906136d7565b5b50905061370091906137ca565b5090565b60405180610120016040528060008152602001600073ffffffffffffffffffffffffffffffffffffffff168152602001600073ffffffffffffffffffffffffffffffffffffffff168152602001606081526020016000600381111561376557fe5b81526020016137726137ef565b8152602001600081526020016000815260200161378d613810565b81525090565b6040518060600160405280600073ffffffffffffffffffffffffffffffffffffffff16815260200160608152602001600081525090565b6137ec91905b808211156137e85760008160009055506001016137d0565b5090565b90565b60405180606001604052806060815260200160608152602001606081525090565b6040518060800160405280600073ffffffffffffffffffffffffffffffffffffffff168152602001600081526020016000600281111561384c57fe5b815260200160008152509056fea265627a7a7231582020f32481b17e9aeda3baa85aa267c114b20e25d8e734d3391c5ed21d2911b46564736f6c63430005110032",
  "source": "pragma solidity ^0.5.0;\n\n/// Import Partnerships library\nimport \"../../utils/Partnerships.sol\";\n\n\n/// @author Khalid F.Sh\n/// @title Drug Design Chain Contract\ncontract DrugDesign {\n    using Partnerships for Partnerships.Partnership;\n\n    /// Variable for tracking Universal Drug Product Code (UDPC)\n    uint public udpc;\n\n    /// Public mapping from UDPC to a Drug Design Item\n    mapping (uint => DrugDesignItem) dDItems;\n\n    /// Enumaration for defining variety of Drug Design State\n    enum DrugDesignState {\n        Owned,\n        Tested,\n        Approved,\n        ForSale\n    }\n\n    /// Structure keeping meta data for a Drug Design **TODO**\n    struct DrugDesignMeta {\n        string name;\n        string description;\n        string notes;\n    }\n\n    /// Structure for Drug Design Test Case **TODO**\n    struct DrugDesignTestCase {\n        address testerId;\n        uint timeStamp;\n        bool isPassed;\n        string description;\n        string notes;\n    }\n\n    /// Structure for keeping Drug Design fields structured\n    struct DrugDesignItem {\n        uint udpc;\n        address payable currentOwner;\n        address designerId;\n        string designerName;\n        DrugDesignState state;\n        DrugDesignMeta metaData;\n        uint salePrice;\n        uint testIndexed;\n        mapping(uint => DrugDesignTestCase) testCases;\n        Partnerships.Partnership manufacturers;\n    }\n\n    /// Event to emit them for users in functions, accept `udpc` as input\n    event Owned(uint udpc);\n    event TestCaseAdded(uint udpc);\n    event Approved(uint udpc);\n    event UpForSale(uint udpc);\n    event DrugDesignPurchased(uint udpc);\n    event SaleCanceled(uint udpc);\n    event UpForPartnered(uint udpc);\n    event UpForRestrictPartnered(uint udpc);\n    event PartnerGained(uint udpc);\n    event RestrictPartnerTransfered(uint udpc, address partner);\n    event PartnerClosed(uint udpc);\n\n    /// Modifier that checks the paid enough as expected and refunds the remaining balance\n    modifier checkDrugDesignPaymentValue(uint _udpc) {\n        require(msg.value >= dDItems[_udpc].salePrice, \"Not Enough!\");\n        _;\n        uint _price = dDItems[_udpc].salePrice;\n        uint amountToReturn = msg.value - _price;\n        if (amountToReturn != 0)\n            address(msg.sender).transfer(amountToReturn);\n    }\n\n    /// Modifier that checks if an DrugDesignItem.state of a udpc is Owned\n    modifier isOwned(uint _udpc) {\n        require(dDItems[_udpc].state == DrugDesignState.Owned);\n        _;\n    }\n\n    /// Modifier that checks if an DrugDesignItem.state of a udpc is Tested\n    modifier isTested(uint _udpc) {\n        require(dDItems[_udpc].state == DrugDesignState.Tested);\n        _;\n    }\n\n    /// Modifier that checks if an DrugDesignItem.state of a udpc is Approved\n    modifier isApproved(uint _udpc) {\n        require(dDItems[_udpc].state == DrugDesignState.Approved);\n        _;\n    }\n\n    /// Modifier that checks if the caller he is the currentOwner of Drug Design\n    modifier onlyOwnerOf(uint _udpc) {\n        require(dDItems[_udpc].currentOwner == msg.sender);\n        _;\n    }\n\n    /// Modifier that checks if the caller he is the currentOwner of Drug Design\n    modifier drugDesignForSale(uint _udpc) {\n        require(dDItems[_udpc].state == DrugDesignState.ForSale);\n        _;\n    }\n\n    /// Modifier that checks if an DrugDesignItem.manufacturers.state of a udpc is Opened\n    modifier isPartnerOpened(uint _udpc) {\n        require(dDItems[_udpc].manufacturers.state == Partnerships.PartnershipState.Opened);\n        _;\n    }\n\n    /// Modifier that checks if an DrugDesignItem.manufacturers.state of a udpc is Restricted\n    modifier isPartnerRestricted(uint _udpc) {\n        require(dDItems[_udpc].manufacturers.state == Partnerships.PartnershipState.Restricted);\n        _;\n    }\n\n    /// Modifier that checks if an DrugDesignItem.manufacturers.state of a udpc is Closed\n    modifier onlyManufacturPartnerOf(uint _udpc) {\n        require((dDItems[_udpc].manufacturers.has(msg.sender)) || (address(dDItems[_udpc].currentOwner) == msg.sender));\n        _;\n    }\n\n    /// Constructor Function sets up UDPC to 0\n    constructor() public {\n        udpc = 0;\n    }\n\n    function getUdpc() public view returns(\n        uint _udpc\n    ){\n        _udpc = udpc;\n    }\n\n    /// Function helps Designer to establish a new Drug Design\n    function designDrug(\n        string memory _designerName,\n        string memory _drugName,\n        string memory _description,\n        string memory _notes\n    )\n        public\n    {\n        udpc ++;\n        DrugDesignItem memory newDDItem;\n        newDDItem.udpc = udpc;\n        newDDItem.currentOwner = msg.sender;\n        newDDItem.designerId = msg.sender;\n        newDDItem.designerName = _designerName;\n        newDDItem.state = DrugDesignState.Owned;\n        newDDItem.metaData = DrugDesignMeta(_drugName, _description, _notes);\n        newDDItem.salePrice = 0;\n        newDDItem.manufacturers.partnersIndex = 1;\n        dDItems[udpc] = newDDItem;\n        emit Owned(udpc);\n    }\n\n    /// Add Test Case for Drug Design by currentOwner\n    function addTestCase(\n        uint _udpc,\n        string memory _description,\n        bool _isPassed,\n        string memory _notes\n    )\n        public\n        onlyOwnerOf(_udpc)\n    {\n        require(_udpc <= udpc, 'Given UDPC Not Created Yet!');\n        DrugDesignTestCase memory _ddtc = DrugDesignTestCase(\n            msg.sender,\n            block.timestamp,\n            _isPassed,\n            _description,\n            _notes\n        );\n        dDItems[_udpc].testCases[dDItems[_udpc].testIndexed] = _ddtc;\n        dDItems[_udpc].testIndexed ++;\n        if (dDItems[_udpc].state == DrugDesignState.Owned)\n            dDItems[_udpc].state = DrugDesignState.Tested;\n        emit TestCaseAdded(_udpc);\n    }\n\n    // Add Test Case for Drug Design by regulator\n    function addTestCaseByRegulaor(\n        uint _udpc,\n        string memory _description,\n        bool _isPassed,\n        string memory _notes\n    )\n        public\n    {\n        require(_udpc <= udpc, 'Given UDPC Not Created Yet!');\n        DrugDesignTestCase memory _ddtc = DrugDesignTestCase(\n            msg.sender,\n            block.timestamp,\n            _isPassed,\n            _description,\n            _notes\n        );\n        dDItems[_udpc].testCases[dDItems[_udpc].testIndexed] = _ddtc;\n        dDItems[_udpc].testIndexed ++;\n        if (dDItems[_udpc].state == DrugDesignState.Owned)\n            dDItems[_udpc].state = DrugDesignState.Tested;\n\n        emit TestCaseAdded(_udpc);\n    }\n\n    /// Function to approve drug by a regulator only\n    function approveDrug(uint _udpc) public isTested(_udpc) {\n        dDItems[_udpc].state = DrugDesignState.Approved;\n\n        emit Approved(_udpc);\n    }\n\n    /// Function to sale a drug design\n    function upForSale(uint _udpc,uint _price)\n        public\n        onlyOwnerOf(_udpc)\n        isApproved(_udpc)\n    {\n        dDItems[_udpc].salePrice = _price;\n        dDItems[_udpc].state = DrugDesignState.ForSale;\n\n        emit UpForSale(_udpc);\n    }\n\n    /// Function to purchase a drug design\n    function purchaseDrugDesign(uint _udpc)\n        public\n        payable\n        drugDesignForSale(_udpc)\n        checkDrugDesignPaymentValue(_udpc)\n    {\n        dDItems[_udpc].state = DrugDesignState.Approved;\n        dDItems[_udpc].currentOwner = msg.sender;\n        dDItems[_udpc].manufacturers.owner = msg.sender;\n\n        emit DrugDesignPurchased(_udpc);\n    }\n\n    /// Function to open partnership for manufacturer\n    function openManufactPartnership(uint _udpc, uint _shares)\n        public\n        isApproved(_udpc)\n        onlyOwnerOf(_udpc)\n    {\n        require(_shares <= 100, \"Most be less than %100\");\n        dDItems[_udpc].manufacturers.defultSharesPresntage = _shares;\n        dDItems[_udpc].manufacturers.state = Partnerships.PartnershipState.Opened;\n\n        emit UpForPartnered(_udpc);\n    }\n\n    /// Function to build a manufacturer partner contract\n    function buildPartnerContract(uint _udpc, string memory _name)\n        public\n        isApproved(_udpc)\n        isPartnerOpened(_udpc)\n    {\n        dDItems[_udpc].manufacturers.add(msg.sender, _name, 0);\n\n        emit PartnerGained(_udpc);\n    }\n\n    /// Function to close manufacturer partnership\n    function closeManufactPartnership(uint _udpc)\n        public\n        onlyOwnerOf(_udpc)\n        isPartnerOpened(_udpc)\n    {\n        dDItems[_udpc].manufacturers.state = Partnerships.PartnershipState.Closed;\n        dDItems[_udpc].manufacturers.defultSharesPresntage = 0;\n\n        emit PartnerClosed(_udpc);\n    }\n\n    /// Function to open partnership for manufacturer\n    function restrictManufactPartnership(uint _udpc)\n        public\n        isApproved(_udpc)\n        onlyOwnerOf(_udpc)\n    {\n        dDItems[_udpc].manufacturers.state = Partnerships.PartnershipState.Restricted;\n\n        emit UpForRestrictPartnered(_udpc);\n    }\n\n    /// Function to build a manufacturer partner contract by the currentOwner when its restracted\n    function buildRestrictPartnerContract(\n        uint _udpc,\n        address payable _partner,\n        string memory _name,\n        uint _shares\n    )\n        public\n        isApproved(_udpc)\n        onlyOwnerOf(_udpc)\n        isPartnerRestricted(_udpc)\n    {\n        require(_shares <= 100, \"Most be less than %100\");\n        dDItems[_udpc].manufacturers.add(_partner, _name, _shares);\n\n        emit RestrictPartnerTransfered(_udpc, _partner);\n    }\n\n    function fetchDrugDesignData(uint _udpc) \n        external \n        view \n        returns(\n            address currentOwner,\n            address designerId,\n            string memory designerName,\n            string memory drugName,\n            string memory currentState,\n            bool forSale,\n            uint salePrice,\n            string memory partnershipState,\n            uint partnershipShares,\n            uint numberOfTests,\n            uint numberOfManufacturers\n        )\n    {\n        require(_udpc <= udpc, 'Given UDPC Not Created Yet!');\n        currentOwner = dDItems[_udpc].currentOwner;\n        designerId = dDItems[_udpc].designerId;\n        designerName = dDItems[_udpc].designerName;\n        drugName = dDItems[_udpc].metaData.name;\n\n        if (dDItems[_udpc].state == DrugDesignState.Owned)\n            currentState = 'Created';\n        else if (dDItems[_udpc].state == DrugDesignState.Tested)\n            currentState = 'Tested';\n        else if (dDItems[_udpc].state == DrugDesignState.Approved)\n            currentState = 'Approved';\n        else if (dDItems[_udpc].state == DrugDesignState.ForSale)\n            currentState = 'ForSale';\n        else if (dDItems[_udpc].state == DrugDesignState.ForSale)\n            currentState = 'ForSale';\n\n        partnershipState = dDItems[_udpc].manufacturers.partnershipState();\n        partnershipShares = dDItems[_udpc].manufacturers.defultSharesPresntage;\n\n        forSale = (dDItems[_udpc].salePrice != 0);\n        salePrice = dDItems[_udpc].salePrice;\n\n        numberOfTests = dDItems[_udpc].testIndexed;\n        numberOfManufacturers = dDItems[_udpc].manufacturers.numberOfActive();\n    }\n\n    function featchDrugDesignMetaData(uint _udpc) \n        external\n        view\n        returns(\n            string memory name,\n            string memory description,\n            string memory notes\n        )\n    {\n        require(_udpc <= udpc, 'Given UDPC Not Created Yet!');\n        (name, description, notes) = (\n            dDItems[_udpc].metaData.name,\n            dDItems[_udpc].metaData.description,\n            dDItems[_udpc].metaData.notes\n        );\n    }\n\n    function featchDrugDesignTestCases(uint _udpc, uint _testIndex) \n        external\n        view\n        returns(\n            string memory description,\n            bool isPassed, \n            string  memory notes\n        )\n    {\n        require(_udpc <= udpc, 'Given UDPC Not Created Yet!');\n        require(_testIndex < dDItems[_udpc].testIndexed, 'Test Case Not Created Yet!');\n        \n        (description, isPassed, notes) = (\n            dDItems[_udpc].testCases[_testIndex].description,\n            dDItems[_udpc].testCases[_testIndex].isPassed,\n            dDItems[_udpc].testCases[_testIndex].notes\n        );\n        \n    }\n\n    function isManufacturerOf(uint _udpc, address _manufacturerId) external view returns(bool) {\n        return dDItems[_udpc].manufacturers.has(_manufacturerId);\n    }\n\n    function manufacturerSharesOf(uint _udpc, address _manufacturerId) external view returns(uint) {\n        return dDItems[_udpc].manufacturers.sharesOf(_manufacturerId);\n    }\n\n\n\n}\n",
  "sourcePath": "/Users/rakshith/Workspace/blockchain/drug-supply-chain/contracts/Base/Storage/DrugDesign.sol",
  "compiler": {
    "name": "solc",
    "version": "0.5.17+commit.d19bba13.Emscripten.clang"
  },
  "schemaVersion": "3.3.0",
  "updatedAt": "2020-10-18T08:36:39.156Z",
  "devdoc": {
    "author": "Khalid F.Sh",
    "methods": {},
    "title": "Drug Design Chain Contract"
  },
  "userdoc": {
    "methods": {
      "addTestCase(uint256,string,bool,string)": {
        "notice": "Add Test Case for Drug Design by currentOwner"
      },
      "approveDrug(uint256)": {
        "notice": "Function to approve drug by a regulator only"
      },
      "buildPartnerContract(uint256,string)": {
        "notice": "Function to build a manufacturer partner contract"
      },
      "buildRestrictPartnerContract(uint256,address,string,uint256)": {
        "notice": "Function to build a manufacturer partner contract by the currentOwner when its restracted"
      },
      "closeManufactPartnership(uint256)": {
        "notice": "Function to close manufacturer partnership"
      },
      "constructor": "Constructor Function sets up UDPC to 0",
      "designDrug(string,string,string,string)": {
        "notice": "Function helps Designer to establish a new Drug Design"
      },
      "openManufactPartnership(uint256,uint256)": {
        "notice": "Function to open partnership for manufacturer"
      },
      "purchaseDrugDesign(uint256)": {
        "notice": "Function to purchase a drug design"
      },
      "restrictManufactPartnership(uint256)": {
        "notice": "Function to open partnership for manufacturer"
      },
      "upForSale(uint256,uint256)": {
        "notice": "Function to sale a drug design"
      }
    }
  }
}