{
  "contractName": "MainChain",
  "abi": [
    {
      "inputs": [],
      "payable": false,
      "stateMutability": "nonpayable",
      "type": "constructor"
    },
    {
      "anonymous": false,
      "inputs": [
        {
          "indexed": false,
          "internalType": "uint256",
          "name": "udpc",
          "type": "uint256"
        }
      ],
      "name": "Approved",
      "type": "event"
    },
    {
      "anonymous": false,
      "inputs": [
        {
          "indexed": true,
          "internalType": "address",
          "name": "account",
          "type": "address"
        }
      ],
      "name": "ConsumerAdded",
      "type": "event"
    },
    {
      "anonymous": false,
      "inputs": [
        {
          "indexed": true,
          "internalType": "address",
          "name": "account",
          "type": "address"
        }
      ],
      "name": "ConsumerRemoved",
      "type": "event"
    },
    {
      "anonymous": false,
      "inputs": [
        {
          "indexed": true,
          "internalType": "address",
          "name": "account",
          "type": "address"
        }
      ],
      "name": "DesignerAdded",
      "type": "event"
    },
    {
      "anonymous": false,
      "inputs": [
        {
          "indexed": true,
          "internalType": "address",
          "name": "account",
          "type": "address"
        }
      ],
      "name": "DesignerRemoved",
      "type": "event"
    },
    {
      "anonymous": false,
      "inputs": [
        {
          "indexed": true,
          "internalType": "address",
          "name": "account",
          "type": "address"
        }
      ],
      "name": "DistributorAdded",
      "type": "event"
    },
    {
      "anonymous": false,
      "inputs": [
        {
          "indexed": true,
          "internalType": "address",
          "name": "account",
          "type": "address"
        }
      ],
      "name": "DistributorRemoved",
      "type": "event"
    },
    {
      "anonymous": false,
      "inputs": [
        {
          "indexed": false,
          "internalType": "uint256",
          "name": "udpc",
          "type": "uint256"
        }
      ],
      "name": "DrugDesignPurchased",
      "type": "event"
    },
    {
      "anonymous": false,
      "inputs": [
        {
          "indexed": false,
          "internalType": "uint256",
          "name": "slu",
          "type": "uint256"
        }
      ],
      "name": "EnvUpdated",
      "type": "event"
    },
    {
      "anonymous": false,
      "inputs": [
        {
          "indexed": false,
          "internalType": "uint256",
          "name": "slu",
          "type": "uint256"
        }
      ],
      "name": "ForSale",
      "type": "event"
    },
    {
      "anonymous": false,
      "inputs": [
        {
          "indexed": false,
          "internalType": "uint256",
          "name": "slu",
          "type": "uint256"
        }
      ],
      "name": "Manufactured",
      "type": "event"
    },
    {
      "anonymous": false,
      "inputs": [
        {
          "indexed": true,
          "internalType": "address",
          "name": "account",
          "type": "address"
        }
      ],
      "name": "ManufacturerAdded",
      "type": "event"
    },
    {
      "anonymous": false,
      "inputs": [
        {
          "indexed": true,
          "internalType": "address",
          "name": "account",
          "type": "address"
        }
      ],
      "name": "ManufacturerRemoved",
      "type": "event"
    },
    {
      "anonymous": false,
      "inputs": [
        {
          "indexed": false,
          "internalType": "uint256",
          "name": "udpc",
          "type": "uint256"
        }
      ],
      "name": "Owned",
      "type": "event"
    },
    {
      "anonymous": false,
      "inputs": [
        {
          "indexed": true,
          "internalType": "address",
          "name": "previousOwner",
          "type": "address"
        },
        {
          "indexed": true,
          "internalType": "address",
          "name": "newOwner",
          "type": "address"
        }
      ],
      "name": "OwnershipTransferred",
      "type": "event"
    },
    {
      "anonymous": false,
      "inputs": [
        {
          "indexed": false,
          "internalType": "uint256",
          "name": "slu",
          "type": "uint256"
        }
      ],
      "name": "Packed",
      "type": "event"
    },
    {
      "anonymous": false,
      "inputs": [
        {
          "indexed": false,
          "internalType": "uint256",
          "name": "udpc",
          "type": "uint256"
        }
      ],
      "name": "PartnerClosed",
      "type": "event"
    },
    {
      "anonymous": false,
      "inputs": [
        {
          "indexed": false,
          "internalType": "uint256",
          "name": "udpc",
          "type": "uint256"
        }
      ],
      "name": "PartnerGained",
      "type": "event"
    },
    {
      "anonymous": false,
      "inputs": [
        {
          "indexed": false,
          "internalType": "address",
          "name": "account",
          "type": "address"
        }
      ],
      "name": "Paused",
      "type": "event"
    },
    {
      "anonymous": false,
      "inputs": [
        {
          "indexed": true,
          "internalType": "address",
          "name": "account",
          "type": "address"
        }
      ],
      "name": "PauserAdded",
      "type": "event"
    },
    {
      "anonymous": false,
      "inputs": [
        {
          "indexed": true,
          "internalType": "address",
          "name": "account",
          "type": "address"
        }
      ],
      "name": "PauserRemoved",
      "type": "event"
    },
    {
      "anonymous": false,
      "inputs": [
        {
          "indexed": false,
          "internalType": "address",
          "name": "recipient",
          "type": "address"
        }
      ],
      "name": "PrimaryTransferred",
      "type": "event"
    },
    {
      "anonymous": false,
      "inputs": [
        {
          "indexed": false,
          "internalType": "uint256",
          "name": "pku",
          "type": "uint256"
        }
      ],
      "name": "Purchased",
      "type": "event"
    },
    {
      "anonymous": false,
      "inputs": [
        {
          "indexed": false,
          "internalType": "uint256",
          "name": "slu",
          "type": "uint256"
        }
      ],
      "name": "Received",
      "type": "event"
    },
    {
      "anonymous": false,
      "inputs": [
        {
          "indexed": true,
          "internalType": "address",
          "name": "account",
          "type": "address"
        }
      ],
      "name": "RegulatorAdded",
      "type": "event"
    },
    {
      "anonymous": false,
      "inputs": [
        {
          "indexed": true,
          "internalType": "address",
          "name": "account",
          "type": "address"
        }
      ],
      "name": "RegulatorRemoved",
      "type": "event"
    },
    {
      "anonymous": false,
      "inputs": [
        {
          "indexed": false,
          "internalType": "uint256",
          "name": "udpc",
          "type": "uint256"
        },
        {
          "indexed": false,
          "internalType": "address",
          "name": "partner",
          "type": "address"
        }
      ],
      "name": "RestrictPartnerTransfered",
      "type": "event"
    },
    {
      "anonymous": false,
      "inputs": [
        {
          "indexed": true,
          "internalType": "address",
          "name": "account",
          "type": "address"
        }
      ],
      "name": "RetailerAdded",
      "type": "event"
    },
    {
      "anonymous": false,
      "inputs": [
        {
          "indexed": true,
          "internalType": "address",
          "name": "account",
          "type": "address"
        }
      ],
      "name": "RetailerRemoved",
      "type": "event"
    },
    {
      "anonymous": false,
      "inputs": [
        {
          "indexed": false,
          "internalType": "uint256",
          "name": "udpc",
          "type": "uint256"
        }
      ],
      "name": "SaleCanceled",
      "type": "event"
    },
    {
      "anonymous": false,
      "inputs": [
        {
          "indexed": false,
          "internalType": "uint256",
          "name": "slu",
          "type": "uint256"
        }
      ],
      "name": "Shipped",
      "type": "event"
    },
    {
      "anonymous": false,
      "inputs": [
        {
          "indexed": false,
          "internalType": "uint256",
          "name": "slu",
          "type": "uint256"
        }
      ],
      "name": "Sold",
      "type": "event"
    },
    {
      "anonymous": false,
      "inputs": [
        {
          "indexed": false,
          "internalType": "uint256",
          "name": "udpc",
          "type": "uint256"
        }
      ],
      "name": "TestCaseAdded",
      "type": "event"
    },
    {
      "anonymous": false,
      "inputs": [
        {
          "indexed": false,
          "internalType": "address",
          "name": "account",
          "type": "address"
        }
      ],
      "name": "Unpaused",
      "type": "event"
    },
    {
      "anonymous": false,
      "inputs": [
        {
          "indexed": false,
          "internalType": "uint256",
          "name": "udpc",
          "type": "uint256"
        }
      ],
      "name": "UpForPartnered",
      "type": "event"
    },
    {
      "anonymous": false,
      "inputs": [
        {
          "indexed": false,
          "internalType": "uint256",
          "name": "udpc",
          "type": "uint256"
        }
      ],
      "name": "UpForRestrictPartnered",
      "type": "event"
    },
    {
      "anonymous": false,
      "inputs": [
        {
          "indexed": false,
          "internalType": "uint256",
          "name": "udpc",
          "type": "uint256"
        }
      ],
      "name": "UpForSale",
      "type": "event"
    },
    {
      "constant": false,
      "inputs": [
        {
          "internalType": "uint256",
          "name": "_slu",
          "type": "uint256"
        },
        {
          "internalType": "uint256",
          "name": "_unitPrice",
          "type": "uint256"
        }
      ],
      "name": "addDrugsLoud",
      "outputs": [],
      "payable": false,
      "stateMutability": "nonpayable",
      "type": "function"
    },
    {
      "constant": false,
      "inputs": [
        {
          "internalType": "address",
          "name": "account",
          "type": "address"
        }
      ],
      "name": "addPauser",
      "outputs": [],
      "payable": false,
      "stateMutability": "nonpayable",
      "type": "function"
    },
    {
      "constant": false,
      "inputs": [
        {
          "internalType": "address",
          "name": "account",
          "type": "address"
        }
      ],
      "name": "addRegulator",
      "outputs": [],
      "payable": false,
      "stateMutability": "nonpayable",
      "type": "function"
    },
    {
      "constant": false,
      "inputs": [
        {
          "internalType": "uint256",
          "name": "_udpc",
          "type": "uint256"
        },
        {
          "internalType": "string",
          "name": "_description",
          "type": "string"
        },
        {
          "internalType": "bool",
          "name": "_isPassed",
          "type": "bool"
        },
        {
          "internalType": "string",
          "name": "_notes",
          "type": "string"
        }
      ],
      "name": "addTestCase",
      "outputs": [],
      "payable": false,
      "stateMutability": "nonpayable",
      "type": "function"
    },
    {
      "constant": false,
      "inputs": [
        {
          "internalType": "uint256",
          "name": "_udpc",
          "type": "uint256"
        },
        {
          "internalType": "string",
          "name": "_description",
          "type": "string"
        },
        {
          "internalType": "bool",
          "name": "_isPassed",
          "type": "bool"
        },
        {
          "internalType": "string",
          "name": "_notes",
          "type": "string"
        }
      ],
      "name": "addTestCaseByRegulaor",
      "outputs": [],
      "payable": false,
      "stateMutability": "nonpayable",
      "type": "function"
    },
    {
      "constant": true,
      "inputs": [],
      "name": "amIConsumer",
      "outputs": [
        {
          "internalType": "bool",
          "name": "",
          "type": "bool"
        }
      ],
      "payable": false,
      "stateMutability": "view",
      "type": "function"
    },
    {
      "constant": true,
      "inputs": [],
      "name": "amIDesigner",
      "outputs": [
        {
          "internalType": "bool",
          "name": "",
          "type": "bool"
        }
      ],
      "payable": false,
      "stateMutability": "view",
      "type": "function"
    },
    {
      "constant": true,
      "inputs": [],
      "name": "amIDistributor",
      "outputs": [
        {
          "internalType": "bool",
          "name": "",
          "type": "bool"
        }
      ],
      "payable": false,
      "stateMutability": "view",
      "type": "function"
    },
    {
      "constant": true,
      "inputs": [],
      "name": "amIManufacturer",
      "outputs": [
        {
          "internalType": "bool",
          "name": "",
          "type": "bool"
        }
      ],
      "payable": false,
      "stateMutability": "view",
      "type": "function"
    },
    {
      "constant": true,
      "inputs": [],
      "name": "amIRegulator",
      "outputs": [
        {
          "internalType": "bool",
          "name": "",
          "type": "bool"
        }
      ],
      "payable": false,
      "stateMutability": "view",
      "type": "function"
    },
    {
      "constant": true,
      "inputs": [],
      "name": "amIRetailer",
      "outputs": [
        {
          "internalType": "bool",
          "name": "",
          "type": "bool"
        }
      ],
      "payable": false,
      "stateMutability": "view",
      "type": "function"
    },
    {
      "constant": false,
      "inputs": [
        {
          "internalType": "uint256",
          "name": "_udpc",
          "type": "uint256"
        }
      ],
      "name": "approveDrug",
      "outputs": [],
      "payable": false,
      "stateMutability": "nonpayable",
      "type": "function"
    },
    {
      "constant": false,
      "inputs": [],
      "name": "assignMeAsConsumer",
      "outputs": [],
      "payable": false,
      "stateMutability": "nonpayable",
      "type": "function"
    },
    {
      "constant": false,
      "inputs": [],
      "name": "assignMeAsDesigner",
      "outputs": [],
      "payable": false,
      "stateMutability": "nonpayable",
      "type": "function"
    },
    {
      "constant": false,
      "inputs": [],
      "name": "assignMeAsDistributor",
      "outputs": [],
      "payable": false,
      "stateMutability": "nonpayable",
      "type": "function"
    },
    {
      "constant": false,
      "inputs": [],
      "name": "assignMeAsManufacturer",
      "outputs": [],
      "payable": false,
      "stateMutability": "nonpayable",
      "type": "function"
    },
    {
      "constant": false,
      "inputs": [],
      "name": "assignMeAsRetailer",
      "outputs": [],
      "payable": false,
      "stateMutability": "nonpayable",
      "type": "function"
    },
    {
      "constant": false,
      "inputs": [
        {
          "internalType": "uint256",
          "name": "_udpc",
          "type": "uint256"
        },
        {
          "internalType": "string",
          "name": "_name",
          "type": "string"
        }
      ],
      "name": "buildPartnerContract",
      "outputs": [],
      "payable": false,
      "stateMutability": "nonpayable",
      "type": "function"
    },
    {
      "constant": false,
      "inputs": [
        {
          "internalType": "uint256",
          "name": "_udpc",
          "type": "uint256"
        },
        {
          "internalType": "address payable",
          "name": "_partner",
          "type": "address"
        },
        {
          "internalType": "string",
          "name": "_name",
          "type": "string"
        },
        {
          "internalType": "uint256",
          "name": "_shares",
          "type": "uint256"
        }
      ],
      "name": "buildRestrictPartnerContract",
      "outputs": [],
      "payable": false,
      "stateMutability": "nonpayable",
      "type": "function"
    },
    {
      "constant": false,
      "inputs": [
        {
          "internalType": "uint256",
          "name": "_slu",
          "type": "uint256"
        },
        {
          "internalType": "address",
          "name": "_receiver",
          "type": "address"
        }
      ],
      "name": "buyDrugsLoud",
      "outputs": [],
      "payable": true,
      "stateMutability": "payable",
      "type": "function"
    },
    {
      "constant": false,
      "inputs": [
        {
          "internalType": "uint256",
          "name": "_udpc",
          "type": "uint256"
        }
      ],
      "name": "closeManufactPartnership",
      "outputs": [],
      "payable": false,
      "stateMutability": "nonpayable",
      "type": "function"
    },
    {
      "constant": false,
      "inputs": [
        {
          "internalType": "string",
          "name": "_designerName",
          "type": "string"
        },
        {
          "internalType": "string",
          "name": "_drugName",
          "type": "string"
        },
        {
          "internalType": "string",
          "name": "_description",
          "type": "string"
        },
        {
          "internalType": "string",
          "name": "_notes",
          "type": "string"
        }
      ],
      "name": "designDrug",
      "outputs": [],
      "payable": false,
      "stateMutability": "nonpayable",
      "type": "function"
    },
    {
      "constant": true,
      "inputs": [
        {
          "internalType": "uint256",
          "name": "_udpc",
          "type": "uint256"
        }
      ],
      "name": "featchDrugDesignMetaData",
      "outputs": [
        {
          "internalType": "string",
          "name": "name",
          "type": "string"
        },
        {
          "internalType": "string",
          "name": "description",
          "type": "string"
        },
        {
          "internalType": "string",
          "name": "notes",
          "type": "string"
        }
      ],
      "payable": false,
      "stateMutability": "view",
      "type": "function"
    },
    {
      "constant": true,
      "inputs": [
        {
          "internalType": "uint256",
          "name": "_udpc",
          "type": "uint256"
        },
        {
          "internalType": "uint256",
          "name": "_testIndex",
          "type": "uint256"
        }
      ],
      "name": "featchDrugDesignTestCases",
      "outputs": [
        {
          "internalType": "string",
          "name": "description",
          "type": "string"
        },
        {
          "internalType": "bool",
          "name": "isPassed",
          "type": "bool"
        },
        {
          "internalType": "string",
          "name": "notes",
          "type": "string"
        }
      ],
      "payable": false,
      "stateMutability": "view",
      "type": "function"
    },
    {
      "constant": true,
      "inputs": [
        {
          "internalType": "uint256",
          "name": "_udpc",
          "type": "uint256"
        }
      ],
      "name": "fetchDrugDesignData",
      "outputs": [
        {
          "internalType": "address",
          "name": "currentOwner",
          "type": "address"
        },
        {
          "internalType": "address",
          "name": "designerId",
          "type": "address"
        },
        {
          "internalType": "string",
          "name": "designerName",
          "type": "string"
        },
        {
          "internalType": "string",
          "name": "drugName",
          "type": "string"
        },
        {
          "internalType": "string",
          "name": "currentState",
          "type": "string"
        },
        {
          "internalType": "bool",
          "name": "forSale",
          "type": "bool"
        },
        {
          "internalType": "uint256",
          "name": "salePrice",
          "type": "uint256"
        },
        {
          "internalType": "string",
          "name": "partnershipState",
          "type": "string"
        },
        {
          "internalType": "uint256",
          "name": "partnershipShares",
          "type": "uint256"
        },
        {
          "internalType": "uint256",
          "name": "numberOfTests",
          "type": "uint256"
        },
        {
          "internalType": "uint256",
          "name": "numberOfManufacturers",
          "type": "uint256"
        }
      ],
      "payable": false,
      "stateMutability": "view",
      "type": "function"
    },
    {
      "constant": true,
      "inputs": [
        {
          "internalType": "uint256",
          "name": "_pku",
          "type": "uint256"
        }
      ],
      "name": "fetchDrugItemData",
      "outputs": [
        {
          "internalType": "uint256",
          "name": "_udpc",
          "type": "uint256"
        },
        {
          "internalType": "uint256",
          "name": "_slu",
          "type": "uint256"
        },
        {
          "internalType": "string",
          "name": "state",
          "type": "string"
        },
        {
          "internalType": "address",
          "name": "currentOwner",
          "type": "address"
        },
        {
          "internalType": "address",
          "name": "manufacturerId",
          "type": "address"
        },
        {
          "internalType": "address",
          "name": "deistributorId",
          "type": "address"
        },
        {
          "internalType": "address",
          "name": "retailerId",
          "type": "address"
        },
        {
          "internalType": "uint256",
          "name": "price",
          "type": "uint256"
        },
        {
          "internalType": "uint256",
          "name": "packingTimeStamp",
          "type": "uint256"
        },
        {
          "internalType": "uint256",
          "name": "numberOfEnvUpdate",
          "type": "uint256"
        }
      ],
      "payable": false,
      "stateMutability": "view",
      "type": "function"
    },
    {
      "constant": true,
      "inputs": [
        {
          "internalType": "uint256",
          "name": "_slu",
          "type": "uint256"
        }
      ],
      "name": "fetchDrugLoaudData",
      "outputs": [
        {
          "internalType": "uint256",
          "name": "quantity",
          "type": "uint256"
        },
        {
          "internalType": "uint256",
          "name": "_udpc",
          "type": "uint256"
        },
        {
          "internalType": "string",
          "name": "state",
          "type": "string"
        },
        {
          "internalType": "address",
          "name": "currentOwner",
          "type": "address"
        },
        {
          "internalType": "address",
          "name": "manufacturerId",
          "type": "address"
        },
        {
          "internalType": "address",
          "name": "deistributorId",
          "type": "address"
        },
        {
          "internalType": "address",
          "name": "retailerId",
          "type": "address"
        },
        {
          "internalType": "uint256",
          "name": "price",
          "type": "uint256"
        }
      ],
      "payable": false,
      "stateMutability": "view",
      "type": "function"
    },
    {
      "constant": true,
      "inputs": [
        {
          "internalType": "uint256",
          "name": "_pku",
          "type": "uint256"
        }
      ],
      "name": "fetchEnvHistory",
      "outputs": [
        {
          "internalType": "uint256",
          "name": "numberOfupdate",
          "type": "uint256"
        },
        {
          "internalType": "uint256[]",
          "name": "timeStamps",
          "type": "uint256[]"
        },
        {
          "internalType": "uint256[]",
          "name": "temprtures",
          "type": "uint256[]"
        },
        {
          "internalType": "uint256[]",
          "name": "humiditys",
          "type": "uint256[]"
        },
        {
          "internalType": "address[]",
          "name": "updaterAddresses",
          "type": "address[]"
        }
      ],
      "payable": false,
      "stateMutability": "view",
      "type": "function"
    },
    {
      "constant": true,
      "inputs": [
        {
          "internalType": "uint256",
          "name": "_slu",
          "type": "uint256"
        }
      ],
      "name": "fetchLoudPKUs",
      "outputs": [
        {
          "internalType": "uint256[]",
          "name": "loadPKUs",
          "type": "uint256[]"
        }
      ],
      "payable": false,
      "stateMutability": "view",
      "type": "function"
    },
    {
      "constant": true,
      "inputs": [],
      "name": "getUdpc",
      "outputs": [
        {
          "internalType": "uint256",
          "name": "_udpc",
          "type": "uint256"
        }
      ],
      "payable": false,
      "stateMutability": "view",
      "type": "function"
    },
    {
      "constant": true,
      "inputs": [
        {
          "internalType": "address",
          "name": "account",
          "type": "address"
        }
      ],
      "name": "isConsumer",
      "outputs": [
        {
          "internalType": "bool",
          "name": "",
          "type": "bool"
        }
      ],
      "payable": false,
      "stateMutability": "view",
      "type": "function"
    },
    {
      "constant": true,
      "inputs": [
        {
          "internalType": "address",
          "name": "account",
          "type": "address"
        }
      ],
      "name": "isDesigner",
      "outputs": [
        {
          "internalType": "bool",
          "name": "",
          "type": "bool"
        }
      ],
      "payable": false,
      "stateMutability": "view",
      "type": "function"
    },
    {
      "constant": true,
      "inputs": [
        {
          "internalType": "address",
          "name": "account",
          "type": "address"
        }
      ],
      "name": "isDistributor",
      "outputs": [
        {
          "internalType": "bool",
          "name": "",
          "type": "bool"
        }
      ],
      "payable": false,
      "stateMutability": "view",
      "type": "function"
    },
    {
      "constant": true,
      "inputs": [
        {
          "internalType": "address",
          "name": "account",
          "type": "address"
        }
      ],
      "name": "isManufacturer",
      "outputs": [
        {
          "internalType": "bool",
          "name": "",
          "type": "bool"
        }
      ],
      "payable": false,
      "stateMutability": "view",
      "type": "function"
    },
    {
      "constant": true,
      "inputs": [
        {
          "internalType": "uint256",
          "name": "_udpc",
          "type": "uint256"
        },
        {
          "internalType": "address",
          "name": "_manufacturerId",
          "type": "address"
        }
      ],
      "name": "isManufacturerOf",
      "outputs": [
        {
          "internalType": "bool",
          "name": "",
          "type": "bool"
        }
      ],
      "payable": false,
      "stateMutability": "view",
      "type": "function"
    },
    {
      "constant": true,
      "inputs": [],
      "name": "isOwner",
      "outputs": [
        {
          "internalType": "bool",
          "name": "",
          "type": "bool"
        }
      ],
      "payable": false,
      "stateMutability": "view",
      "type": "function"
    },
    {
      "constant": true,
      "inputs": [
        {
          "internalType": "address",
          "name": "account",
          "type": "address"
        }
      ],
      "name": "isPauser",
      "outputs": [
        {
          "internalType": "bool",
          "name": "",
          "type": "bool"
        }
      ],
      "payable": false,
      "stateMutability": "view",
      "type": "function"
    },
    {
      "constant": true,
      "inputs": [
        {
          "internalType": "address",
          "name": "account",
          "type": "address"
        }
      ],
      "name": "isRegulator",
      "outputs": [
        {
          "internalType": "bool",
          "name": "",
          "type": "bool"
        }
      ],
      "payable": false,
      "stateMutability": "view",
      "type": "function"
    },
    {
      "constant": true,
      "inputs": [
        {
          "internalType": "address",
          "name": "account",
          "type": "address"
        }
      ],
      "name": "isRetailer",
      "outputs": [
        {
          "internalType": "bool",
          "name": "",
          "type": "bool"
        }
      ],
      "payable": false,
      "stateMutability": "view",
      "type": "function"
    },
    {
      "constant": false,
      "inputs": [
        {
          "internalType": "uint256",
          "name": "_udpc",
          "type": "uint256"
        },
        {
          "internalType": "uint256",
          "name": "quantity",
          "type": "uint256"
        }
      ],
      "name": "manufacturDrugsLoud",
      "outputs": [],
      "payable": false,
      "stateMutability": "nonpayable",
      "type": "function"
    },
    {
      "constant": true,
      "inputs": [
        {
          "internalType": "uint256",
          "name": "_udpc",
          "type": "uint256"
        },
        {
          "internalType": "address",
          "name": "_manufacturerId",
          "type": "address"
        }
      ],
      "name": "manufacturerSharesOf",
      "outputs": [
        {
          "internalType": "uint256",
          "name": "",
          "type": "uint256"
        }
      ],
      "payable": false,
      "stateMutability": "view",
      "type": "function"
    },
    {
      "constant": false,
      "inputs": [
        {
          "internalType": "uint256",
          "name": "_udpc",
          "type": "uint256"
        },
        {
          "internalType": "uint256",
          "name": "_shares",
          "type": "uint256"
        }
      ],
      "name": "openManufactPartnership",
      "outputs": [],
      "payable": false,
      "stateMutability": "nonpayable",
      "type": "function"
    },
    {
      "constant": true,
      "inputs": [],
      "name": "owner",
      "outputs": [
        {
          "internalType": "address",
          "name": "",
          "type": "address"
        }
      ],
      "payable": false,
      "stateMutability": "view",
      "type": "function"
    },
    {
      "constant": false,
      "inputs": [
        {
          "internalType": "uint256",
          "name": "_slu",
          "type": "uint256"
        }
      ],
      "name": "packDrugsLoud",
      "outputs": [],
      "payable": false,
      "stateMutability": "nonpayable",
      "type": "function"
    },
    {
      "constant": false,
      "inputs": [],
      "name": "pause",
      "outputs": [],
      "payable": false,
      "stateMutability": "nonpayable",
      "type": "function"
    },
    {
      "constant": true,
      "inputs": [],
      "name": "paused",
      "outputs": [
        {
          "internalType": "bool",
          "name": "",
          "type": "bool"
        }
      ],
      "payable": false,
      "stateMutability": "view",
      "type": "function"
    },
    {
      "constant": true,
      "inputs": [],
      "name": "primary",
      "outputs": [
        {
          "internalType": "address",
          "name": "",
          "type": "address"
        }
      ],
      "payable": false,
      "stateMutability": "view",
      "type": "function"
    },
    {
      "constant": false,
      "inputs": [
        {
          "internalType": "uint256",
          "name": "_udpc",
          "type": "uint256"
        }
      ],
      "name": "purchaseDrugDesign",
      "outputs": [],
      "payable": true,
      "stateMutability": "payable",
      "type": "function"
    },
    {
      "constant": false,
      "inputs": [
        {
          "internalType": "uint256",
          "name": "_slu",
          "type": "uint256"
        }
      ],
      "name": "receiveDrugsLoud",
      "outputs": [],
      "payable": false,
      "stateMutability": "nonpayable",
      "type": "function"
    },
    {
      "constant": false,
      "inputs": [],
      "name": "renounceMeFromConsumer",
      "outputs": [],
      "payable": false,
      "stateMutability": "nonpayable",
      "type": "function"
    },
    {
      "constant": false,
      "inputs": [],
      "name": "renounceMeFromDesigner",
      "outputs": [],
      "payable": false,
      "stateMutability": "nonpayable",
      "type": "function"
    },
    {
      "constant": false,
      "inputs": [],
      "name": "renounceMeFromDistributor",
      "outputs": [],
      "payable": false,
      "stateMutability": "nonpayable",
      "type": "function"
    },
    {
      "constant": false,
      "inputs": [],
      "name": "renounceMeFromManufacturer",
      "outputs": [],
      "payable": false,
      "stateMutability": "nonpayable",
      "type": "function"
    },
    {
      "constant": false,
      "inputs": [],
      "name": "renounceMeFromRegulator",
      "outputs": [],
      "payable": false,
      "stateMutability": "nonpayable",
      "type": "function"
    },
    {
      "constant": false,
      "inputs": [],
      "name": "renounceMeFromRetailer",
      "outputs": [],
      "payable": false,
      "stateMutability": "nonpayable",
      "type": "function"
    },
    {
      "constant": false,
      "inputs": [],
      "name": "renounceOwnership",
      "outputs": [],
      "payable": false,
      "stateMutability": "nonpayable",
      "type": "function"
    },
    {
      "constant": false,
      "inputs": [],
      "name": "renouncePauser",
      "outputs": [],
      "payable": false,
      "stateMutability": "nonpayable",
      "type": "function"
    },
    {
      "constant": false,
      "inputs": [
        {
          "internalType": "uint256",
          "name": "_udpc",
          "type": "uint256"
        }
      ],
      "name": "restrictManufactPartnership",
      "outputs": [],
      "payable": false,
      "stateMutability": "nonpayable",
      "type": "function"
    },
    {
      "constant": false,
      "inputs": [
        {
          "internalType": "uint256",
          "name": "_slu",
          "type": "uint256"
        }
      ],
      "name": "shipDrugsLoud",
      "outputs": [],
      "payable": false,
      "stateMutability": "nonpayable",
      "type": "function"
    },
    {
      "constant": false,
      "inputs": [
        {
          "internalType": "address",
          "name": "newOwner",
          "type": "address"
        }
      ],
      "name": "transferOwnership",
      "outputs": [],
      "payable": false,
      "stateMutability": "nonpayable",
      "type": "function"
    },
    {
      "constant": false,
      "inputs": [
        {
          "internalType": "address",
          "name": "recipient",
          "type": "address"
        }
      ],
      "name": "transferPrimary",
      "outputs": [],
      "payable": false,
      "stateMutability": "nonpayable",
      "type": "function"
    },
    {
      "constant": true,
      "inputs": [],
      "name": "udpc",
      "outputs": [
        {
          "internalType": "uint256",
          "name": "",
          "type": "uint256"
        }
      ],
      "payable": false,
      "stateMutability": "view",
      "type": "function"
    },
    {
      "constant": false,
      "inputs": [],
      "name": "unpause",
      "outputs": [],
      "payable": false,
      "stateMutability": "nonpayable",
      "type": "function"
    },
    {
      "constant": false,
      "inputs": [
        {
          "internalType": "uint256",
          "name": "_udpc",
          "type": "uint256"
        },
        {
          "internalType": "uint256",
          "name": "_price",
          "type": "uint256"
        }
      ],
      "name": "upForSale",
      "outputs": [],
      "payable": false,
      "stateMutability": "nonpayable",
      "type": "function"
    },
    {
      "constant": false,
      "inputs": [
        {
          "internalType": "uint256",
          "name": "_slu",
          "type": "uint256"
        },
        {
          "internalType": "uint256",
          "name": "_humidity",
          "type": "uint256"
        },
        {
          "internalType": "uint256",
          "name": "_temprture",
          "type": "uint256"
        }
      ],
      "name": "updateDrugsLoudShippmentEnv",
      "outputs": [],
      "payable": false,
      "stateMutability": "nonpayable",
      "type": "function"
    },
    {
      "constant": false,
      "inputs": [
        {
          "internalType": "uint256",
          "name": "_slu",
          "type": "uint256"
        },
        {
          "internalType": "uint256",
          "name": "_humidity",
          "type": "uint256"
        },
        {
          "internalType": "uint256",
          "name": "_temprture",
          "type": "uint256"
        }
      ],
      "name": "updateDrugsLoudStockEnv",
      "outputs": [],
      "payable": false,
      "stateMutability": "nonpayable",
      "type": "function"
    },
    {
      "constant": true,
      "inputs": [],
      "name": "whoAmI",
      "outputs": [
        {
          "internalType": "bool",
          "name": "consumer",
          "type": "bool"
        },
        {
          "internalType": "bool",
          "name": "retailer",
          "type": "bool"
        },
        {
          "internalType": "bool",
          "name": "distributor",
          "type": "bool"
        },
        {
          "internalType": "bool",
          "name": "manufacturer",
          "type": "bool"
        },
        {
          "internalType": "bool",
          "name": "regulator",
          "type": "bool"
        },
        {
          "internalType": "bool",
          "name": "designer",
          "type": "bool"
        }
      ],
      "payable": false,
      "stateMutability": "view",
      "type": "function"
    },
    {
      "constant": false,
      "inputs": [],
      "name": "kill",
      "outputs": [],
      "payable": false,
      "stateMutability": "nonpayable",
      "type": "function"
    },
    {
      "constant": false,
      "inputs": [
        {
          "internalType": "uint256",
          "name": "_pku",
          "type": "uint256"
        }
      ],
      "name": "purchaseDrug",
      "outputs": [],
      "payable": true,
      "stateMutability": "payable",
      "type": "function"
    }
  ],
  "bytecode": "0x60806040523480156200001157600080fd5b5062000023336200024660201b60201c565b6200003433620002a760201b60201c565b62000045336200030860201b60201c565b62000056336200036960201b60201c565b6200006733620003ca60201b60201c565b62000078336200042b60201b60201c565b62000089336200048c60201b60201c565b6000600760006101000a81548160ff02191690831515021790555060006008819055506000600b819055506000600a8190555033600e60006101000a81548173ffffffffffffffffffffffffffffffffffffffff021916908373ffffffffffffffffffffffffffffffffffffffff160217905550600e60009054906101000a900473ffffffffffffffffffffffffffffffffffffffff1673ffffffffffffffffffffffffffffffffffffffff16600073ffffffffffffffffffffffffffffffffffffffff167f8be0079c531659141344cd1fd0a4f28419497f9722a3daafe3b4186f6b6457e060405160405180910390a333600f60006101000a81548173ffffffffffffffffffffffffffffffffffffffff021916908373ffffffffffffffffffffffffffffffffffffffff1602179055507f4101e71e974f68df5e9730cc223280b41654676bbb052cdcc735c3337e64d2d9600f60009054906101000a900473ffffffffffffffffffffffffffffffffffffffff16604051808273ffffffffffffffffffffffffffffffffffffffff1673ffffffffffffffffffffffffffffffffffffffff16815260200191505060405180910390a162000636565b62000261816000620004ed60201b6200807d1790919060201c565b8073ffffffffffffffffffffffffffffffffffffffff167f28b26e7a3d20aedbc5f8f2ebf7da671c0491723a2b78f47a097b0e46dee0714260405160405180910390a250565b620002c2816001620004ed60201b6200807d1790919060201c565b8073ffffffffffffffffffffffffffffffffffffffff167f561138658ca49a8540dc70dcfe64c9026c1c5b9344642242dd6562970f9c127860405160405180910390a250565b62000323816002620004ed60201b6200807d1790919060201c565b8073ffffffffffffffffffffffffffffffffffffffff167f97069a05372df648feb174cc125711b2c72a81450a1ab2769c8faf49917d7fd260405160405180910390a250565b62000384816003620004ed60201b6200807d1790919060201c565b8073ffffffffffffffffffffffffffffffffffffffff167fddbf200aa634dc3fb81cfd68583dd1040d1c751d335e1d86b631bde3e977fea860405160405180910390a250565b620003e5816004620004ed60201b6200807d1790919060201c565b8073ffffffffffffffffffffffffffffffffffffffff167f2860b5ba44f983f8f363ee6eeb3c24cbca3096803fbdd5129b9e253f01cac07660405160405180910390a250565b62000446816005620004ed60201b6200807d1790919060201c565b8073ffffffffffffffffffffffffffffffffffffffff167f71ae26cad02663e3d92efd6ec56031a80d74a20c0ab4183faa8bf262261c9baa60405160405180910390a250565b620004a7816006620004ed60201b6200807d1790919060201c565b8073ffffffffffffffffffffffffffffffffffffffff167f6719d08c1888103bea251a4ed56406bd0c3e69723c8a1686e017e7bbe159b6f860405160405180910390a250565b600073ffffffffffffffffffffffffffffffffffffffff168173ffffffffffffffffffffffffffffffffffffffff1614156200052857600080fd5b6200053a8282620005a360201b60201c565b156200054557600080fd5b60018260000160008373ffffffffffffffffffffffffffffffffffffffff1673ffffffffffffffffffffffffffffffffffffffff16815260200190815260200160002060006101000a81548160ff0219169083151502179055505050565b60008073ffffffffffffffffffffffffffffffffffffffff168273ffffffffffffffffffffffffffffffffffffffff161415620005df57600080fd5b8260000160008373ffffffffffffffffffffffffffffffffffffffff1673ffffffffffffffffffffffffffffffffffffffff16815260200190815260200160002060009054906101000a900460ff16905092915050565b6185aa80620006466000396000f3fe6080604052600436106103fa5760003560e01c80638456cb5911610213578063c6dbdf6111610123578063e1d6f86f116100ab578063eda0baa81161007a578063eda0baa814611f84578063ef20147714611f9b578063f2fde38b14611fb2578063fb32211114612003578063fc42925214612051576103fa565b8063e1d6f86f14611c7b578063e32ba99514611caa578063e63d2ee914611da6578063e716a4d714611de1576103fa565b8063cf196671116100f2578063cf19667114611986578063d3310297146119b5578063d8f271a9146119f0578063d8fcc6f814611a80578063da91254c14611c15576103fa565b8063c6dbdf61146117b8578063c778145d1461180f578063c7bead1e1461183a578063c82d9afc1461196f576103fa565b8063a40e210f116101a6578063ac63f3c711610175578063ac63f3c714611695578063b442510b146116e6578063b635053614611721578063c3c7b82c14611766578063c4f22011146117a1576103fa565b8063a40e210f1461148f578063a4a418b1146114a6578063a4f03e23146114bd578063a7d2504014611526576103fa565b80638f32d59b116101e25780638f32d59b146113315780639af687a6146113605780639ce6f51c1461138f5780639f179682146113bd576103fa565b80638456cb5914611243578063879581ba1461125a5780638da5cb5b146112715780638f0c86fa146112c8576103fa565b806348c149bd1161030e578063693082c4116102a1578063719c2e5211610270578063719c2e52146110c7578063784167af1461111657806382dc1ec41461115b578063834ff739146111ac57806383be91e514611215576103fa565b8063693082c41461103357806369d095c1146110825780636ef8d66d14611099578063715018a6146110b0576103fa565b80635c975abb116102dd5780635c975abb14610f275780635da09b8814610f565780635ec5b72814610fbf57806365c7c33114610fee576103fa565b806348c149bd14610e4b5780635043ceaf14610e6257806354fc916914610ea757806355edd88b14610f10576103fa565b806335c96e971161039157806341c0e1b51161036057806341c0e1b51461083d578063424ee0db146108545780634314d44d14610ae15780634346fac514610c5657806346fbf68e14610de2576103fa565b806335c96e971461074d578063374a24091461077c5780633f4ba83a146107b75780633f968f9e146107ce576103fa565b806317d4a491116103cd57806317d4a491146104ef5780631d375b0c146105585780631e8acbeb146105875780632348238c146106fc576103fa565b806301715f75146103ff578063076ed96814610472578063118f74f51461049d5780631395d0f2146104b4575b600080fd5b34801561040b57600080fd5b506104586004803603604081101561042257600080fd5b8101908080359060200190929190803573ffffffffffffffffffffffffffffffffffffffff1690602001909291905050506122d6565b604051808215151515815260200191505060405180910390f35b34801561047e57600080fd5b50610487612308565b6040518082815260200191505060405180910390f35b3480156104a957600080fd5b506104b2612312565b005b3480156104c057600080fd5b506104ed600480360360208110156104d757600080fd5b810190808035906020019092919050505061231d565b005b3480156104fb57600080fd5b5061053e6004803603602081101561051257600080fd5b81019080803573ffffffffffffffffffffffffffffffffffffffff1690602001909291905050506123be565b604051808215151515815260200191505060405180910390f35b34801561056457600080fd5b5061056d6123db565b604051808215151515815260200191505060405180910390f35b34801561059357600080fd5b506106fa600480360360808110156105aa57600080fd5b8101908080359060200190929190803590602001906401000000008111156105d157600080fd5b8201836020820111156105e357600080fd5b8035906020019184600183028401116401000000008311171561060557600080fd5b91908080601f016020809104026020016040519081016040528093929190818152602001838380828437600081840152601f19601f8201169050808301925050505050505091929192908035151590602001909291908035906020019064010000000081111561067457600080fd5b82018360208201111561068657600080fd5b803590602001918460018302840111640100000000831117156106a857600080fd5b91908080601f016020809104026020016040519081016040528093929190818152602001838380828437600081840152601f19601f8201169050808301925050505050505091929192905050506123f6565b005b34801561070857600080fd5b5061074b6004803603602081101561071f57600080fd5b81019080803573ffffffffffffffffffffffffffffffffffffffff1690602001909291905050506126f2565b005b34801561075957600080fd5b5061076261284f565b604051808215151515815260200191505060405180910390f35b34801561078857600080fd5b506107b56004803603602081101561079f57600080fd5b810190808035906020019092919050505061286a565b005b3480156107c357600080fd5b506107cc612997565b005b3480156107da57600080fd5b50610827600480360360408110156107f157600080fd5b8101908080359060200190929190803573ffffffffffffffffffffffffffffffffffffffff169060200190929190505050612a42565b6040518082815260200191505060405180910390f35b34801561084957600080fd5b50610852612a74565b005b34801561086057600080fd5b50610adf6004803603608081101561087757600080fd5b810190808035906020019064010000000081111561089457600080fd5b8201836020820111156108a657600080fd5b803590602001918460018302840111640100000000831117156108c857600080fd5b91908080601f016020809104026020016040519081016040528093929190818152602001838380828437600081840152601f19601f8201169050808301925050505050505091929192908035906020019064010000000081111561092b57600080fd5b82018360208201111561093d57600080fd5b8035906020019184600183028401116401000000008311171561095f57600080fd5b91908080601f016020809104026020016040519081016040528093929190818152602001838380828437600081840152601f19601f820116905080830192505050505050509192919290803590602001906401000000008111156109c257600080fd5b8201836020820111156109d457600080fd5b803590602001918460018302840111640100000000831117156109f657600080fd5b91908080601f016020809104026020016040519081016040528093929190818152602001838380828437600081840152601f19601f82011690508083019250505050505050919291929080359060200190640100000000811115610a5957600080fd5b820183602082011115610a6b57600080fd5b80359060200191846001830284011164010000000083111715610a8d57600080fd5b91908080601f016020809104026020016040519081016040528093929190818152602001838380828437600081840152601f19601f820116905080830192505050505050509192919290505050612a9e565b005b348015610aed57600080fd5b50610c5460048036036080811015610b0457600080fd5b810190808035906020019092919080359060200190640100000000811115610b2b57600080fd5b820183602082011115610b3d57600080fd5b80359060200191846001830284011164010000000083111715610b5f57600080fd5b91908080601f016020809104026020016040519081016040528093929190818152602001838380828437600081840152601f19601f82011690508083019250505050505050919291929080351515906020019092919080359060200190640100000000811115610bce57600080fd5b820183602082011115610be057600080fd5b80359060200191846001830284011164010000000083111715610c0257600080fd5b91908080601f016020809104026020016040519081016040528093929190818152602001838380828437600081840152601f19601f820116905080830192505050505050509192919290505050612b45565b005b348015610c6257600080fd5b50610c8f60048036036020811015610c7957600080fd5b8101908080359060200190929190505050612bd2565b60405180806020018060200180602001848103845287818151815260200191508051906020019080838360005b83811015610cd7578082015181840152602081019050610cbc565b50505050905090810190601f168015610d045780820380516001836020036101000a031916815260200191505b50848103835286818151815260200191508051906020019080838360005b83811015610d3d578082015181840152602081019050610d22565b50505050905090810190601f168015610d6a5780820380516001836020036101000a031916815260200191505b50848103825285818151815260200191508051906020019080838360005b83811015610da3578082015181840152602081019050610d88565b50505050905090810190601f168015610dd05780820380516001836020036101000a031916815260200191505b50965050505050505060405180910390f35b348015610dee57600080fd5b50610e3160048036036020811015610e0557600080fd5b81019080803573ffffffffffffffffffffffffffffffffffffffff169060200190929190505050612e81565b604051808215151515815260200191505060405180910390f35b348015610e5757600080fd5b50610e60612e9e565b005b348015610e6e57600080fd5b50610ea560048036036040811015610e8557600080fd5b810190808035906020019092919080359060200190929190505050612ea9565b005b348015610eb357600080fd5b50610ef660048036036020811015610eca57600080fd5b81019080803573ffffffffffffffffffffffffffffffffffffffff169060200190929190505050612fd1565b604051808215151515815260200191505060405180910390f35b348015610f1c57600080fd5b50610f25612fee565b005b348015610f3357600080fd5b50610f3c612ff9565b604051808215151515815260200191505060405180910390f35b348015610f6257600080fd5b50610fa560048036036020811015610f7957600080fd5b81019080803573ffffffffffffffffffffffffffffffffffffffff169060200190929190505050613010565b604051808215151515815260200191505060405180910390f35b348015610fcb57600080fd5b50610fd461302d565b604051808215151515815260200191505060405180910390f35b348015610ffa57600080fd5b506110316004803603604081101561101157600080fd5b810190808035906020019092919080359060200190929190505050613048565b005b34801561103f57600080fd5b506110806004803603606081101561105657600080fd5b8101908080359060200190929190803590602001909291908035906020019092919050505061320b565b005b34801561108e57600080fd5b50611097613518565b005b3480156110a557600080fd5b506110ae613523565b005b3480156110bc57600080fd5b506110c561352e565b005b3480156110d357600080fd5b50611114600480360360608110156110ea57600080fd5b81019080803590602001909291908035906020019092919080359060200190929190505050613600565b005b34801561112257600080fd5b506111596004803603604081101561113957600080fd5b81019080803590602001909291908035906020019092919050505061393e565b005b34801561116757600080fd5b506111aa6004803603602081101561117e57600080fd5b81019080803573ffffffffffffffffffffffffffffffffffffffff169060200190929190505050613a84565b005b3480156111b857600080fd5b506111fb600480360360208110156111cf57600080fd5b81019080803573ffffffffffffffffffffffffffffffffffffffff169060200190929190505050613aa2565b604051808215151515815260200191505060405180910390f35b6112416004803603602081101561122b57600080fd5b8101908080359060200190929190505050613abf565b005b34801561124f57600080fd5b50611258613b4e565b005b34801561126657600080fd5b5061126f613bfa565b005b34801561127d57600080fd5b50611286613c05565b604051808273ffffffffffffffffffffffffffffffffffffffff1673ffffffffffffffffffffffffffffffffffffffff16815260200191505060405180910390f35b3480156112d457600080fd5b50611317600480360360208110156112eb57600080fd5b81019080803573ffffffffffffffffffffffffffffffffffffffff169060200190929190505050613c2f565b604051808215151515815260200191505060405180910390f35b34801561133d57600080fd5b50611346613c4c565b604051808215151515815260200191505060405180910390f35b34801561136c57600080fd5b50611375613ca4565b604051808215151515815260200191505060405180910390f35b6113bb600480360360208110156113a557600080fd5b8101908080359060200190929190505050613cbf565b005b3480156113c957600080fd5b5061148d600480360360408110156113e057600080fd5b81019080803590602001909291908035906020019064010000000081111561140757600080fd5b82018360208201111561141957600080fd5b8035906020019184600183028401116401000000008311171561143b57600080fd5b91908080601f016020809104026020016040519081016040528093929190818152602001838380828437600081840152601f19601f820116905080830192505050505050509192919290505050613d46565b005b34801561149b57600080fd5b506114a4613de9565b005b3480156114b257600080fd5b506114bb613df4565b005b3480156114c957600080fd5b5061150c600480360360208110156114e057600080fd5b81019080803573ffffffffffffffffffffffffffffffffffffffff169060200190929190505050613e16565b604051808215151515815260200191505060405180910390f35b34801561153257600080fd5b5061155f6004803603602081101561154957600080fd5b8101908080359060200190929190505050613e33565b6040518086815260200180602001806020018060200180602001858103855289818151815260200191508051906020019060200280838360005b838110156115b4578082015181840152602081019050611599565b50505050905001858103845288818151815260200191508051906020019060200280838360005b838110156115f65780820151818401526020810190506115db565b50505050905001858103835287818151815260200191508051906020019060200280838360005b8381101561163857808201518184015260208101905061161d565b50505050905001858103825286818151815260200191508051906020019060200280838360005b8381101561167a57808201518184015260208101905061165f565b50505050905001995050505050505050505060405180910390f35b3480156116a157600080fd5b506116e4600480360360208110156116b857600080fd5b81019080803573ffffffffffffffffffffffffffffffffffffffff16906020019092919050505061406d565b005b3480156116f257600080fd5b5061171f6004803603602081101561170957600080fd5b8101908080359060200190929190505050614079565b005b34801561172d57600080fd5b506117646004803603604081101561174457600080fd5b81019080803590602001909291908035906020019092919050505061426d565b005b34801561177257600080fd5b5061179f6004803603602081101561178957600080fd5b810190808035906020019092919050505061447d565b005b3480156117ad57600080fd5b506117b661468c565b005b3480156117c457600080fd5b506117cd614697565b604051808273ffffffffffffffffffffffffffffffffffffffff1673ffffffffffffffffffffffffffffffffffffffff16815260200191505060405180910390f35b34801561181b57600080fd5b506118246146c1565b6040518082815260200191505060405180910390f35b34801561184657600080fd5b5061187d6004803603604081101561185d57600080fd5b8101908080359060200190929190803590602001909291905050506146c7565b60405180806020018415151515815260200180602001838103835286818151815260200191508051906020019080838360005b838110156118cb5780820151818401526020810190506118b0565b50505050905090810190601f1680156118f85780820380516001836020036101000a031916815260200191505b50838103825284818151815260200191508051906020019080838360005b83811015611931578082015181840152602081019050611916565b50505050905090810190601f16801561195e5780820380516001836020036101000a031916815260200191505b509550505050505060405180910390f35b34801561197b57600080fd5b506119846149a7565b005b34801561199257600080fd5b5061199b6149b2565b604051808215151515815260200191505060405180910390f35b3480156119c157600080fd5b506119ee600480360360208110156119d857600080fd5b81019080803590602001909291905050506149cd565b005b3480156119fc57600080fd5b50611a2960048036036020811015611a1357600080fd5b8101908080359060200190929190505050614c16565b6040518080602001828103825283818151815260200191508051906020019060200280838360005b83811015611a6c578082015181840152602081019050611a51565b505050509050019250505060405180910390f35b348015611a8c57600080fd5b50611ab960048036036020811015611aa357600080fd5b8101908080359060200190929190505050614c81565b60405180898152602001888152602001806020018773ffffffffffffffffffffffffffffffffffffffff1673ffffffffffffffffffffffffffffffffffffffff1681526020018673ffffffffffffffffffffffffffffffffffffffff1673ffffffffffffffffffffffffffffffffffffffff1681526020018573ffffffffffffffffffffffffffffffffffffffff1673ffffffffffffffffffffffffffffffffffffffff1681526020018473ffffffffffffffffffffffffffffffffffffffff1673ffffffffffffffffffffffffffffffffffffffff168152602001838152602001828103825288818151815260200191508051906020019080838360005b83811015611bd3578082015181840152602081019050611bb8565b50505050905090810190601f168015611c005780820380516001836020036101000a031916815260200191505b50995050505050505050505060405180910390f35b348015611c2157600080fd5b50611c2a614daf565b60405180871515151581526020018615151515815260200185151515158152602001841515151581526020018315151515815260200182151515158152602001965050505050505060405180910390f35b348015611c8757600080fd5b50611c90614dfc565b604051808215151515815260200191505060405180910390f35b348015611cb657600080fd5b50611da460048036036080811015611ccd57600080fd5b8101908080359060200190929190803573ffffffffffffffffffffffffffffffffffffffff16906020019092919080359060200190640100000000811115611d1457600080fd5b820183602082011115611d2657600080fd5b80359060200191846001830284011164010000000083111715611d4857600080fd5b91908080601f016020809104026020016040519081016040528093929190818152602001838380828437600081840152601f19601f82011690508083019250505050505050919291929080359060200190929190505050614e17565b005b348015611db257600080fd5b50611ddf60048036036020811015611dc957600080fd5b810190808035906020019092919050505061502e565b005b348015611ded57600080fd5b50611e1a60048036036020811015611e0457600080fd5b810190808035906020019092919050505061517d565b604051808b81526020018a8152602001806020018973ffffffffffffffffffffffffffffffffffffffff1673ffffffffffffffffffffffffffffffffffffffff1681526020018873ffffffffffffffffffffffffffffffffffffffff1673ffffffffffffffffffffffffffffffffffffffff1681526020018773ffffffffffffffffffffffffffffffffffffffff1673ffffffffffffffffffffffffffffffffffffffff1681526020018673ffffffffffffffffffffffffffffffffffffffff1673ffffffffffffffffffffffffffffffffffffffff16815260200185815260200184815260200183815260200182810382528a818151815260200191508051906020019080838360005b83811015611f40578082015181840152602081019050611f25565b50505050905090810190601f168015611f6d5780820380516001836020036101000a031916815260200191505b509b50505050505050505050505060405180910390f35b348015611f9057600080fd5b50611f996155f2565b005b348015611fa757600080fd5b50611fb06155fd565b005b348015611fbe57600080fd5b5061200160048036036020811015611fd557600080fd5b81019080803573ffffffffffffffffffffffffffffffffffffffff169060200190929190505050615608565b005b61204f6004803603604081101561201957600080fd5b8101908080359060200190929190803573ffffffffffffffffffffffffffffffffffffffff169060200190929190505050615625565b005b34801561205d57600080fd5b5061208a6004803603602081101561207457600080fd5b8101908080359060200190929190505050615bc4565b604051808c73ffffffffffffffffffffffffffffffffffffffff1673ffffffffffffffffffffffffffffffffffffffff1681526020018b73ffffffffffffffffffffffffffffffffffffffff1673ffffffffffffffffffffffffffffffffffffffff1681526020018060200180602001806020018a1515151581526020018981526020018060200188815260200187815260200186815260200185810385528e818151815260200191508051906020019080838360005b8381101561215c578082015181840152602081019050612141565b50505050905090810190601f1680156121895780820380516001836020036101000a031916815260200191505b5085810384528d818151815260200191508051906020019080838360005b838110156121c25780820151818401526020810190506121a7565b50505050905090810190601f1680156121ef5780820380516001836020036101000a031916815260200191505b5085810383528c818151815260200191508051906020019080838360005b8381101561222857808201518184015260208101905061220d565b50505050905090810190601f1680156122555780820380516001836020036101000a031916815260200191505b50858103825289818151815260200191508051906020019080838360005b8381101561228e578082015181840152602081019050612273565b50505050905090810190601f1680156122bb5780820380516001836020036101000a031916815260200191505b509f5050505050505050505050505050505060405180910390f35b60006123008260096000868152602001908152602001600020600b0161615890919063ffffffff16565b905092915050565b6000600854905090565b61231b336161ea565b565b61232633612fd1565b612398576040517f08c379a00000000000000000000000000000000000000000000000000000000081526004018080602001828103825260108152602001807f4e6f74204120526567756c61746f72210000000000000000000000000000000081525060200191505060405180910390fd5b600760009054906101000a900460ff16156123b257600080fd5b6123bb81616244565b50565b60006123d48260016162fe90919063ffffffff16565b9050919050565b60006123f13360056162fe90919063ffffffff16565b905090565b833373ffffffffffffffffffffffffffffffffffffffff166009600083815260200190815260200160002060010160009054906101000a900473ffffffffffffffffffffffffffffffffffffffff1673ffffffffffffffffffffffffffffffffffffffff161461246557600080fd5b6008548511156124dd576040517f08c379a000000000000000000000000000000000000000000000000000000000815260040180806020018281038252601b8152602001807f476976656e2055445043204e6f7420437265617465642059657421000000000081525060200191505060405180910390fd5b6124e561825e565b6040518060a001604052803373ffffffffffffffffffffffffffffffffffffffff16815260200142815260200185151581526020018681526020018481525090508060096000888152602001908152602001600020600a016000600960008a815260200190815260200160002060090154815260200190815260200160002060008201518160000160006101000a81548173ffffffffffffffffffffffffffffffffffffffff021916908373ffffffffffffffffffffffffffffffffffffffff1602179055506020820151816001015560408201518160020160006101000a81548160ff02191690831515021790555060608201518160030190805190602001906125f19291906182a5565b50608082015181600401908051906020019061260e9291906182a5565b5090505060096000878152602001908152602001600020600901600081548092919060010191905055506000600381111561264557fe5b6009600088815260200190815260200160002060040160009054906101000a900460ff16600381111561267457fe5b14156126b35760016009600088815260200190815260200160002060040160006101000a81548160ff021916908360038111156126ad57fe5b02179055505b7f81d5f9bced9b9d1723f40796f43346ab2f3d2147b09cc27e573f3eb3b5875864866040518082815260200191505060405180910390a1505050505050565b600f60009054906101000a900473ffffffffffffffffffffffffffffffffffffffff1673ffffffffffffffffffffffffffffffffffffffff163373ffffffffffffffffffffffffffffffffffffffff161461274c57600080fd5b600073ffffffffffffffffffffffffffffffffffffffff168173ffffffffffffffffffffffffffffffffffffffff16141561278657600080fd5b80600f60006101000a81548173ffffffffffffffffffffffffffffffffffffffff021916908373ffffffffffffffffffffffffffffffffffffffff1602179055507f4101e71e974f68df5e9730cc223280b41654676bbb052cdcc735c3337e64d2d9600f60009054906101000a900473ffffffffffffffffffffffffffffffffffffffff16604051808273ffffffffffffffffffffffffffffffffffffffff1673ffffffffffffffffffffffffffffffffffffffff16815260200191505060405180910390a150565b60006128653360046162fe90919063ffffffff16565b905090565b806002600381111561287857fe5b6009600083815260200190815260200160002060040160009054906101000a900460ff1660038111156128a757fe5b146128b157600080fd5b813373ffffffffffffffffffffffffffffffffffffffff166009600083815260200190815260200160002060010160009054906101000a900473ffffffffffffffffffffffffffffffffffffffff1673ffffffffffffffffffffffffffffffffffffffff161461292057600080fd5b600060096000858152602001908152602001600020600b0160020160006101000a81548160ff0219169083600281111561295657fe5b02179055507fecd07b3c3d2d5a97909bbc0b960a7481613849c91ef6c3a8b139c3b7c4c8083b836040518082815260200191505060405180910390a1505050565b6129a033612e81565b6129a957600080fd5b600760009054906101000a900460ff166129c257600080fd5b6000600760006101000a81548160ff0219169083151502179055507f5db9ee0a495bf2e6ff9c91a7834c1ba4fdd244a5e8aa4e537bd38aeae4b073aa33604051808273ffffffffffffffffffffffffffffffffffffffff1673ffffffffffffffffffffffffffffffffffffffff16815260200191505060405180910390a1565b6000612a6c8260096000868152602001908152602001600020600b0161639090919063ffffffff16565b905092915050565b612a7c613c4c565b612a8557600080fd5b3373ffffffffffffffffffffffffffffffffffffffff16ff5b612aa733613e16565b612b19576040517f08c379a000000000000000000000000000000000000000000000000000000000815260040180806020018281038252600f8152602001807f4e6f7420412044657369676e657221000000000000000000000000000000000081525060200191505060405180910390fd5b600760009054906101000a900460ff1615612b3357600080fd5b612b3f84848484616446565b50505050565b612b4e33612fd1565b612bc0576040517f08c379a00000000000000000000000000000000000000000000000000000000081526004018080602001828103825260108152602001807f4e6f74204120526567756c61746f72210000000000000000000000000000000081525060200191505060405180910390fd5b612bcc84848484616783565b50505050565b6060806060600854841115612c4f576040517f08c379a000000000000000000000000000000000000000000000000000000000815260040180806020018281038252601b8152602001807f476976656e2055445043204e6f7420437265617465642059657421000000000081525060200191505060405180910390fd5b600960008581526020019081526020016000206005016000016009600086815260200190815260200160002060050160010160096000878152602001908152602001600020600501600201828054600181600116156101000203166002900480601f016020809104026020016040519081016040528092919081815260200182805460018160011615610100020316600290048015612d2f5780601f10612d0457610100808354040283529160200191612d2f565b820191906000526020600020905b815481529060010190602001808311612d1257829003601f168201915b50505050509250818054600181600116156101000203166002900480601f016020809104026020016040519081016040528092919081815260200182805460018160011615610100020316600290048015612dcb5780601f10612da057610100808354040283529160200191612dcb565b820191906000526020600020905b815481529060010190602001808311612dae57829003601f168201915b50505050509150808054600181600116156101000203166002900480601f016020809104026020016040519081016040528092919081815260200182805460018160011615610100020316600290048015612e675780601f10612e3c57610100808354040283529160200191612e67565b820191906000526020600020905b815481529060010190602001808311612e4a57829003601f168201915b505050505090508093508194508295505050509193909250565b6000612e978260066162fe90919063ffffffff16565b9050919050565b612ea733616a0f565b565b612eb2336123be565b612f24576040517f08c379a00000000000000000000000000000000000000000000000000000000081526004018080602001828103825260138152602001807f4e6f742041204d616e756661637475726572210000000000000000000000000081525060200191505060405180910390fd5b81612f4d3360096000848152602001908152602001600020600b0161615890919063ffffffff16565b80612fb957503373ffffffffffffffffffffffffffffffffffffffff166009600083815260200190815260200160002060010160009054906101000a900473ffffffffffffffffffffffffffffffffffffffff1673ffffffffffffffffffffffffffffffffffffffff16145b612fc257600080fd5b612fcc8383616a69565b505050565b6000612fe78260046162fe90919063ffffffff16565b9050919050565b612ff733616d86565b565b6000600760009054906101000a900460ff16905090565b60006130268260056162fe90919063ffffffff16565b9050919050565b60006130433360026162fe90919063ffffffff16565b905090565b816002600381111561305657fe5b6009600083815260200190815260200160002060040160009054906101000a900460ff16600381111561308557fe5b1461308f57600080fd5b823373ffffffffffffffffffffffffffffffffffffffff166009600083815260200190815260200160002060010160009054906101000a900473ffffffffffffffffffffffffffffffffffffffff1673ffffffffffffffffffffffffffffffffffffffff16146130fe57600080fd5b6064831115613175576040517f08c379a00000000000000000000000000000000000000000000000000000000081526004018080602001828103825260168152602001807f4d6f7374206265206c657373207468616e20253130300000000000000000000081525060200191505060405180910390fd5b8260096000868152602001908152602001600020600b0160010181905550600160096000868152602001908152602001600020600b0160020160006101000a81548160ff021916908360028111156131c957fe5b02179055507f7757356b46f23cb3ef1647e45863d1afc6f69c56c39b4afc70f3e2cea14c3a9d846040518082815260200191505060405180910390a150505050565b826000600d600083815260200190815260200160002060008154811061322d57fe5b906000526020600020015490506005600681111561324757fe5b600c600083815260200190815260200160002060030160009054906101000a900460ff16600681111561327657fe5b1461328057600080fd5b846000600d60008381526020019081526020016000206000815481106132a257fe5b9060005260206000200154905060003373ffffffffffffffffffffffffffffffffffffffff16600c600084815260200190815260200160002060060160009054906101000a900473ffffffffffffffffffffffffffffffffffffffff1673ffffffffffffffffffffffffffffffffffffffff161490508061332257600080fd5b6000600d60008a8152602001908152602001600020805490509050613345618325565b60405180608001604052804281526020018a81526020018981526020013373ffffffffffffffffffffffffffffffffffffffff16815250905060008090505b828110156134d4576000600d60008d815260200190815260200160002082815481106133ac57fe5b906000526020600020015490506006808111156133c557fe5b600c600083815260200190815260200160002060030160009054906101000a900460ff1660068111156133f457fe5b146134c65782600c60008381526020019081526020016000206009016000600c6000858152602001908152602001600020600a0154815260200190815260200160002060008201518160000155602082015181600101556040820151816002015560608201518160030160006101000a81548173ffffffffffffffffffffffffffffffffffffffff021916908373ffffffffffffffffffffffffffffffffffffffff160217905550905050600c6000828152602001908152602001600020600a01600081548092919060010191905055505b508080600101915050613384565b507f332d23c9d7e8e885c3f1696ae3b424351c1e9e2a4cc531396d6848b79a0dac988a6040518082815260200191505060405180910390a150505050505050505050565b61352133616de0565b565b61352c33616e3a565b565b613536613c4c565b61353f57600080fd5b600073ffffffffffffffffffffffffffffffffffffffff16600e60009054906101000a900473ffffffffffffffffffffffffffffffffffffffff1673ffffffffffffffffffffffffffffffffffffffff167f8be0079c531659141344cd1fd0a4f28419497f9722a3daafe3b4186f6b6457e060405160405180910390a36000600e60006101000a81548173ffffffffffffffffffffffffffffffffffffffff021916908373ffffffffffffffffffffffffffffffffffffffff160217905550565b826000600d600083815260200190815260200160002060008154811061362257fe5b906000526020600020015490506004600681111561363c57fe5b600c600083815260200190815260200160002060030160009054906101000a900460ff16600681111561366b57fe5b1461367557600080fd5b846000600d600083815260200190815260200160002060008154811061369757fe5b9060005260206000200154905060003373ffffffffffffffffffffffffffffffffffffffff16600c600084815260200190815260200160002060040160009054906101000a900473ffffffffffffffffffffffffffffffffffffffff1673ffffffffffffffffffffffffffffffffffffffff1614905060003373ffffffffffffffffffffffffffffffffffffffff16600c600085815260200190815260200160002060050160009054906101000a900473ffffffffffffffffffffffffffffffffffffffff1673ffffffffffffffffffffffffffffffffffffffff16149050818061377f5750805b61378857600080fd5b6000600d60008b81526020019081526020016000208054905090506137ab618325565b60405180608001604052804281526020018b81526020018a81526020013373ffffffffffffffffffffffffffffffffffffffff16815250905060008090505b828110156138f9576000600d60008e8152602001908152602001600020828154811061381257fe5b9060005260206000200154905082600c60008381526020019081526020016000206009016000600c6000858152602001908152602001600020600a0154815260200190815260200160002060008201518160000155602082015181600101556040820151816002015560608201518160030160006101000a81548173ffffffffffffffffffffffffffffffffffffffff021916908373ffffffffffffffffffffffffffffffffffffffff160217905550905050600c6000828152602001908152602001600020600a01600081548092919060010191905055505080806001019150506137ea565b507f332d23c9d7e8e885c3f1696ae3b424351c1e9e2a4cc531396d6848b79a0dac988b6040518082815260200191505060405180910390a15050505050505050505050565b813373ffffffffffffffffffffffffffffffffffffffff166009600083815260200190815260200160002060010160009054906101000a900473ffffffffffffffffffffffffffffffffffffffff1673ffffffffffffffffffffffffffffffffffffffff16146139ad57600080fd5b82600260038111156139bb57fe5b6009600083815260200190815260200160002060040160009054906101000a900460ff1660038111156139ea57fe5b146139f457600080fd5b82600960008681526020019081526020016000206008018190555060036009600086815260200190815260200160002060040160006101000a81548160ff02191690836003811115613a4257fe5b02179055507f9830dea00c267e7b6913a128e9a399b9272b3c2b650ac4c447ce2b876b100488846040518082815260200191505060405180910390a150505050565b613a8d33612e81565b613a9657600080fd5b613a9f81616e94565b50565b6000613ab88260006162fe90919063ffffffff16565b9050919050565b613ac881616eee565b6000600c60008381526020019081526020016000206007015490506000613aed613c05565b9050600060646001840281613afe57fe5b0490508173ffffffffffffffffffffffffffffffffffffffff166108fc829081150290604051600060405180830381858888f19350505050158015613b47573d6000803e3d6000fd5b5050505050565b613b5733612e81565b613b6057600080fd5b600760009054906101000a900460ff1615613b7a57600080fd5b6001600760006101000a81548160ff0219169083151502179055507f62e78cea01bee320cd4e420270b5ea74000d11b0c9f74754ebdbfc544b05a25833604051808273ffffffffffffffffffffffffffffffffffffffff1673ffffffffffffffffffffffffffffffffffffffff16815260200191505060405180910390a1565b613c03336171a9565b565b6000600e60009054906101000a900473ffffffffffffffffffffffffffffffffffffffff16905090565b6000613c458260036162fe90919063ffffffff16565b9050919050565b6000600e60009054906101000a900473ffffffffffffffffffffffffffffffffffffffff1673ffffffffffffffffffffffffffffffffffffffff163373ffffffffffffffffffffffffffffffffffffffff1614905090565b6000613cba3360006162fe90919063ffffffff16565b905090565b613cc8336123be565b613d3a576040517f08c379a00000000000000000000000000000000000000000000000000000000081526004018080602001828103825260138152602001807f4e6f742041204d616e756661637475726572210000000000000000000000000081525060200191505060405180910390fd5b613d4381617203565b50565b613d4f336123be565b613dc1576040517f08c379a00000000000000000000000000000000000000000000000000000000081526004018080602001828103825260138152602001807f4e6f742041204d616e756661637475726572210000000000000000000000000081525060200191505060405180910390fd5b600760009054906101000a900460ff1615613ddb57600080fd5b613de5828261746b565b5050565b613df233617566565b565b613dfd336175c0565b613e06336123be565b613e1457613e1333616a0f565b5b565b6000613e2c8260026162fe90919063ffffffff16565b9050919050565b6000606080606080856000600c6000838152602001908152602001600020600a01541415613e6057600080fd5b6000600c6000898152602001908152602001600020905080600a01549650606087604051908082528060200260200182016040528015613eaf5781602001602082028038833980820191505090505b509050606088604051908082528060200260200182016040528015613ee35781602001602082028038833980820191505090505b509050606089604051908082528060200260200182016040528015613f175781602001602082028038833980820191505090505b50905060608a604051908082528060200260200182016040528015613f4b5781602001602082028038833980820191505090505b50905060008090505b85600a015481101561404957600086600901600083815260200190815260200160002090508060000154868381518110613f8a57fe5b6020026020010181815250508060020154858381518110613fa757fe5b6020026020010181815250508060010154848381518110613fc457fe5b6020026020010181815250508060030160009054906101000a900473ffffffffffffffffffffffffffffffffffffffff1683838151811061400157fe5b602002602001019073ffffffffffffffffffffffffffffffffffffffff16908173ffffffffffffffffffffffffffffffffffffffff1681525050508080600101915050613f54565b5083838383809a50819b50829c50839d505050505050505050505091939590929450565b6140768161761a565b50565b806000600d600083815260200190815260200160002060008154811061409b57fe5b90600052602060002001549050600360068111156140b557fe5b600c600083815260200190815260200160002060030160009054906101000a900460ff1660068111156140e457fe5b146140ee57600080fd5b826000600d600083815260200190815260200160002060008154811061411057fe5b9060005260206000200154905060003373ffffffffffffffffffffffffffffffffffffffff16600c600084815260200190815260200160002060040160009054906101000a900473ffffffffffffffffffffffffffffffffffffffff1673ffffffffffffffffffffffffffffffffffffffff161490508061419057600080fd5b6000600d600088815260200190815260200160002080549050905060008090505b8181101561422c576000600d60008a815260200190815260200160002082815481106141d957fe5b906000526020600020015490506004600c600083815260200190815260200160002060030160006101000a81548160ff0219169083600681111561421957fe5b02179055505080806001019150506141b1565b507ff00b9a5725b80c54016f42114f6ed7792d22eecb116011c4afac29c57bef6c95876040518082815260200191505060405180910390a150505050505050565b816000600d600083815260200190815260200160002060008154811061428f57fe5b90600052602060002001549050600160068111156142a957fe5b600c600083815260200190815260200160002060030160009054906101000a900460ff1660068111156142d857fe5b146142e257600080fd5b836000600d600083815260200190815260200160002060008154811061430457fe5b9060005260206000200154905060003373ffffffffffffffffffffffffffffffffffffffff16600c600084815260200190815260200160002060040160009054906101000a900473ffffffffffffffffffffffffffffffffffffffff1673ffffffffffffffffffffffffffffffffffffffff161490508061438457600080fd5b6000600d600089815260200190815260200160002080549050905060008090505b8181101561443b576000600d60008b815260200190815260200160002082815481106143cd57fe5b906000526020600020015490506002600c600083815260200190815260200160002060030160006101000a81548160ff0219169083600681111561440d57fe5b021790555088600c6000838152602001908152602001600020600701819055505080806001019150506143a5565b507fa96ae0fc3224ebd79eebfe54bd130cc9cb94416cddd1f2386115e00b72532468886040518082815260200191505060405180910390a15050505050505050565b806000600d600083815260200190815260200160002060008154811061449f57fe5b90600052602060002001549050600060068111156144b957fe5b600c600083815260200190815260200160002060030160009054906101000a900460ff1660068111156144e857fe5b146144f257600080fd5b826000600d600083815260200190815260200160002060008154811061451457fe5b9060005260206000200154905060003373ffffffffffffffffffffffffffffffffffffffff16600c600084815260200190815260200160002060040160009054906101000a900473ffffffffffffffffffffffffffffffffffffffff1673ffffffffffffffffffffffffffffffffffffffff161490508061459457600080fd5b6000600d600088815260200190815260200160002080549050905060008090505b8181101561464b576000600d60008a815260200190815260200160002082815481106145dd57fe5b906000526020600020015490506001600c600083815260200190815260200160002060030160006101000a81548160ff0219169083600681111561461d57fe5b021790555042600c6000838152602001908152602001600020600801819055505080806001019150506145b5565b507f9b3b66e2380b690bae22c73ef1428fb0c91e72fe14a4b6defa13035214187aff876040518082815260200191505060405180910390a150505050505050565b61469533617674565b565b6000600f60009054906101000a900473ffffffffffffffffffffffffffffffffffffffff16905090565b60085481565b606060006060600854851115614745576040517f08c379a000000000000000000000000000000000000000000000000000000000815260040180806020018281038252601b8152602001807f476976656e2055445043204e6f7420437265617465642059657421000000000081525060200191505060405180910390fd5b600960008681526020019081526020016000206009015484106147d0576040517f08c379a000000000000000000000000000000000000000000000000000000000815260040180806020018281038252601a8152602001807f546573742043617365204e6f742043726561746564205965742100000000000081525060200191505060405180910390fd5b60096000868152602001908152602001600020600a01600085815260200190815260200160002060030160096000878152602001908152602001600020600a01600086815260200190815260200160002060020160009054906101000a900460ff1660096000888152602001908152602001600020600a016000878152602001908152602001600020600401828054600181600116156101000203166002900480601f0160208091040260200160405190810160405280929190818152602001828054600181600116156101000203166002900480156148f15780601f106148c6576101008083540402835291602001916148f1565b820191906000526020600020905b8154815290600101906020018083116148d457829003601f168201915b50505050509250808054600181600116156101000203166002900480601f01602080910402602001604051908101604052809291908181526020018280546001816001161561010002031660029004801561498d5780601f106149625761010080835404028352916020019161498d565b820191906000526020600020905b81548152906001019060200180831161497057829003601f168201915b505050505090508093508194508295505050509250925092565b6149b0336176ce565b565b60006149c83360036162fe90919063ffffffff16565b905090565b806000600d60008381526020019081526020016000206000815481106149ef57fe5b9060005260206000200154905060046006811115614a0957fe5b600c600083815260200190815260200160002060030160009054906101000a900460ff166006811115614a3857fe5b14614a4257600080fd5b826000600d6000838152602001908152602001600020600081548110614a6457fe5b906000526020600020015490506000600c6000838152602001908152602001600020600a01541415614a9557600080fd5b846000600d6000838152602001908152602001600020600081548110614ab757fe5b9060005260206000200154905060003373ffffffffffffffffffffffffffffffffffffffff16600c600084815260200190815260200160002060060160009054906101000a900473ffffffffffffffffffffffffffffffffffffffff1673ffffffffffffffffffffffffffffffffffffffff1614905080614b3757600080fd5b6000600d60008a815260200190815260200160002080549050905060008090505b81811015614bd3576000600d60008c81526020019081526020016000208281548110614b8057fe5b906000526020600020015490506005600c600083815260200190815260200160002060030160006101000a81548160ff02191690836006811115614bc057fe5b0217905550508080600101915050614b58565b507fa8142743f8f70a4c26f3691cf4ed59718381fb2f18070ec52be1f1022d855557896040518082815260200191505060405180910390a1505050505050505050565b6060600d6000838152602001908152602001600020805480602002602001604051908101604052809291908181526020018280548015614c7557602002820191906000526020600020905b815481526020019060010190808311614c61575b50505050509050919050565b60008060606000806000806000600b548911158015614ca1575060008914155b614d13576040517f08c379a000000000000000000000000000000000000000000000000000000000815260040180806020018281038252601a8152602001807f476976656e20534c55204e6f742043726561746564205965742100000000000081525060200191505060405180910390fd5b6000600d60008b81526020019081526020016000206001600d60008d8152602001908152602001600020805490500381548110614d4c57fe5b90600052602060002001549050614d628161517d565b909192939495969750905050809850819950829a50839b50849c50859d50869e5050505050505050600d60008b815260200190815260200160002080549050985050919395975091939597565b600080600080600080614dc0613ca4565b9550614dca6123db565b9450614dd46149b2565b9350614dde614dfc565b9250614de861284f565b9150614df261302d565b9050909192939495565b6000614e123360016162fe90919063ffffffff16565b905090565b8360026003811115614e2557fe5b6009600083815260200190815260200160002060040160009054906101000a900460ff166003811115614e5457fe5b14614e5e57600080fd5b843373ffffffffffffffffffffffffffffffffffffffff166009600083815260200190815260200160002060010160009054906101000a900473ffffffffffffffffffffffffffffffffffffffff1673ffffffffffffffffffffffffffffffffffffffff1614614ecd57600080fd5b8560006002811115614edb57fe5b60096000838152602001908152602001600020600b0160020160009054906101000a900460ff166002811115614f0d57fe5b14614f1757600080fd5b6064841115614f8e576040517f08c379a00000000000000000000000000000000000000000000000000000000081526004018080602001828103825260168152602001807f4d6f7374206265206c657373207468616e20253130300000000000000000000081525060200191505060405180910390fd5b614fba868686600960008c8152602001908152602001600020600b01617728909392919063ffffffff16565b7fcf9b82493d27751c082844bdd5f86709a115d8bbc98b6ebb688d96ff15837cc48787604051808381526020018273ffffffffffffffffffffffffffffffffffffffff1673ffffffffffffffffffffffffffffffffffffffff1681526020019250505060405180910390a150505050505050565b803373ffffffffffffffffffffffffffffffffffffffff166009600083815260200190815260200160002060010160009054906101000a900473ffffffffffffffffffffffffffffffffffffffff1673ffffffffffffffffffffffffffffffffffffffff161461509d57600080fd5b81600160028111156150ab57fe5b60096000838152602001908152602001600020600b0160020160009054906101000a900460ff1660028111156150dd57fe5b146150e757600080fd5b600260096000858152602001908152602001600020600b0160020160006101000a81548160ff0219169083600281111561511d57fe5b0217905550600060096000858152602001908152602001600020600b01600101819055507fa54024b3473fdbaabff7d6742d51ced76d6ec5df786a4b361595bb0623e8d167836040518082815260200191505060405180910390a1505050565b60008060606000806000806000806000600a548b111580156151a0575060008b14155b615212576040517f08c379a000000000000000000000000000000000000000000000000000000000815260040180806020018281038252601a8152602001807f476976656e20504b55204e6f742043726561746564205965742100000000000081525060200191505060405180910390fd5b6000600c60008d8152602001908152602001600020905080600001549a50806002015499506000600681111561524457fe5b8160030160009054906101000a900460ff16600681111561526157fe5b14156152a4576040518060400160405280600c81526020017f4d616e75666163747572656400000000000000000000000000000000000000008152509850615533565b600160068111156152b157fe5b8160030160009054906101000a900460ff1660068111156152ce57fe5b1415615311576040518060400160405280600681526020017f5061636b656400000000000000000000000000000000000000000000000000008152509850615532565b6002600681111561531e57fe5b8160030160009054906101000a900460ff16600681111561533b57fe5b141561537e576040518060400160405280600781526020017f466f7253616c65000000000000000000000000000000000000000000000000008152509850615531565b6003600681111561538b57fe5b8160030160009054906101000a900460ff1660068111156153a857fe5b14156153eb576040518060400160405280600481526020017f536f6c64000000000000000000000000000000000000000000000000000000008152509850615530565b600460068111156153f857fe5b8160030160009054906101000a900460ff16600681111561541557fe5b1415615458576040518060400160405280600781526020017f5368697070656400000000000000000000000000000000000000000000000000815250985061552f565b6005600681111561546557fe5b8160030160009054906101000a900460ff16600681111561548257fe5b14156154c5576040518060400160405280600881526020017f5265636569766564000000000000000000000000000000000000000000000000815250985061552e565b6006808111156154d157fe5b8160030160009054906101000a900460ff1660068111156154ee57fe5b141561552d576040518060400160405280600981526020017f507572636861736564000000000000000000000000000000000000000000000081525098505b5b5b5b5b5b5b8060030160019054906101000a900473ffffffffffffffffffffffffffffffffffffffff1697508060040160009054906101000a900473ffffffffffffffffffffffffffffffffffffffff1696508060050160009054906101000a900473ffffffffffffffffffffffffffffffffffffffff1695508060060160009054906101000a900473ffffffffffffffffffffffffffffffffffffffff169450806007015493508060080154925080600a01549150509193959799509193959799565b6155fb336179e2565b565b61560633617a3c565b565b615610613c4c565b61561957600080fd5b61562281617a96565b50565b61562e33613c2f565b6156a0576040517f08c379a00000000000000000000000000000000000000000000000000000000081526004018080602001828103825260128152602001807f4e6f742041204469737472696275746f7221000000000000000000000000000081525060200191505060405180910390fd5b600760009054906101000a900460ff16156156ba57600080fd5b6156c381613010565b6156cc57600080fd5b6156d4618363565b600c6000600d60008681526020019081526020016000206000815481106156f757fe5b90600052602060002001548152602001908152602001600020604051806101600160405290816000820154815260200160018201548152602001600282015481526020016003820160009054906101000a900460ff16600681111561575857fe5b600681111561576357fe5b81526020016003820160019054906101000a900473ffffffffffffffffffffffffffffffffffffffff1673ffffffffffffffffffffffffffffffffffffffff1673ffffffffffffffffffffffffffffffffffffffff1681526020016004820160009054906101000a900473ffffffffffffffffffffffffffffffffffffffff1673ffffffffffffffffffffffffffffffffffffffff1673ffffffffffffffffffffffffffffffffffffffff1681526020016005820160009054906101000a900473ffffffffffffffffffffffffffffffffffffffff1673ffffffffffffffffffffffffffffffffffffffff1673ffffffffffffffffffffffffffffffffffffffff1681526020016006820160009054906101000a900473ffffffffffffffffffffffffffffffffffffffff1673ffffffffffffffffffffffffffffffffffffffff1673ffffffffffffffffffffffffffffffffffffffff1681526020016007820154815260200160088201548152602001600a820154815250509050600081600001519050600082610100015190506000600d60008781526020019081526020016000208054905090506000818302905060008560800151905081341015615993576040517f08c379a000000000000000000000000000000000000000000000000000000000815260040180806020018281038252600b8152602001807f4e6f7420456e6f7567682100000000000000000000000000000000000000000081525060200191505060405180910390fd5b60008234039050600081146159ea573373ffffffffffffffffffffffffffffffffffffffff166108fc829081150290604051600060405180830381858888f193505050501580156159e8573d6000803e3d6000fd5b505b6159f48989617b90565b6009600087815260200190815260200160002060010160009054906101000a900473ffffffffffffffffffffffffffffffffffffffff1673ffffffffffffffffffffffffffffffffffffffff168273ffffffffffffffffffffffffffffffffffffffff161415615aaa578173ffffffffffffffffffffffffffffffffffffffff166108fc849081150290604051600060405180830381858888f19350505050158015615aa4573d6000803e3d6000fd5b50615bb9565b6000615ad483600960008a8152602001908152602001600020600b0161639090919063ffffffff16565b90506000606485830281615ae457fe5b0490506000600960008a8152602001908152602001600020600b0160000160009054906101000a900473ffffffffffffffffffffffffffffffffffffffff1690508473ffffffffffffffffffffffffffffffffffffffff166108fc839081150290604051600060405180830381858888f19350505050158015615b6b573d6000803e3d6000fd5b508073ffffffffffffffffffffffffffffffffffffffff166108fc8388039081150290604051600060405180830381858888f19350505050158015615bb4573d6000803e3d6000fd5b505050505b505050505050505050565b6000806060806060600080606060008060006008548c1115615c4e576040517f08c379a000000000000000000000000000000000000000000000000000000000815260040180806020018281038252601b8152602001807f476976656e2055445043204e6f7420437265617465642059657421000000000081525060200191505060405180910390fd5b600960008d815260200190815260200160002060010160009054906101000a900473ffffffffffffffffffffffffffffffffffffffff169a50600960008d815260200190815260200160002060020160009054906101000a900473ffffffffffffffffffffffffffffffffffffffff169950600960008d81526020019081526020016000206003018054600181600116156101000203166002900480601f016020809104026020016040519081016040528092919081815260200182805460018160011615610100020316600290048015615d6a5780601f10615d3f57610100808354040283529160200191615d6a565b820191906000526020600020905b815481529060010190602001808311615d4d57829003601f168201915b50505050509850600960008d81526020019081526020016000206005016000018054600181600116156101000203166002900480601f016020809104026020016040519081016040528092919081815260200182805460018160011615610100020316600290048015615e1e5780601f10615df357610100808354040283529160200191615e1e565b820191906000526020600020905b815481529060010190602001808311615e0157829003601f168201915b5050505050975060006003811115615e3257fe5b600960008e815260200190815260200160002060040160009054906101000a900460ff166003811115615e6157fe5b1415615ea4576040518060400160405280600781526020017f4372656174656400000000000000000000000000000000000000000000000000815250965061609e565b60016003811115615eb157fe5b600960008e815260200190815260200160002060040160009054906101000a900460ff166003811115615ee057fe5b1415615f23576040518060400160405280600681526020017f5465737465640000000000000000000000000000000000000000000000000000815250965061609d565b60026003811115615f3057fe5b600960008e815260200190815260200160002060040160009054906101000a900460ff166003811115615f5f57fe5b1415615fa2576040518060400160405280600881526020017f417070726f766564000000000000000000000000000000000000000000000000815250965061609c565b600380811115615fae57fe5b600960008e815260200190815260200160002060040160009054906101000a900460ff166003811115615fdd57fe5b1415616020576040518060400160405280600781526020017f466f7253616c6500000000000000000000000000000000000000000000000000815250965061609b565b60038081111561602c57fe5b600960008e815260200190815260200160002060040160009054906101000a900460ff16600381111561605b57fe5b141561609a576040518060400160405280600781526020017f466f7253616c650000000000000000000000000000000000000000000000000081525096505b5b5b5b5b6160bc600960008e8152602001908152602001600020600b01617ddf565b9350600960008d8152602001908152602001600020600b016001015492506000600960008e81526020019081526020016000206008015414159550600960008d8152602001908152602001600020600801549450600960008d8152602001908152602001600020600901549150616147600960008e8152602001908152602001600020600b01617f2d565b905091939597999b90929496989a50565b60008073ffffffffffffffffffffffffffffffffffffffff168273ffffffffffffffffffffffffffffffffffffffff16141561619357600080fd5b8260050160008373ffffffffffffffffffffffffffffffffffffffff1673ffffffffffffffffffffffffffffffffffffffff16815260200190815260200160002060009054906101000a900460ff16905092915050565b6161fe816000617fd290919063ffffffff16565b8073ffffffffffffffffffffffffffffffffffffffff167fe3f5ed5f263f1f01764a96edfc7d025f511ec5f7d180e8816908b78bcf74f09860405160405180910390a250565b806001600381111561625257fe5b6009600083815260200190815260200160002060040160009054906101000a900460ff16600381111561628157fe5b1461628b57600080fd5b60026009600084815260200190815260200160002060040160006101000a81548160ff021916908360038111156162be57fe5b02179055507f3ad93af63cb7967b23e4fb500b7d7d28b07516325dcf341f88bebf959d82c1cb826040518082815260200191505060405180910390a15050565b60008073ffffffffffffffffffffffffffffffffffffffff168273ffffffffffffffffffffffffffffffffffffffff16141561633957600080fd5b8260000160008373ffffffffffffffffffffffffffffffffffffffff1673ffffffffffffffffffffffffffffffffffffffff16815260200190815260200160002060009054906101000a900460ff16905092915050565b60008073ffffffffffffffffffffffffffffffffffffffff168273ffffffffffffffffffffffffffffffffffffffff1614156163cb57600080fd5b6163d58383616158565b6163de57600080fd5b60008360060160008473ffffffffffffffffffffffffffffffffffffffff1673ffffffffffffffffffffffffffffffffffffffff1681526020019081526020016000205490508360040160008281526020019081526020016000206002015491505092915050565b600860008154809291906001019190505550616460618420565b60085481600001818152505033816020019073ffffffffffffffffffffffffffffffffffffffff16908173ffffffffffffffffffffffffffffffffffffffff168152505033816040019073ffffffffffffffffffffffffffffffffffffffff16908173ffffffffffffffffffffffffffffffffffffffff16815250508481606001819052506000816080019060038111156164f757fe5b9081600381111561650457fe5b815250506040518060600160405280858152602001848152602001838152508160a0018190525060008160c001818152505060018161010001516060018181525050806009600060085481526020019081526020016000206000820151816000015560208201518160010160006101000a81548173ffffffffffffffffffffffffffffffffffffffff021916908373ffffffffffffffffffffffffffffffffffffffff16021790555060408201518160020160006101000a81548173ffffffffffffffffffffffffffffffffffffffff021916908373ffffffffffffffffffffffffffffffffffffffff16021790555060608201518160030190805190602001906166109291906182a5565b5060808201518160040160006101000a81548160ff0219169083600381111561663557fe5b021790555060a082015181600501600082015181600001908051906020019061665f9291906182a5565b50602082015181600101908051906020019061667c9291906182a5565b5060408201518160020190805190602001906166999291906182a5565b50505060c0820151816008015560e0820151816009015561010082015181600b0160008201518160000160006101000a81548173ffffffffffffffffffffffffffffffffffffffff021916908373ffffffffffffffffffffffffffffffffffffffff1602179055506020820151816001015560408201518160020160006101000a81548160ff0219169083600281111561672f57fe5b02179055506060820151816003015550509050507f4bea4fa538d41a7b7fb10bb3405cf3e168122aa3438625bbf0ac6dde64fbdb0c6008546040518082815260200191505060405180910390a15050505050565b6008548411156167fb576040517f08c379a000000000000000000000000000000000000000000000000000000000815260040180806020018281038252601b8152602001807f476976656e2055445043204e6f7420437265617465642059657421000000000081525060200191505060405180910390fd5b61680361825e565b6040518060a001604052803373ffffffffffffffffffffffffffffffffffffffff16815260200142815260200184151581526020018581526020018381525090508060096000878152602001908152602001600020600a0160006009600089815260200190815260200160002060090154815260200190815260200160002060008201518160000160006101000a81548173ffffffffffffffffffffffffffffffffffffffff021916908373ffffffffffffffffffffffffffffffffffffffff1602179055506020820151816001015560408201518160020160006101000a81548160ff021916908315150217905550606082015181600301908051906020019061690f9291906182a5565b50608082015181600401908051906020019061692c9291906182a5565b5090505060096000868152602001908152602001600020600901600081548092919060010191905055506000600381111561696357fe5b6009600087815260200190815260200160002060040160009054906101000a900460ff16600381111561699257fe5b14156169d15760016009600087815260200190815260200160002060040160006101000a81548160ff021916908360038111156169cb57fe5b02179055505b7f81d5f9bced9b9d1723f40796f43346ab2f3d2147b09cc27e573f3eb3b5875864856040518082815260200191505060405180910390a15050505050565b616a2381600161807d90919063ffffffff16565b8073ffffffffffffffffffffffffffffffffffffffff167f561138658ca49a8540dc70dcfe64c9026c1c5b9344642242dd6562970f9c127860405160405180910390a250565b6000600b600081546001019190508190559050616a84618363565b8381600001818152505081816040018181525050600081606001906006811115616aaa57fe5b90816006811115616ab757fe5b8152505033816080019073ffffffffffffffffffffffffffffffffffffffff16908173ffffffffffffffffffffffffffffffffffffffff1681525050338160a0019073ffffffffffffffffffffffffffffffffffffffff16908173ffffffffffffffffffffffffffffffffffffffff168152505060008161014001818152505060008090505b83811015616d48576000600a6000815460010191905081905590508083602001818152505082600c600083815260200190815260200160002060008201518160000155602082015181600101556040820151816002015560608201518160030160006101000a81548160ff02191690836006811115616bb857fe5b021790555060808201518160030160016101000a81548173ffffffffffffffffffffffffffffffffffffffff021916908373ffffffffffffffffffffffffffffffffffffffff16021790555060a08201518160040160006101000a81548173ffffffffffffffffffffffffffffffffffffffff021916908373ffffffffffffffffffffffffffffffffffffffff16021790555060c08201518160050160006101000a81548173ffffffffffffffffffffffffffffffffffffffff021916908373ffffffffffffffffffffffffffffffffffffffff16021790555060e08201518160060160006101000a81548173ffffffffffffffffffffffffffffffffffffffff021916908373ffffffffffffffffffffffffffffffffffffffff1602179055506101008201518160070155610120820151816008015561014082015181600a0155905050600d6000858152602001908152602001600020819080600181540180825580915050906001820390600052602060002001600090919290919091505550508080600101915050616b3d565b507fd29d8a68ca7c8c74be5579719d445aabfe230ed6e6a83aff475a663500eb7609826040518082815260200191505060405180910390a150505050565b616d9a816003617fd290919063ffffffff16565b8073ffffffffffffffffffffffffffffffffffffffff167f126174f6cf49c81cdb4a9214c6b8f037bef55b4ec31e4fc776cea2a1c8a88d5960405160405180910390a250565b616df4816005617fd290919063ffffffff16565b8073ffffffffffffffffffffffffffffffffffffffff167fdb7176e79cffef81cb01767dd0447a0b24bb72ca9778d4b245581086b2a7e6db60405160405180910390a250565b616e4e816006617fd290919063ffffffff16565b8073ffffffffffffffffffffffffffffffffffffffff167fcd265ebaf09df2871cc7bd4133404a235ba12eff2041bb89d9c714a2621c7c7e60405160405180910390a250565b616ea881600661807d90919063ffffffff16565b8073ffffffffffffffffffffffffffffffffffffffff167f6719d08c1888103bea251a4ed56406bd0c3e69723c8a1686e017e7bbe159b6f860405160405180910390a250565b616ef733613aa2565b616f69576040517f08c379a000000000000000000000000000000000000000000000000000000000815260040180806020018281038252600f8152602001807f4e6f74204120436f6e73756d657221000000000000000000000000000000000081525060200191505060405180910390fd5b600760009054906101000a900460ff1615616f8357600080fd5b6000600c60008381526020019081526020016000206007015490506000600c600084815260200190815260200160002060030160019054906101000a900473ffffffffffffffffffffffffffffffffffffffff1690506000600c600085815260200190815260200160002060060160009054906101000a900473ffffffffffffffffffffffffffffffffffffffff16905060006064600585028161702357fe5b04905060006064600186028161703557fe5b049050843410156170ae576040517f08c379a000000000000000000000000000000000000000000000000000000000815260040180806020018281038252600b8152602001807f4e6f7420456e6f7567682100000000000000000000000000000000000000000081525060200191505060405180910390fd5b6000853403905060008114617105573373ffffffffffffffffffffffffffffffffffffffff166108fc829081150290604051600060405180830381858888f19350505050158015617103573d6000803e3d6000fd5b505b61710e87618129565b8473ffffffffffffffffffffffffffffffffffffffff166108fc83850188039081150290604051600060405180830381858888f19350505050158015617158573d6000803e3d6000fd5b508373ffffffffffffffffffffffffffffffffffffffff166108fc849081150290604051600060405180830381858888f1935050505015801561719f573d6000803e3d6000fd5b5050505050505050565b6171bd816004617fd290919063ffffffff16565b8073ffffffffffffffffffffffffffffffffffffffff167fc8ecc453f78c13ccc7596603b61935f29b99dc15bb91b91647e1ccf2469ad00a60405160405180910390a250565b8060038081111561721057fe5b6009600083815260200190815260200160002060040160009054906101000a900460ff16600381111561723f57fe5b1461724957600080fd5b8160096000828152602001908152602001600020600801543410156172d6576040517f08c379a000000000000000000000000000000000000000000000000000000000815260040180806020018281038252600b8152602001807f4e6f7420456e6f7567682100000000000000000000000000000000000000000081525060200191505060405180910390fd5b60026009600085815260200190815260200160002060040160006101000a81548160ff0219169083600381111561730957fe5b0217905550336009600085815260200190815260200160002060010160006101000a81548173ffffffffffffffffffffffffffffffffffffffff021916908373ffffffffffffffffffffffffffffffffffffffff1602179055503360096000858152602001908152602001600020600b0160000160006101000a81548173ffffffffffffffffffffffffffffffffffffffff021916908373ffffffffffffffffffffffffffffffffffffffff1602179055507f761e3276be1dd60429a48581fa8d3df6c90c05fff554645023f8318bc29402b7836040518082815260200191505060405180910390a16000600960008381526020019081526020016000206008015490506000813403905060008114617464573373ffffffffffffffffffffffffffffffffffffffff166108fc829081150290604051600060405180830381858888f19350505050158015617462573d6000803e3d6000fd5b505b5050505050565b816002600381111561747957fe5b6009600083815260200190815260200160002060040160009054906101000a900460ff1660038111156174a857fe5b146174b257600080fd5b82600160028111156174c057fe5b60096000838152602001908152602001600020600b0160020160009054906101000a900460ff1660028111156174f257fe5b146174fc57600080fd5b6175293384600060096000898152602001908152602001600020600b01617728909392919063ffffffff16565b7f74c5d412ef45f2e49816788001b6e27a174bb63e91ade58fd0631869b74a6ec5846040518082815260200191505060405180910390a150505050565b61757a816001617fd290919063ffffffff16565b8073ffffffffffffffffffffffffffffffffffffffff167f2fed5abf6a80d6dfe30b4895481b2fc5d7dce5f8f7b931832f4a2947d5040c7f60405160405180910390a250565b6175d481600261807d90919063ffffffff16565b8073ffffffffffffffffffffffffffffffffffffffff167f97069a05372df648feb174cc125711b2c72a81450a1ab2769c8faf49917d7fd260405160405180910390a250565b61762e81600461807d90919063ffffffff16565b8073ffffffffffffffffffffffffffffffffffffffff167f2860b5ba44f983f8f363ee6eeb3c24cbca3096803fbdd5129b9e253f01cac07660405160405180910390a250565b61768881600361807d90919063ffffffff16565b8073ffffffffffffffffffffffffffffffffffffffff167fddbf200aa634dc3fb81cfd68583dd1040d1c751d335e1d86b631bde3e977fea860405160405180910390a250565b6176e281600061807d90919063ffffffff16565b8073ffffffffffffffffffffffffffffffffffffffff167f28b26e7a3d20aedbc5f8f2ebf7da671c0491723a2b78f47a097b0e46dee0714260405160405180910390a250565b600084600101549050600073ffffffffffffffffffffffffffffffffffffffff168473ffffffffffffffffffffffffffffffffffffffff16141561776b57600080fd5b6177758585616158565b1561777f57600080fd5b6000600281111561778c57fe5b8560020160009054906101000a900460ff1660028111156177a957fe5b141561780f578460000160009054906101000a900473ffffffffffffffffffffffffffffffffffffffff1673ffffffffffffffffffffffffffffffffffffffff163373ffffffffffffffffffffffffffffffffffffffff161461780b57600080fd5b8190505b60028081111561781b57fe5b8560020160009054906101000a900460ff16600281111561783857fe5b141561784457506179dc565b60018560050160008673ffffffffffffffffffffffffffffffffffffffff1673ffffffffffffffffffffffffffffffffffffffff16815260200190815260200160002060006101000a81548160ff0219169083151502179055506178a66184af565b84816000019073ffffffffffffffffffffffffffffffffffffffff16908173ffffffffffffffffffffffffffffffffffffffff168152505083816020018190525081816040018181525050808660040160008860030154815260200190815260200160002060008201518160000160006101000a81548173ffffffffffffffffffffffffffffffffffffffff021916908373ffffffffffffffffffffffffffffffffffffffff160217905550602082015181600101908051906020019061796e9291906182a5565b506040820151816002015590505085600301548660060160008773ffffffffffffffffffffffffffffffffffffffff1673ffffffffffffffffffffffffffffffffffffffff168152602001908152602001600020819055506001866003016000828254019250508190555050505b50505050565b6179f6816002617fd290919063ffffffff16565b8073ffffffffffffffffffffffffffffffffffffffff167fe16181bbb8b138f88a23696ae25f2c63713913e3fc6922b234a08639bf53cbea60405160405180910390a250565b617a5081600561807d90919063ffffffff16565b8073ffffffffffffffffffffffffffffffffffffffff167f71ae26cad02663e3d92efd6ec56031a80d74a20c0ab4183faa8bf262261c9baa60405160405180910390a250565b600073ffffffffffffffffffffffffffffffffffffffff168173ffffffffffffffffffffffffffffffffffffffff161415617ad057600080fd5b8073ffffffffffffffffffffffffffffffffffffffff16600e60009054906101000a900473ffffffffffffffffffffffffffffffffffffffff1673ffffffffffffffffffffffffffffffffffffffff167f8be0079c531659141344cd1fd0a4f28419497f9722a3daafe3b4186f6b6457e060405160405180910390a380600e60006101000a81548173ffffffffffffffffffffffffffffffffffffffff021916908373ffffffffffffffffffffffffffffffffffffffff16021790555050565b816000600d6000838152602001908152602001600020600081548110617bb257fe5b9060005260206000200154905060026006811115617bcc57fe5b600c600083815260200190815260200160002060030160009054906101000a900460ff166006811115617bfb57fe5b14617c0557600080fd5b6000600d600086815260200190815260200160002080549050905060008090505b81811015617da0576000600d60008881526020019081526020016000208281548110617c4e57fe5b906000526020600020015490506003600c600083815260200190815260200160002060030160006101000a81548160ff02191690836006811115617c8e57fe5b021790555033600c600083815260200190815260200160002060030160016101000a81548173ffffffffffffffffffffffffffffffffffffffff021916908373ffffffffffffffffffffffffffffffffffffffff16021790555033600c600083815260200190815260200160002060050160006101000a81548173ffffffffffffffffffffffffffffffffffffffff021916908373ffffffffffffffffffffffffffffffffffffffff16021790555085600c600083815260200190815260200160002060060160006101000a81548173ffffffffffffffffffffffffffffffffffffffff021916908373ffffffffffffffffffffffffffffffffffffffff160217905550508080600101915050617c26565b507f92f64ca637d023f354075a4be751b169c1a8a9ccb6d33cdd0cb3520543995727856040518082815260200191505060405180910390a15050505050565b606060016002811115617dee57fe5b8260020160009054906101000a900460ff166002811115617e0b57fe5b1415617e4e576040518060400160405280600481526020017f4f70656e000000000000000000000000000000000000000000000000000000008152509050617f28565b600280811115617e5a57fe5b8260020160009054906101000a900460ff166002811115617e7757fe5b1415617eba576040518060400160405280600581526020017f436c6f73650000000000000000000000000000000000000000000000000000008152509050617f28565b60006002811115617ec757fe5b8260020160009054906101000a900460ff166002811115617ee457fe5b1415617f27576040518060400160405280600881526020017f52657374726963740000000000000000000000000000000000000000000000008152509050617f28565b5b919050565b6000806000905060008090505b8360030154811015617fc857600073ffffffffffffffffffffffffffffffffffffffff1684600401600083815260200190815260200160002060000160009054906101000a900473ffffffffffffffffffffffffffffffffffffffff1673ffffffffffffffffffffffffffffffffffffffff1614617fbb5781806001019250505b8080600101915050617f3a565b5080915050919050565b600073ffffffffffffffffffffffffffffffffffffffff168173ffffffffffffffffffffffffffffffffffffffff16141561800c57600080fd5b61801682826162fe565b61801f57600080fd5b60008260000160008373ffffffffffffffffffffffffffffffffffffffff1673ffffffffffffffffffffffffffffffffffffffff16815260200190815260200160002060006101000a81548160ff0219169083151502179055505050565b600073ffffffffffffffffffffffffffffffffffffffff168173ffffffffffffffffffffffffffffffffffffffff1614156180b757600080fd5b6180c182826162fe565b156180cb57600080fd5b60018260000160008373ffffffffffffffffffffffffffffffffffffffff1673ffffffffffffffffffffffffffffffffffffffff16815260200190815260200160002060006101000a81548160ff0219169083151502179055505050565b806005600681111561813757fe5b600c600083815260200190815260200160002060030160009054906101000a900460ff16600681111561816657fe5b1461817057600080fd5b816000600c6000838152602001908152602001600020600a0154141561819557600080fd5b6006600c600085815260200190815260200160002060030160006101000a81548160ff021916908360068111156181c857fe5b021790555033600c600085815260200190815260200160002060030160016101000a81548173ffffffffffffffffffffffffffffffffffffffff021916908373ffffffffffffffffffffffffffffffffffffffff1602179055507f653d56639fee6b566a5c804764e9689de38645f0b733df89a36a1b7b42173dd8836040518082815260200191505060405180910390a1505050565b6040518060a00160405280600073ffffffffffffffffffffffffffffffffffffffff1681526020016000815260200160001515815260200160608152602001606081525090565b828054600181600116156101000203166002900490600052602060002090601f016020900481019282601f106182e657805160ff1916838001178555618314565b82800160010185558215618314579182015b828111156183135782518255916020019190600101906182f8565b5b50905061832191906184e6565b5090565b6040518060800160405280600081526020016000815260200160008152602001600073ffffffffffffffffffffffffffffffffffffffff1681525090565b6040518061016001604052806000815260200160008152602001600081526020016000600681111561839157fe5b8152602001600073ffffffffffffffffffffffffffffffffffffffff168152602001600073ffffffffffffffffffffffffffffffffffffffff168152602001600073ffffffffffffffffffffffffffffffffffffffff168152602001600073ffffffffffffffffffffffffffffffffffffffff1681526020016000815260200160008152602001600081525090565b60405180610120016040528060008152602001600073ffffffffffffffffffffffffffffffffffffffff168152602001600073ffffffffffffffffffffffffffffffffffffffff168152602001606081526020016000600381111561848157fe5b815260200161848e61850b565b815260200160008152602001600081526020016184a961852c565b81525090565b6040518060600160405280600073ffffffffffffffffffffffffffffffffffffffff16815260200160608152602001600081525090565b61850891905b808211156185045760008160009055506001016184ec565b5090565b90565b60405180606001604052806060815260200160608152602001606081525090565b6040518060800160405280600073ffffffffffffffffffffffffffffffffffffffff168152602001600081526020016000600281111561856857fe5b815260200160008152509056fea265627a7a72315820732b62562b722ad678bb49509c762b1f661767ba16c3766e099e657101d7b49864736f6c63430005110032",
  "source": "pragma solidity ^0.5.0;\n\n/// Import supply chain `Base` contract\nimport \"../Base/SupplyChain.sol\";\n\n/// Import `Ownable` contract from OpenZeppelin package\nimport \"openzeppelin-solidity/contracts/ownership/Ownable.sol\";\n\n/// Import `Secondary` contract from OpenZeppelin package\nimport \"openzeppelin-solidity/contracts/ownership/Secondary.sol\";\n\n\n/// @author Rakshith Vikramraj\n/// @title Main Chain Contract \n/// @dev  **TODO** this contract will use Proxy to make the suply chain upgradable\ncontract MainChain is SupplyChain, Ownable, Secondary {\n    constructor() public {\n\n    }\n\n    // Kill function if required\n    function kill() public onlyOwner() {\n        selfdestruct(msg.sender);\n    }\n\n    function purchaseDrug (uint _pku)\n        public\n        payable\n    {\n        super.purchaseDrug(_pku);\n\n        uint price = dItems[_pku].price;\n        address payable developerId = address(uint160(owner()));\n        uint developerBounty = price*1 /100;\n        developerId.transfer(developerBounty);\n\n    }\n\n}\n",
  "sourcePath": "/Users/rakshith/Workspace/blockchain/drug-supply-chain/contracts/Core/MainChain.sol",
  "compiler": {
    "name": "solc",
    "version": "0.5.17+commit.d19bba13.Emscripten.clang"
  },
  "schemaVersion": "3.4.0",
  "updatedAt": "2021-04-30T19:29:22.364Z",
  "networkType": "ethereum",
  "devdoc": {
    "author": "Rakshith Vikramraj",
    "details": "**TODO** this contract will use Proxy to make the suply chain upgradable",
    "methods": {
      "addRegulator(address)": {
        "params": {
          "account": "address to be Added"
        }
      },
      "amIConsumer()": {
        "return": "boolean for caller address state in `_consumers` Role"
      },
      "amIDesigner()": {
        "return": "boolean for caller address state in `_designers` Role"
      },
      "amIDistributor()": {
        "return": "boolean for caller address state in `_distributors` Role"
      },
      "amIManufacturer()": {
        "return": "boolean for caller address state in `_manufacturers` Role"
      },
      "amIRegulator()": {
        "return": "boolean for caller address state in `_regulators` Role"
      },
      "amIRetailer()": {
        "return": "boolean for caller address state in `_retailers` Role"
      },
      "isConsumer(address)": {
        "params": {
          "account": "address to be checked"
        },
        "return": "boolean for this address state in `_consumers` Role"
      },
      "isDesigner(address)": {
        "params": {
          "account": "address to be checked"
        },
        "return": "boolean for this address state in `_designers` Role"
      },
      "isDistributor(address)": {
        "params": {
          "account": "address to be checked"
        },
        "return": "boolean for this address state in `_distributors` Role"
      },
      "isManufacturer(address)": {
        "params": {
          "account": "address to be checked"
        },
        "return": "boolean for this address state in `_manufacturers` Role"
      },
      "isOwner()": {
        "return": "true if `msg.sender` is the owner of the contract."
      },
      "isRegulator(address)": {
        "params": {
          "account": "address to be checked"
        },
        "return": "boolean for this address state in `_regulators` Role"
      },
      "isRetailer(address)": {
        "params": {
          "account": "address to be checked"
        },
        "return": "boolean for this address state in `_retailers` Role"
      },
      "owner()": {
        "return": "the address of the owner."
      },
      "pause()": {
        "details": "called by the owner to pause, triggers stopped state"
      },
      "paused()": {
        "return": "true if the contract is paused, false otherwise."
      },
      "primary()": {
        "return": "the address of the primary."
      },
      "renounceOwnership()": {
        "details": "Allows the current owner to relinquish control of the contract."
      },
      "transferOwnership(address)": {
        "details": "Allows the current owner to transfer control of the contract to a newOwner.",
        "params": {
          "newOwner": "The address to transfer ownership to."
        }
      },
      "transferPrimary(address)": {
        "details": "Transfers contract to a new primary.",
        "params": {
          "recipient": "The address of new primary."
        }
      },
      "unpause()": {
        "details": "called by the owner to unpause, returns to normal state"
      },
      "whoAmI()": {
        "return": "array contining every role with its state as boolean"
      }
    },
    "title": "Main Chain Contract "
  },
  "userdoc": {
    "methods": {
      "addDrugsLoud(uint256,uint256)": {
        "notice": "Function helps manufacturer to add Drug Loud for sale"
      },
      "addRegulator(address)": {
        "notice": "Function to add account to regulator role`onlyRegulator` modifier  assignd to sure that the whole role groub regulated"
      },
      "addTestCase(uint256,string,bool,string)": {
        "notice": "Add Test Case for Drug Design by currentOwner"
      },
      "amIConsumer()": {
        "notice": "Function to check caller `msg.sender` if he has consumer role"
      },
      "amIDesigner()": {
        "notice": "Function to check caller `msg.sender` if he has designer role"
      },
      "amIDistributor()": {
        "notice": "Function to check caller `msg.sender` if he has distributor role"
      },
      "amIManufacturer()": {
        "notice": "Function to check caller `msg.sender` if he has manufacturer role"
      },
      "amIRegulator()": {
        "notice": "Function to check caller `msg.sender` if he has regulator role"
      },
      "amIRetailer()": {
        "notice": "Function to check caller `msg.sender` if he has retailer role"
      },
      "assignMeAsConsumer()": {
        "notice": "Function to assign caller `msg.sender` to consumer role"
      },
      "assignMeAsDesigner()": {
        "notice": "Function to assign caller `msg.sender` to designer roledesigner allways should be a menufacturer, after checking isManufacturer add it if not"
      },
      "assignMeAsDistributor()": {
        "notice": "Function to assign caller `msg.sender` to distributor role"
      },
      "assignMeAsManufacturer()": {
        "notice": "Function to assign caller `msg.sender` to manufacturer role"
      },
      "assignMeAsRetailer()": {
        "notice": "Function to assign caller `msg.sender` to retailer role"
      },
      "buildPartnerContract(uint256,string)": {
        "notice": "Function to build a manufacturer partner contract"
      },
      "buildRestrictPartnerContract(uint256,address,string,uint256)": {
        "notice": "Function to build a manufacturer partner contract by the currentOwner when its restracted"
      },
      "buyDrugsLoud(uint256,address)": {
        "notice": "Function helps distributor to buy a Drug Loud it can be quantity only order but i think its not important for now"
      },
      "closeManufactPartnership(uint256)": {
        "notice": "Function to close manufacturer partnership"
      },
      "designDrug(string,string,string,string)": {
        "notice": "Function helps Designer to establish a new Drug Design"
      },
      "fetchDrugLoaudData(uint256)": {
        "notice": "public data featching functions"
      },
      "isConsumer(address)": {
        "notice": "Function to check even he has consumer role or notuses'Roles' library's internal function `has()` to check, refer to library for more detail"
      },
      "isDesigner(address)": {
        "notice": "Function to check even he has designer role or notuses'Roles' library's internal function `has()` to check, refer to library for more detail"
      },
      "isDistributor(address)": {
        "notice": "Function to check even he has distributor role or notuses'Roles' library's internal function `has()` to check, refer to library for more detail"
      },
      "isManufacturer(address)": {
        "notice": "Function to check even he has manufacturer role or notuses'Roles' library's internal function `has()` to check, refer to library for more detail"
      },
      "isRegulator(address)": {
        "notice": "Function to check even he has regulator role or notuses'Roles' library's internal function `has()` to check, refer to library for more detail"
      },
      "isRetailer(address)": {
        "notice": "Function to check even he has retailer role or notuses'Roles' library's internal function `has()` to check, refer to library for more detail"
      },
      "manufacturDrugsLoud(uint256,uint256)": {
        "notice": "Function helps manufacturer to manufactur a new Drug Loud"
      },
      "openManufactPartnership(uint256,uint256)": {
        "notice": "Function to open partnership for manufacturer"
      },
      "packDrugsLoud(uint256)": {
        "notice": "Function helps manufacturer to Pack a isManufactured Drug Loud"
      },
      "purchaseDrugDesign(uint256)": {
        "notice": "Function to purchase a drug design"
      },
      "receiveDrugsLoud(uint256)": {
        "notice": "Function helps manufacturer to Pack a isManufactured Drug Loud"
      },
      "renounceMeFromConsumer()": {
        "notice": "Function to renounce caller `msg.sender` from consumer role"
      },
      "renounceMeFromDesigner()": {
        "notice": "Function to renounce caller `msg.sender` from designer role"
      },
      "renounceMeFromDistributor()": {
        "notice": "Function to renounce caller `msg.sender` from distributor role"
      },
      "renounceMeFromManufacturer()": {
        "notice": "Function to renounce caller `msg.sender` from manufacturer role"
      },
      "renounceMeFromRegulator()": {
        "notice": "Function to renounce caller `msg.sender` from regulator role"
      },
      "renounceMeFromRetailer()": {
        "notice": "Function to renounce caller `msg.sender` from retailer role"
      },
      "renounceOwnership()": {
        "notice": "Renouncing to ownership will leave the contract without an owner. It will not be possible to call the functions with the `onlyOwner` modifier anymore."
      },
      "restrictManufactPartnership(uint256)": {
        "notice": "Function to open partnership for manufacturer"
      },
      "shipDrugsLoud(uint256)": {
        "notice": "Function helps manufacturer to ship a Drug Loud"
      },
      "upForSale(uint256,uint256)": {
        "notice": "Function to sale a drug design"
      },
      "updateDrugsLoudShippmentEnv(uint256,uint256,uint256)": {
        "notice": "Function helps manufacturer and distributor to update Drug Loud envuirment"
      },
      "updateDrugsLoudStockEnv(uint256,uint256,uint256)": {
        "notice": "Function helps manufacturer to Pack a isManufactured Drug Loud"
      },
      "whoAmI()": {
        "notice": "Function to check all roles for the caller"
      }
    }
  }
}