{
  "contractName": "Rolable",
  "abi": [
    {
      "anonymous": false,
      "inputs": [
        {
          "indexed": true,
          "internalType": "address",
          "name": "account",
          "type": "address"
        }
      ],
      "name": "ConsumerAdded",
      "type": "event"
    },
    {
      "anonymous": false,
      "inputs": [
        {
          "indexed": true,
          "internalType": "address",
          "name": "account",
          "type": "address"
        }
      ],
      "name": "ConsumerRemoved",
      "type": "event"
    },
    {
      "anonymous": false,
      "inputs": [
        {
          "indexed": true,
          "internalType": "address",
          "name": "account",
          "type": "address"
        }
      ],
      "name": "DesignerAdded",
      "type": "event"
    },
    {
      "anonymous": false,
      "inputs": [
        {
          "indexed": true,
          "internalType": "address",
          "name": "account",
          "type": "address"
        }
      ],
      "name": "DesignerRemoved",
      "type": "event"
    },
    {
      "anonymous": false,
      "inputs": [
        {
          "indexed": true,
          "internalType": "address",
          "name": "account",
          "type": "address"
        }
      ],
      "name": "DistributorAdded",
      "type": "event"
    },
    {
      "anonymous": false,
      "inputs": [
        {
          "indexed": true,
          "internalType": "address",
          "name": "account",
          "type": "address"
        }
      ],
      "name": "DistributorRemoved",
      "type": "event"
    },
    {
      "anonymous": false,
      "inputs": [
        {
          "indexed": true,
          "internalType": "address",
          "name": "account",
          "type": "address"
        }
      ],
      "name": "ManufacturerAdded",
      "type": "event"
    },
    {
      "anonymous": false,
      "inputs": [
        {
          "indexed": true,
          "internalType": "address",
          "name": "account",
          "type": "address"
        }
      ],
      "name": "ManufacturerRemoved",
      "type": "event"
    },
    {
      "anonymous": false,
      "inputs": [
        {
          "indexed": true,
          "internalType": "address",
          "name": "account",
          "type": "address"
        }
      ],
      "name": "RegulatorAdded",
      "type": "event"
    },
    {
      "anonymous": false,
      "inputs": [
        {
          "indexed": true,
          "internalType": "address",
          "name": "account",
          "type": "address"
        }
      ],
      "name": "RegulatorRemoved",
      "type": "event"
    },
    {
      "anonymous": false,
      "inputs": [
        {
          "indexed": true,
          "internalType": "address",
          "name": "account",
          "type": "address"
        }
      ],
      "name": "RetailerAdded",
      "type": "event"
    },
    {
      "anonymous": false,
      "inputs": [
        {
          "indexed": true,
          "internalType": "address",
          "name": "account",
          "type": "address"
        }
      ],
      "name": "RetailerRemoved",
      "type": "event"
    },
    {
      "constant": false,
      "inputs": [
        {
          "internalType": "address",
          "name": "account",
          "type": "address"
        }
      ],
      "name": "addRegulator",
      "outputs": [],
      "payable": false,
      "stateMutability": "nonpayable",
      "type": "function"
    },
    {
      "constant": true,
      "inputs": [],
      "name": "amIConsumer",
      "outputs": [
        {
          "internalType": "bool",
          "name": "",
          "type": "bool"
        }
      ],
      "payable": false,
      "stateMutability": "view",
      "type": "function"
    },
    {
      "constant": true,
      "inputs": [],
      "name": "amIDesigner",
      "outputs": [
        {
          "internalType": "bool",
          "name": "",
          "type": "bool"
        }
      ],
      "payable": false,
      "stateMutability": "view",
      "type": "function"
    },
    {
      "constant": true,
      "inputs": [],
      "name": "amIDistributor",
      "outputs": [
        {
          "internalType": "bool",
          "name": "",
          "type": "bool"
        }
      ],
      "payable": false,
      "stateMutability": "view",
      "type": "function"
    },
    {
      "constant": true,
      "inputs": [],
      "name": "amIManufacturer",
      "outputs": [
        {
          "internalType": "bool",
          "name": "",
          "type": "bool"
        }
      ],
      "payable": false,
      "stateMutability": "view",
      "type": "function"
    },
    {
      "constant": true,
      "inputs": [],
      "name": "amIRegulator",
      "outputs": [
        {
          "internalType": "bool",
          "name": "",
          "type": "bool"
        }
      ],
      "payable": false,
      "stateMutability": "view",
      "type": "function"
    },
    {
      "constant": true,
      "inputs": [],
      "name": "amIRetailer",
      "outputs": [
        {
          "internalType": "bool",
          "name": "",
          "type": "bool"
        }
      ],
      "payable": false,
      "stateMutability": "view",
      "type": "function"
    },
    {
      "constant": false,
      "inputs": [],
      "name": "assignMeAsConsumer",
      "outputs": [],
      "payable": false,
      "stateMutability": "nonpayable",
      "type": "function"
    },
    {
      "constant": false,
      "inputs": [],
      "name": "assignMeAsDesigner",
      "outputs": [],
      "payable": false,
      "stateMutability": "nonpayable",
      "type": "function"
    },
    {
      "constant": false,
      "inputs": [],
      "name": "assignMeAsDistributor",
      "outputs": [],
      "payable": false,
      "stateMutability": "nonpayable",
      "type": "function"
    },
    {
      "constant": false,
      "inputs": [],
      "name": "assignMeAsManufacturer",
      "outputs": [],
      "payable": false,
      "stateMutability": "nonpayable",
      "type": "function"
    },
    {
      "constant": false,
      "inputs": [],
      "name": "assignMeAsRetailer",
      "outputs": [],
      "payable": false,
      "stateMutability": "nonpayable",
      "type": "function"
    },
    {
      "constant": true,
      "inputs": [
        {
          "internalType": "address",
          "name": "account",
          "type": "address"
        }
      ],
      "name": "isConsumer",
      "outputs": [
        {
          "internalType": "bool",
          "name": "",
          "type": "bool"
        }
      ],
      "payable": false,
      "stateMutability": "view",
      "type": "function"
    },
    {
      "constant": true,
      "inputs": [
        {
          "internalType": "address",
          "name": "account",
          "type": "address"
        }
      ],
      "name": "isDesigner",
      "outputs": [
        {
          "internalType": "bool",
          "name": "",
          "type": "bool"
        }
      ],
      "payable": false,
      "stateMutability": "view",
      "type": "function"
    },
    {
      "constant": true,
      "inputs": [
        {
          "internalType": "address",
          "name": "account",
          "type": "address"
        }
      ],
      "name": "isDistributor",
      "outputs": [
        {
          "internalType": "bool",
          "name": "",
          "type": "bool"
        }
      ],
      "payable": false,
      "stateMutability": "view",
      "type": "function"
    },
    {
      "constant": true,
      "inputs": [
        {
          "internalType": "address",
          "name": "account",
          "type": "address"
        }
      ],
      "name": "isManufacturer",
      "outputs": [
        {
          "internalType": "bool",
          "name": "",
          "type": "bool"
        }
      ],
      "payable": false,
      "stateMutability": "view",
      "type": "function"
    },
    {
      "constant": true,
      "inputs": [
        {
          "internalType": "address",
          "name": "account",
          "type": "address"
        }
      ],
      "name": "isRegulator",
      "outputs": [
        {
          "internalType": "bool",
          "name": "",
          "type": "bool"
        }
      ],
      "payable": false,
      "stateMutability": "view",
      "type": "function"
    },
    {
      "constant": true,
      "inputs": [
        {
          "internalType": "address",
          "name": "account",
          "type": "address"
        }
      ],
      "name": "isRetailer",
      "outputs": [
        {
          "internalType": "bool",
          "name": "",
          "type": "bool"
        }
      ],
      "payable": false,
      "stateMutability": "view",
      "type": "function"
    },
    {
      "constant": false,
      "inputs": [],
      "name": "renounceMeFromConsumer",
      "outputs": [],
      "payable": false,
      "stateMutability": "nonpayable",
      "type": "function"
    },
    {
      "constant": false,
      "inputs": [],
      "name": "renounceMeFromDesigner",
      "outputs": [],
      "payable": false,
      "stateMutability": "nonpayable",
      "type": "function"
    },
    {
      "constant": false,
      "inputs": [],
      "name": "renounceMeFromDistributor",
      "outputs": [],
      "payable": false,
      "stateMutability": "nonpayable",
      "type": "function"
    },
    {
      "constant": false,
      "inputs": [],
      "name": "renounceMeFromManufacturer",
      "outputs": [],
      "payable": false,
      "stateMutability": "nonpayable",
      "type": "function"
    },
    {
      "constant": false,
      "inputs": [],
      "name": "renounceMeFromRegulator",
      "outputs": [],
      "payable": false,
      "stateMutability": "nonpayable",
      "type": "function"
    },
    {
      "constant": false,
      "inputs": [],
      "name": "renounceMeFromRetailer",
      "outputs": [],
      "payable": false,
      "stateMutability": "nonpayable",
      "type": "function"
    },
    {
      "constant": true,
      "inputs": [],
      "name": "whoAmI",
      "outputs": [
        {
          "internalType": "bool",
          "name": "consumer",
          "type": "bool"
        },
        {
          "internalType": "bool",
          "name": "retailer",
          "type": "bool"
        },
        {
          "internalType": "bool",
          "name": "distributor",
          "type": "bool"
        },
        {
          "internalType": "bool",
          "name": "manufacturer",
          "type": "bool"
        },
        {
          "internalType": "bool",
          "name": "regulator",
          "type": "bool"
        },
        {
          "internalType": "bool",
          "name": "designer",
          "type": "bool"
        }
      ],
      "payable": false,
      "stateMutability": "view",
      "type": "function"
    }
  ],
  "bytecode": "0x608060405262000015336200007060201b60201c565b6200002633620000d160201b60201c565b62000037336200013260201b60201c565b62000048336200019360201b60201c565b6200005933620001f460201b60201c565b6200006a336200025560201b60201c565b620003ff565b6200008b816000620002b660201b62000d251790919060201c565b8073ffffffffffffffffffffffffffffffffffffffff167f28b26e7a3d20aedbc5f8f2ebf7da671c0491723a2b78f47a097b0e46dee0714260405160405180910390a250565b620000ec816001620002b660201b62000d251790919060201c565b8073ffffffffffffffffffffffffffffffffffffffff167f561138658ca49a8540dc70dcfe64c9026c1c5b9344642242dd6562970f9c127860405160405180910390a250565b6200014d816002620002b660201b62000d251790919060201c565b8073ffffffffffffffffffffffffffffffffffffffff167f97069a05372df648feb174cc125711b2c72a81450a1ab2769c8faf49917d7fd260405160405180910390a250565b620001ae816003620002b660201b62000d251790919060201c565b8073ffffffffffffffffffffffffffffffffffffffff167fddbf200aa634dc3fb81cfd68583dd1040d1c751d335e1d86b631bde3e977fea860405160405180910390a250565b6200020f816004620002b660201b62000d251790919060201c565b8073ffffffffffffffffffffffffffffffffffffffff167f2860b5ba44f983f8f363ee6eeb3c24cbca3096803fbdd5129b9e253f01cac07660405160405180910390a250565b62000270816005620002b660201b62000d251790919060201c565b8073ffffffffffffffffffffffffffffffffffffffff167f71ae26cad02663e3d92efd6ec56031a80d74a20c0ab4183faa8bf262261c9baa60405160405180910390a250565b600073ffffffffffffffffffffffffffffffffffffffff168173ffffffffffffffffffffffffffffffffffffffff161415620002f157600080fd5b6200030382826200036c60201b60201c565b156200030e57600080fd5b60018260000160008373ffffffffffffffffffffffffffffffffffffffff1673ffffffffffffffffffffffffffffffffffffffff16815260200190815260200160002060006101000a81548160ff0219169083151502179055505050565b60008073ffffffffffffffffffffffffffffffffffffffff168273ffffffffffffffffffffffffffffffffffffffff161415620003a857600080fd5b8260000160008373ffffffffffffffffffffffffffffffffffffffff1673ffffffffffffffffffffffffffffffffffffffff16815260200190815260200160002060009054906101000a900460ff16905092915050565b610e06806200040f6000396000f3fe608060405234801561001057600080fd5b50600436106101735760003560e01c80638f0c86fa116100de578063c4f2201111610097578063da91254c11610071578063da91254c146104e8578063e1d6f86f14610541578063eda0baa814610563578063ef2014771461056d57610173565b8063c4f22011146104b2578063c82d9afc146104bc578063cf196671146104c657610173565b80638f0c86fa146103805780639af687a6146103dc578063a40e210f146103fe578063a4a418b114610408578063a4f03e2314610412578063ac63f3c71461046e57610173565b806355edd88b1161013057806355edd88b146102885780635da09b88146102925780635ec5b728146102ee57806369d095c114610310578063834ff7391461031a578063879581ba1461037657610173565b8063118f74f51461017857806317d4a491146101825780631d375b0c146101de57806335c96e971461020057806348c149bd1461022257806354fc91691461022c575b600080fd5b610180610577565b005b6101c46004803603602081101561019857600080fd5b81019080803573ffffffffffffffffffffffffffffffffffffffff169060200190929190505050610582565b604051808215151515815260200191505060405180910390f35b6101e661059f565b604051808215151515815260200191505060405180910390f35b6102086105ba565b604051808215151515815260200191505060405180910390f35b61022a6105d5565b005b61026e6004803603602081101561024257600080fd5b81019080803573ffffffffffffffffffffffffffffffffffffffff1690602001909291905050506105e0565b604051808215151515815260200191505060405180910390f35b6102906105fd565b005b6102d4600480360360208110156102a857600080fd5b81019080803573ffffffffffffffffffffffffffffffffffffffff169060200190929190505050610608565b604051808215151515815260200191505060405180910390f35b6102f6610625565b604051808215151515815260200191505060405180910390f35b610318610640565b005b61035c6004803603602081101561033057600080fd5b81019080803573ffffffffffffffffffffffffffffffffffffffff16906020019092919050505061064b565b604051808215151515815260200191505060405180910390f35b61037e610668565b005b6103c26004803603602081101561039657600080fd5b81019080803573ffffffffffffffffffffffffffffffffffffffff169060200190929190505050610673565b604051808215151515815260200191505060405180910390f35b6103e4610690565b604051808215151515815260200191505060405180910390f35b6104066106ab565b005b6104106106b6565b005b6104546004803603602081101561042857600080fd5b81019080803573ffffffffffffffffffffffffffffffffffffffff1690602001909291905050506106d8565b604051808215151515815260200191505060405180910390f35b6104b06004803603602081101561048457600080fd5b81019080803573ffffffffffffffffffffffffffffffffffffffff1690602001909291905050506106f5565b005b6104ba610701565b005b6104c461070c565b005b6104ce610717565b604051808215151515815260200191505060405180910390f35b6104f0610732565b60405180871515151581526020018615151515815260200185151515158152602001841515151581526020018315151515815260200182151515158152602001965050505050505060405180910390f35b61054961077f565b604051808215151515815260200191505060405180910390f35b61056b61079a565b005b6105756107a5565b005b610580336107b0565b565b600061059882600161080a90919063ffffffff16565b9050919050565b60006105b533600561080a90919063ffffffff16565b905090565b60006105d033600461080a90919063ffffffff16565b905090565b6105de3361089c565b565b60006105f682600461080a90919063ffffffff16565b9050919050565b610606336108f6565b565b600061061e82600561080a90919063ffffffff16565b9050919050565b600061063b33600261080a90919063ffffffff16565b905090565b61064933610950565b565b600061066182600061080a90919063ffffffff16565b9050919050565b610671336109aa565b565b600061068982600361080a90919063ffffffff16565b9050919050565b60006106a633600061080a90919063ffffffff16565b905090565b6106b433610a04565b565b6106bf33610a5e565b6106c833610582565b6106d6576106d53361089c565b5b565b60006106ee82600261080a90919063ffffffff16565b9050919050565b6106fe81610ab8565b50565b61070a33610b12565b565b61071533610b6c565b565b600061072d33600361080a90919063ffffffff16565b905090565b600080600080600080610743610690565b955061074d61059f565b9450610757610717565b935061076161077f565b925061076b6105ba565b9150610775610625565b9050909192939495565b600061079533600161080a90919063ffffffff16565b905090565b6107a333610bc6565b565b6107ae33610c20565b565b6107c4816000610c7a90919063ffffffff16565b8073ffffffffffffffffffffffffffffffffffffffff167fe3f5ed5f263f1f01764a96edfc7d025f511ec5f7d180e8816908b78bcf74f09860405160405180910390a250565b60008073ffffffffffffffffffffffffffffffffffffffff168273ffffffffffffffffffffffffffffffffffffffff16141561084557600080fd5b8260000160008373ffffffffffffffffffffffffffffffffffffffff1673ffffffffffffffffffffffffffffffffffffffff16815260200190815260200160002060009054906101000a900460ff16905092915050565b6108b0816001610d2590919063ffffffff16565b8073ffffffffffffffffffffffffffffffffffffffff167f561138658ca49a8540dc70dcfe64c9026c1c5b9344642242dd6562970f9c127860405160405180910390a250565b61090a816003610c7a90919063ffffffff16565b8073ffffffffffffffffffffffffffffffffffffffff167f126174f6cf49c81cdb4a9214c6b8f037bef55b4ec31e4fc776cea2a1c8a88d5960405160405180910390a250565b610964816005610c7a90919063ffffffff16565b8073ffffffffffffffffffffffffffffffffffffffff167fdb7176e79cffef81cb01767dd0447a0b24bb72ca9778d4b245581086b2a7e6db60405160405180910390a250565b6109be816004610c7a90919063ffffffff16565b8073ffffffffffffffffffffffffffffffffffffffff167fc8ecc453f78c13ccc7596603b61935f29b99dc15bb91b91647e1ccf2469ad00a60405160405180910390a250565b610a18816001610c7a90919063ffffffff16565b8073ffffffffffffffffffffffffffffffffffffffff167f2fed5abf6a80d6dfe30b4895481b2fc5d7dce5f8f7b931832f4a2947d5040c7f60405160405180910390a250565b610a72816002610d2590919063ffffffff16565b8073ffffffffffffffffffffffffffffffffffffffff167f97069a05372df648feb174cc125711b2c72a81450a1ab2769c8faf49917d7fd260405160405180910390a250565b610acc816004610d2590919063ffffffff16565b8073ffffffffffffffffffffffffffffffffffffffff167f2860b5ba44f983f8f363ee6eeb3c24cbca3096803fbdd5129b9e253f01cac07660405160405180910390a250565b610b26816003610d2590919063ffffffff16565b8073ffffffffffffffffffffffffffffffffffffffff167fddbf200aa634dc3fb81cfd68583dd1040d1c751d335e1d86b631bde3e977fea860405160405180910390a250565b610b80816000610d2590919063ffffffff16565b8073ffffffffffffffffffffffffffffffffffffffff167f28b26e7a3d20aedbc5f8f2ebf7da671c0491723a2b78f47a097b0e46dee0714260405160405180910390a250565b610bda816002610c7a90919063ffffffff16565b8073ffffffffffffffffffffffffffffffffffffffff167fe16181bbb8b138f88a23696ae25f2c63713913e3fc6922b234a08639bf53cbea60405160405180910390a250565b610c34816005610d2590919063ffffffff16565b8073ffffffffffffffffffffffffffffffffffffffff167f71ae26cad02663e3d92efd6ec56031a80d74a20c0ab4183faa8bf262261c9baa60405160405180910390a250565b600073ffffffffffffffffffffffffffffffffffffffff168173ffffffffffffffffffffffffffffffffffffffff161415610cb457600080fd5b610cbe828261080a565b610cc757600080fd5b60008260000160008373ffffffffffffffffffffffffffffffffffffffff1673ffffffffffffffffffffffffffffffffffffffff16815260200190815260200160002060006101000a81548160ff0219169083151502179055505050565b600073ffffffffffffffffffffffffffffffffffffffff168173ffffffffffffffffffffffffffffffffffffffff161415610d5f57600080fd5b610d69828261080a565b15610d7357600080fd5b60018260000160008373ffffffffffffffffffffffffffffffffffffffff1673ffffffffffffffffffffffffffffffffffffffff16815260200190815260200160002060006101000a81548160ff021916908315150217905550505056fea265627a7a7231582094eeadb1df0bc153c7fe6cce1ce98cbff2d900e67599c7dea40d00b5f61bc77e64736f6c63430005110032",
  "source": "pragma solidity ^0.5.0;\n\n/// Import all Roles\nimport \"./Roles/Consumer.sol\";\nimport \"./Roles/Designer.sol\";\nimport \"./Roles/Distributor.sol\";\nimport \"./Roles/Manufacturer.sol\";\nimport \"./Roles/Regulator.sol\";\nimport \"./Roles/Retailer.sol\";\n\n\n/// @author Khalid F.Sh\n/// @title Role Ability Contract\n/// @dev contract for adopting all roles in access control\ncontract Rolable is Consumer, Designer, Distributor, Regulator, Retailer {\n\n    /// Function to check all roles for the caller\n    /// @return array contining every role with its state as boolean\n    function whoAmI() public view returns(\n        bool consumer,\n        bool retailer,\n        bool distributor,\n        bool manufacturer,\n        bool regulator,\n        bool designer\n    )\n    {\n        consumer = amIConsumer();\n        retailer = amIRetailer();\n        distributor = amIDistributor();\n        manufacturer = amIManufacturer();\n        regulator = amIRegulator();\n        designer = amIDesigner();\n    }\n}\n",
  "sourcePath": "/Users/rakshith/Workspace/blockchain/drug-supply-chain/contracts/AccessControl/Rolable.sol",
  "compiler": {
    "name": "solc",
    "version": "0.5.17+commit.d19bba13.Emscripten.clang"
  },
  "schemaVersion": "3.3.0",
  "updatedAt": "2020-10-16T06:31:28.883Z",
  "devdoc": {
    "author": "Khalid F.Sh",
    "details": "contract for adopting all roles in access control",
    "methods": {
      "addRegulator(address)": {
        "params": {
          "account": "address to be Added"
        }
      },
      "amIConsumer()": {
        "return": "boolean for caller address state in `_consumers` Role"
      },
      "amIDesigner()": {
        "return": "boolean for caller address state in `_designers` Role"
      },
      "amIDistributor()": {
        "return": "boolean for caller address state in `_distributors` Role"
      },
      "amIManufacturer()": {
        "return": "boolean for caller address state in `_manufacturers` Role"
      },
      "amIRegulator()": {
        "return": "boolean for caller address state in `_regulators` Role"
      },
      "amIRetailer()": {
        "return": "boolean for caller address state in `_retailers` Role"
      },
      "isConsumer(address)": {
        "params": {
          "account": "address to be checked"
        },
        "return": "boolean for this address state in `_consumers` Role"
      },
      "isDesigner(address)": {
        "params": {
          "account": "address to be checked"
        },
        "return": "boolean for this address state in `_designers` Role"
      },
      "isDistributor(address)": {
        "params": {
          "account": "address to be checked"
        },
        "return": "boolean for this address state in `_distributors` Role"
      },
      "isManufacturer(address)": {
        "params": {
          "account": "address to be checked"
        },
        "return": "boolean for this address state in `_manufacturers` Role"
      },
      "isRegulator(address)": {
        "params": {
          "account": "address to be checked"
        },
        "return": "boolean for this address state in `_regulators` Role"
      },
      "isRetailer(address)": {
        "params": {
          "account": "address to be checked"
        },
        "return": "boolean for this address state in `_retailers` Role"
      },
      "whoAmI()": {
        "return": "array contining every role with its state as boolean"
      }
    },
    "title": "Role Ability Contract"
  },
  "userdoc": {
    "methods": {
      "addRegulator(address)": {
        "notice": "Function to add account to regulator role`onlyRegulator` modifier  assignd to sure that the whole role groub regulated"
      },
      "amIConsumer()": {
        "notice": "Function to check caller `msg.sender` if he has consumer role"
      },
      "amIDesigner()": {
        "notice": "Function to check caller `msg.sender` if he has designer role"
      },
      "amIDistributor()": {
        "notice": "Function to check caller `msg.sender` if he has distributor role"
      },
      "amIManufacturer()": {
        "notice": "Function to check caller `msg.sender` if he has manufacturer role"
      },
      "amIRegulator()": {
        "notice": "Function to check caller `msg.sender` if he has regulator role"
      },
      "amIRetailer()": {
        "notice": "Function to check caller `msg.sender` if he has retailer role"
      },
      "assignMeAsConsumer()": {
        "notice": "Function to assign caller `msg.sender` to consumer role"
      },
      "assignMeAsDesigner()": {
        "notice": "Function to assign caller `msg.sender` to designer roledesigner allways should be a menufacturer, after checking isManufacturer add it if not"
      },
      "assignMeAsDistributor()": {
        "notice": "Function to assign caller `msg.sender` to distributor role"
      },
      "assignMeAsManufacturer()": {
        "notice": "Function to assign caller `msg.sender` to manufacturer role"
      },
      "assignMeAsRetailer()": {
        "notice": "Function to assign caller `msg.sender` to retailer role"
      },
      "isConsumer(address)": {
        "notice": "Function to check even he has consumer role or notuses'Roles' library's internal function `has()` to check, refer to library for more detail"
      },
      "isDesigner(address)": {
        "notice": "Function to check even he has designer role or notuses'Roles' library's internal function `has()` to check, refer to library for more detail"
      },
      "isDistributor(address)": {
        "notice": "Function to check even he has distributor role or notuses'Roles' library's internal function `has()` to check, refer to library for more detail"
      },
      "isManufacturer(address)": {
        "notice": "Function to check even he has manufacturer role or notuses'Roles' library's internal function `has()` to check, refer to library for more detail"
      },
      "isRegulator(address)": {
        "notice": "Function to check even he has regulator role or notuses'Roles' library's internal function `has()` to check, refer to library for more detail"
      },
      "isRetailer(address)": {
        "notice": "Function to check even he has retailer role or notuses'Roles' library's internal function `has()` to check, refer to library for more detail"
      },
      "renounceMeFromConsumer()": {
        "notice": "Function to renounce caller `msg.sender` from consumer role"
      },
      "renounceMeFromDesigner()": {
        "notice": "Function to renounce caller `msg.sender` from designer role"
      },
      "renounceMeFromDistributor()": {
        "notice": "Function to renounce caller `msg.sender` from distributor role"
      },
      "renounceMeFromManufacturer()": {
        "notice": "Function to renounce caller `msg.sender` from manufacturer role"
      },
      "renounceMeFromRegulator()": {
        "notice": "Function to renounce caller `msg.sender` from regulator role"
      },
      "renounceMeFromRetailer()": {
        "notice": "Function to renounce caller `msg.sender` from retailer role"
      },
      "whoAmI()": {
        "notice": "Function to check all roles for the caller"
      }
    }
  }
}