{
  "contractName": "SupplyChain",
  "abi": [
    {
      "inputs": [],
      "payable": false,
      "stateMutability": "nonpayable",
      "type": "constructor"
    },
    {
      "anonymous": false,
      "inputs": [
        {
          "indexed": false,
          "internalType": "uint256",
          "name": "udpc",
          "type": "uint256"
        }
      ],
      "name": "Approved",
      "type": "event"
    },
    {
      "anonymous": false,
      "inputs": [
        {
          "indexed": true,
          "internalType": "address",
          "name": "account",
          "type": "address"
        }
      ],
      "name": "ConsumerAdded",
      "type": "event"
    },
    {
      "anonymous": false,
      "inputs": [
        {
          "indexed": true,
          "internalType": "address",
          "name": "account",
          "type": "address"
        }
      ],
      "name": "ConsumerRemoved",
      "type": "event"
    },
    {
      "anonymous": false,
      "inputs": [
        {
          "indexed": true,
          "internalType": "address",
          "name": "account",
          "type": "address"
        }
      ],
      "name": "DesignerAdded",
      "type": "event"
    },
    {
      "anonymous": false,
      "inputs": [
        {
          "indexed": true,
          "internalType": "address",
          "name": "account",
          "type": "address"
        }
      ],
      "name": "DesignerRemoved",
      "type": "event"
    },
    {
      "anonymous": false,
      "inputs": [
        {
          "indexed": true,
          "internalType": "address",
          "name": "account",
          "type": "address"
        }
      ],
      "name": "DistributorAdded",
      "type": "event"
    },
    {
      "anonymous": false,
      "inputs": [
        {
          "indexed": true,
          "internalType": "address",
          "name": "account",
          "type": "address"
        }
      ],
      "name": "DistributorRemoved",
      "type": "event"
    },
    {
      "anonymous": false,
      "inputs": [
        {
          "indexed": false,
          "internalType": "uint256",
          "name": "udpc",
          "type": "uint256"
        }
      ],
      "name": "DrugDesignPurchased",
      "type": "event"
    },
    {
      "anonymous": false,
      "inputs": [
        {
          "indexed": false,
          "internalType": "uint256",
          "name": "slu",
          "type": "uint256"
        }
      ],
      "name": "EnvUpdated",
      "type": "event"
    },
    {
      "anonymous": false,
      "inputs": [
        {
          "indexed": false,
          "internalType": "uint256",
          "name": "slu",
          "type": "uint256"
        }
      ],
      "name": "ForSale",
      "type": "event"
    },
    {
      "anonymous": false,
      "inputs": [
        {
          "indexed": false,
          "internalType": "uint256",
          "name": "slu",
          "type": "uint256"
        }
      ],
      "name": "Manufactured",
      "type": "event"
    },
    {
      "anonymous": false,
      "inputs": [
        {
          "indexed": true,
          "internalType": "address",
          "name": "account",
          "type": "address"
        }
      ],
      "name": "ManufacturerAdded",
      "type": "event"
    },
    {
      "anonymous": false,
      "inputs": [
        {
          "indexed": true,
          "internalType": "address",
          "name": "account",
          "type": "address"
        }
      ],
      "name": "ManufacturerRemoved",
      "type": "event"
    },
    {
      "anonymous": false,
      "inputs": [
        {
          "indexed": false,
          "internalType": "uint256",
          "name": "udpc",
          "type": "uint256"
        }
      ],
      "name": "Owned",
      "type": "event"
    },
    {
      "anonymous": false,
      "inputs": [
        {
          "indexed": false,
          "internalType": "uint256",
          "name": "slu",
          "type": "uint256"
        }
      ],
      "name": "Packed",
      "type": "event"
    },
    {
      "anonymous": false,
      "inputs": [
        {
          "indexed": false,
          "internalType": "uint256",
          "name": "udpc",
          "type": "uint256"
        }
      ],
      "name": "PartnerClosed",
      "type": "event"
    },
    {
      "anonymous": false,
      "inputs": [
        {
          "indexed": false,
          "internalType": "uint256",
          "name": "udpc",
          "type": "uint256"
        }
      ],
      "name": "PartnerGained",
      "type": "event"
    },
    {
      "anonymous": false,
      "inputs": [
        {
          "indexed": false,
          "internalType": "address",
          "name": "account",
          "type": "address"
        }
      ],
      "name": "Paused",
      "type": "event"
    },
    {
      "anonymous": false,
      "inputs": [
        {
          "indexed": true,
          "internalType": "address",
          "name": "account",
          "type": "address"
        }
      ],
      "name": "PauserAdded",
      "type": "event"
    },
    {
      "anonymous": false,
      "inputs": [
        {
          "indexed": true,
          "internalType": "address",
          "name": "account",
          "type": "address"
        }
      ],
      "name": "PauserRemoved",
      "type": "event"
    },
    {
      "anonymous": false,
      "inputs": [
        {
          "indexed": false,
          "internalType": "uint256",
          "name": "pku",
          "type": "uint256"
        }
      ],
      "name": "Purchased",
      "type": "event"
    },
    {
      "anonymous": false,
      "inputs": [
        {
          "indexed": false,
          "internalType": "uint256",
          "name": "slu",
          "type": "uint256"
        }
      ],
      "name": "Received",
      "type": "event"
    },
    {
      "anonymous": false,
      "inputs": [
        {
          "indexed": true,
          "internalType": "address",
          "name": "account",
          "type": "address"
        }
      ],
      "name": "RegulatorAdded",
      "type": "event"
    },
    {
      "anonymous": false,
      "inputs": [
        {
          "indexed": true,
          "internalType": "address",
          "name": "account",
          "type": "address"
        }
      ],
      "name": "RegulatorRemoved",
      "type": "event"
    },
    {
      "anonymous": false,
      "inputs": [
        {
          "indexed": false,
          "internalType": "uint256",
          "name": "udpc",
          "type": "uint256"
        },
        {
          "indexed": false,
          "internalType": "address",
          "name": "partner",
          "type": "address"
        }
      ],
      "name": "RestrictPartnerTransfered",
      "type": "event"
    },
    {
      "anonymous": false,
      "inputs": [
        {
          "indexed": true,
          "internalType": "address",
          "name": "account",
          "type": "address"
        }
      ],
      "name": "RetailerAdded",
      "type": "event"
    },
    {
      "anonymous": false,
      "inputs": [
        {
          "indexed": true,
          "internalType": "address",
          "name": "account",
          "type": "address"
        }
      ],
      "name": "RetailerRemoved",
      "type": "event"
    },
    {
      "anonymous": false,
      "inputs": [
        {
          "indexed": false,
          "internalType": "uint256",
          "name": "udpc",
          "type": "uint256"
        }
      ],
      "name": "SaleCanceled",
      "type": "event"
    },
    {
      "anonymous": false,
      "inputs": [
        {
          "indexed": false,
          "internalType": "uint256",
          "name": "slu",
          "type": "uint256"
        }
      ],
      "name": "Shipped",
      "type": "event"
    },
    {
      "anonymous": false,
      "inputs": [
        {
          "indexed": false,
          "internalType": "uint256",
          "name": "slu",
          "type": "uint256"
        }
      ],
      "name": "Sold",
      "type": "event"
    },
    {
      "anonymous": false,
      "inputs": [
        {
          "indexed": false,
          "internalType": "uint256",
          "name": "udpc",
          "type": "uint256"
        }
      ],
      "name": "TestCaseAdded",
      "type": "event"
    },
    {
      "anonymous": false,
      "inputs": [
        {
          "indexed": false,
          "internalType": "address",
          "name": "account",
          "type": "address"
        }
      ],
      "name": "Unpaused",
      "type": "event"
    },
    {
      "anonymous": false,
      "inputs": [
        {
          "indexed": false,
          "internalType": "uint256",
          "name": "udpc",
          "type": "uint256"
        }
      ],
      "name": "UpForPartnered",
      "type": "event"
    },
    {
      "anonymous": false,
      "inputs": [
        {
          "indexed": false,
          "internalType": "uint256",
          "name": "udpc",
          "type": "uint256"
        }
      ],
      "name": "UpForRestrictPartnered",
      "type": "event"
    },
    {
      "anonymous": false,
      "inputs": [
        {
          "indexed": false,
          "internalType": "uint256",
          "name": "udpc",
          "type": "uint256"
        }
      ],
      "name": "UpForSale",
      "type": "event"
    },
    {
      "constant": false,
      "inputs": [
        {
          "internalType": "uint256",
          "name": "_slu",
          "type": "uint256"
        },
        {
          "internalType": "uint256",
          "name": "_unitPrice",
          "type": "uint256"
        }
      ],
      "name": "addDrugsLoud",
      "outputs": [],
      "payable": false,
      "stateMutability": "nonpayable",
      "type": "function"
    },
    {
      "constant": false,
      "inputs": [
        {
          "internalType": "address",
          "name": "account",
          "type": "address"
        }
      ],
      "name": "addPauser",
      "outputs": [],
      "payable": false,
      "stateMutability": "nonpayable",
      "type": "function"
    },
    {
      "constant": false,
      "inputs": [
        {
          "internalType": "address",
          "name": "account",
          "type": "address"
        }
      ],
      "name": "addRegulator",
      "outputs": [],
      "payable": false,
      "stateMutability": "nonpayable",
      "type": "function"
    },
    {
      "constant": false,
      "inputs": [
        {
          "internalType": "uint256",
          "name": "_udpc",
          "type": "uint256"
        },
        {
          "internalType": "string",
          "name": "_description",
          "type": "string"
        },
        {
          "internalType": "bool",
          "name": "_isPassed",
          "type": "bool"
        },
        {
          "internalType": "string",
          "name": "_notes",
          "type": "string"
        }
      ],
      "name": "addTestCase",
      "outputs": [],
      "payable": false,
      "stateMutability": "nonpayable",
      "type": "function"
    },
    {
      "constant": true,
      "inputs": [],
      "name": "amIConsumer",
      "outputs": [
        {
          "internalType": "bool",
          "name": "",
          "type": "bool"
        }
      ],
      "payable": false,
      "stateMutability": "view",
      "type": "function"
    },
    {
      "constant": true,
      "inputs": [],
      "name": "amIDesigner",
      "outputs": [
        {
          "internalType": "bool",
          "name": "",
          "type": "bool"
        }
      ],
      "payable": false,
      "stateMutability": "view",
      "type": "function"
    },
    {
      "constant": true,
      "inputs": [],
      "name": "amIDistributor",
      "outputs": [
        {
          "internalType": "bool",
          "name": "",
          "type": "bool"
        }
      ],
      "payable": false,
      "stateMutability": "view",
      "type": "function"
    },
    {
      "constant": true,
      "inputs": [],
      "name": "amIManufacturer",
      "outputs": [
        {
          "internalType": "bool",
          "name": "",
          "type": "bool"
        }
      ],
      "payable": false,
      "stateMutability": "view",
      "type": "function"
    },
    {
      "constant": true,
      "inputs": [],
      "name": "amIRegulator",
      "outputs": [
        {
          "internalType": "bool",
          "name": "",
          "type": "bool"
        }
      ],
      "payable": false,
      "stateMutability": "view",
      "type": "function"
    },
    {
      "constant": true,
      "inputs": [],
      "name": "amIRetailer",
      "outputs": [
        {
          "internalType": "bool",
          "name": "",
          "type": "bool"
        }
      ],
      "payable": false,
      "stateMutability": "view",
      "type": "function"
    },
    {
      "constant": false,
      "inputs": [],
      "name": "assignMeAsConsumer",
      "outputs": [],
      "payable": false,
      "stateMutability": "nonpayable",
      "type": "function"
    },
    {
      "constant": false,
      "inputs": [],
      "name": "assignMeAsDesigner",
      "outputs": [],
      "payable": false,
      "stateMutability": "nonpayable",
      "type": "function"
    },
    {
      "constant": false,
      "inputs": [],
      "name": "assignMeAsDistributor",
      "outputs": [],
      "payable": false,
      "stateMutability": "nonpayable",
      "type": "function"
    },
    {
      "constant": false,
      "inputs": [],
      "name": "assignMeAsManufacturer",
      "outputs": [],
      "payable": false,
      "stateMutability": "nonpayable",
      "type": "function"
    },
    {
      "constant": false,
      "inputs": [],
      "name": "assignMeAsRetailer",
      "outputs": [],
      "payable": false,
      "stateMutability": "nonpayable",
      "type": "function"
    },
    {
      "constant": false,
      "inputs": [
        {
          "internalType": "uint256",
          "name": "_udpc",
          "type": "uint256"
        },
        {
          "internalType": "address payable",
          "name": "_partner",
          "type": "address"
        },
        {
          "internalType": "string",
          "name": "_name",
          "type": "string"
        },
        {
          "internalType": "uint256",
          "name": "_shares",
          "type": "uint256"
        }
      ],
      "name": "buildRestrictPartnerContract",
      "outputs": [],
      "payable": false,
      "stateMutability": "nonpayable",
      "type": "function"
    },
    {
      "constant": false,
      "inputs": [
        {
          "internalType": "uint256",
          "name": "_udpc",
          "type": "uint256"
        }
      ],
      "name": "closeManufactPartnership",
      "outputs": [],
      "payable": false,
      "stateMutability": "nonpayable",
      "type": "function"
    },
    {
      "constant": true,
      "inputs": [
        {
          "internalType": "uint256",
          "name": "_udpc",
          "type": "uint256"
        }
      ],
      "name": "featchDrugDesignMetaData",
      "outputs": [
        {
          "internalType": "string",
          "name": "name",
          "type": "string"
        },
        {
          "internalType": "string",
          "name": "description",
          "type": "string"
        },
        {
          "internalType": "string",
          "name": "notes",
          "type": "string"
        }
      ],
      "payable": false,
      "stateMutability": "view",
      "type": "function"
    },
    {
      "constant": true,
      "inputs": [
        {
          "internalType": "uint256",
          "name": "_udpc",
          "type": "uint256"
        },
        {
          "internalType": "uint256",
          "name": "_testIndex",
          "type": "uint256"
        }
      ],
      "name": "featchDrugDesignTestCases",
      "outputs": [
        {
          "internalType": "string",
          "name": "description",
          "type": "string"
        },
        {
          "internalType": "bool",
          "name": "isPassed",
          "type": "bool"
        },
        {
          "internalType": "string",
          "name": "notes",
          "type": "string"
        }
      ],
      "payable": false,
      "stateMutability": "view",
      "type": "function"
    },
    {
      "constant": true,
      "inputs": [
        {
          "internalType": "uint256",
          "name": "_udpc",
          "type": "uint256"
        }
      ],
      "name": "fetchDrugDesignData",
      "outputs": [
        {
          "internalType": "address",
          "name": "currentOwner",
          "type": "address"
        },
        {
          "internalType": "address",
          "name": "designerId",
          "type": "address"
        },
        {
          "internalType": "string",
          "name": "designerName",
          "type": "string"
        },
        {
          "internalType": "string",
          "name": "drugName",
          "type": "string"
        },
        {
          "internalType": "string",
          "name": "currentState",
          "type": "string"
        },
        {
          "internalType": "bool",
          "name": "forSale",
          "type": "bool"
        },
        {
          "internalType": "uint256",
          "name": "salePrice",
          "type": "uint256"
        },
        {
          "internalType": "string",
          "name": "partnershipState",
          "type": "string"
        },
        {
          "internalType": "uint256",
          "name": "partnershipShares",
          "type": "uint256"
        },
        {
          "internalType": "uint256",
          "name": "numberOfTests",
          "type": "uint256"
        },
        {
          "internalType": "uint256",
          "name": "numberOfManufacturers",
          "type": "uint256"
        }
      ],
      "payable": false,
      "stateMutability": "view",
      "type": "function"
    },
    {
      "constant": true,
      "inputs": [
        {
          "internalType": "uint256",
          "name": "_pku",
          "type": "uint256"
        }
      ],
      "name": "fetchDrugItemData",
      "outputs": [
        {
          "internalType": "uint256",
          "name": "_udpc",
          "type": "uint256"
        },
        {
          "internalType": "uint256",
          "name": "_slu",
          "type": "uint256"
        },
        {
          "internalType": "string",
          "name": "state",
          "type": "string"
        },
        {
          "internalType": "address",
          "name": "currentOwner",
          "type": "address"
        },
        {
          "internalType": "address",
          "name": "manufacturerId",
          "type": "address"
        },
        {
          "internalType": "address",
          "name": "deistributorId",
          "type": "address"
        },
        {
          "internalType": "address",
          "name": "retailerId",
          "type": "address"
        },
        {
          "internalType": "uint256",
          "name": "price",
          "type": "uint256"
        },
        {
          "internalType": "uint256",
          "name": "packingTimeStamp",
          "type": "uint256"
        },
        {
          "internalType": "uint256",
          "name": "numberOfEnvUpdate",
          "type": "uint256"
        }
      ],
      "payable": false,
      "stateMutability": "view",
      "type": "function"
    },
    {
      "constant": true,
      "inputs": [
        {
          "internalType": "uint256",
          "name": "_slu",
          "type": "uint256"
        }
      ],
      "name": "fetchDrugLoaudData",
      "outputs": [
        {
          "internalType": "uint256",
          "name": "quantity",
          "type": "uint256"
        },
        {
          "internalType": "uint256",
          "name": "_udpc",
          "type": "uint256"
        },
        {
          "internalType": "string",
          "name": "state",
          "type": "string"
        },
        {
          "internalType": "address",
          "name": "currentOwner",
          "type": "address"
        },
        {
          "internalType": "address",
          "name": "manufacturerId",
          "type": "address"
        },
        {
          "internalType": "address",
          "name": "deistributorId",
          "type": "address"
        },
        {
          "internalType": "address",
          "name": "retailerId",
          "type": "address"
        },
        {
          "internalType": "uint256",
          "name": "price",
          "type": "uint256"
        }
      ],
      "payable": false,
      "stateMutability": "view",
      "type": "function"
    },
    {
      "constant": true,
      "inputs": [
        {
          "internalType": "uint256",
          "name": "_pku",
          "type": "uint256"
        }
      ],
      "name": "fetchEnvHistory",
      "outputs": [
        {
          "internalType": "uint256",
          "name": "numberOfupdate",
          "type": "uint256"
        },
        {
          "internalType": "uint256[]",
          "name": "timeStamps",
          "type": "uint256[]"
        },
        {
          "internalType": "uint256[]",
          "name": "temprtures",
          "type": "uint256[]"
        },
        {
          "internalType": "uint256[]",
          "name": "humiditys",
          "type": "uint256[]"
        },
        {
          "internalType": "address[]",
          "name": "updaterAddresses",
          "type": "address[]"
        }
      ],
      "payable": false,
      "stateMutability": "view",
      "type": "function"
    },
    {
      "constant": true,
      "inputs": [
        {
          "internalType": "uint256",
          "name": "_slu",
          "type": "uint256"
        }
      ],
      "name": "fetchLoudPKUs",
      "outputs": [
        {
          "internalType": "uint256[]",
          "name": "loadPKUs",
          "type": "uint256[]"
        }
      ],
      "payable": false,
      "stateMutability": "view",
      "type": "function"
    },
    {
      "constant": true,
      "inputs": [],
      "name": "getUdpc",
      "outputs": [
        {
          "internalType": "uint256",
          "name": "_udpc",
          "type": "uint256"
        }
      ],
      "payable": false,
      "stateMutability": "view",
      "type": "function"
    },
    {
      "constant": true,
      "inputs": [
        {
          "internalType": "address",
          "name": "account",
          "type": "address"
        }
      ],
      "name": "isConsumer",
      "outputs": [
        {
          "internalType": "bool",
          "name": "",
          "type": "bool"
        }
      ],
      "payable": false,
      "stateMutability": "view",
      "type": "function"
    },
    {
      "constant": true,
      "inputs": [
        {
          "internalType": "address",
          "name": "account",
          "type": "address"
        }
      ],
      "name": "isDesigner",
      "outputs": [
        {
          "internalType": "bool",
          "name": "",
          "type": "bool"
        }
      ],
      "payable": false,
      "stateMutability": "view",
      "type": "function"
    },
    {
      "constant": true,
      "inputs": [
        {
          "internalType": "address",
          "name": "account",
          "type": "address"
        }
      ],
      "name": "isDistributor",
      "outputs": [
        {
          "internalType": "bool",
          "name": "",
          "type": "bool"
        }
      ],
      "payable": false,
      "stateMutability": "view",
      "type": "function"
    },
    {
      "constant": true,
      "inputs": [
        {
          "internalType": "address",
          "name": "account",
          "type": "address"
        }
      ],
      "name": "isManufacturer",
      "outputs": [
        {
          "internalType": "bool",
          "name": "",
          "type": "bool"
        }
      ],
      "payable": false,
      "stateMutability": "view",
      "type": "function"
    },
    {
      "constant": true,
      "inputs": [
        {
          "internalType": "uint256",
          "name": "_udpc",
          "type": "uint256"
        },
        {
          "internalType": "address",
          "name": "_manufacturerId",
          "type": "address"
        }
      ],
      "name": "isManufacturerOf",
      "outputs": [
        {
          "internalType": "bool",
          "name": "",
          "type": "bool"
        }
      ],
      "payable": false,
      "stateMutability": "view",
      "type": "function"
    },
    {
      "constant": true,
      "inputs": [
        {
          "internalType": "address",
          "name": "account",
          "type": "address"
        }
      ],
      "name": "isPauser",
      "outputs": [
        {
          "internalType": "bool",
          "name": "",
          "type": "bool"
        }
      ],
      "payable": false,
      "stateMutability": "view",
      "type": "function"
    },
    {
      "constant": true,
      "inputs": [
        {
          "internalType": "address",
          "name": "account",
          "type": "address"
        }
      ],
      "name": "isRegulator",
      "outputs": [
        {
          "internalType": "bool",
          "name": "",
          "type": "bool"
        }
      ],
      "payable": false,
      "stateMutability": "view",
      "type": "function"
    },
    {
      "constant": true,
      "inputs": [
        {
          "internalType": "address",
          "name": "account",
          "type": "address"
        }
      ],
      "name": "isRetailer",
      "outputs": [
        {
          "internalType": "bool",
          "name": "",
          "type": "bool"
        }
      ],
      "payable": false,
      "stateMutability": "view",
      "type": "function"
    },
    {
      "constant": true,
      "inputs": [
        {
          "internalType": "uint256",
          "name": "_udpc",
          "type": "uint256"
        },
        {
          "internalType": "address",
          "name": "_manufacturerId",
          "type": "address"
        }
      ],
      "name": "manufacturerSharesOf",
      "outputs": [
        {
          "internalType": "uint256",
          "name": "",
          "type": "uint256"
        }
      ],
      "payable": false,
      "stateMutability": "view",
      "type": "function"
    },
    {
      "constant": false,
      "inputs": [
        {
          "internalType": "uint256",
          "name": "_udpc",
          "type": "uint256"
        },
        {
          "internalType": "uint256",
          "name": "_shares",
          "type": "uint256"
        }
      ],
      "name": "openManufactPartnership",
      "outputs": [],
      "payable": false,
      "stateMutability": "nonpayable",
      "type": "function"
    },
    {
      "constant": false,
      "inputs": [
        {
          "internalType": "uint256",
          "name": "_slu",
          "type": "uint256"
        }
      ],
      "name": "packDrugsLoud",
      "outputs": [],
      "payable": false,
      "stateMutability": "nonpayable",
      "type": "function"
    },
    {
      "constant": false,
      "inputs": [],
      "name": "pause",
      "outputs": [],
      "payable": false,
      "stateMutability": "nonpayable",
      "type": "function"
    },
    {
      "constant": true,
      "inputs": [],
      "name": "paused",
      "outputs": [
        {
          "internalType": "bool",
          "name": "",
          "type": "bool"
        }
      ],
      "payable": false,
      "stateMutability": "view",
      "type": "function"
    },
    {
      "constant": false,
      "inputs": [
        {
          "internalType": "uint256",
          "name": "_slu",
          "type": "uint256"
        }
      ],
      "name": "receiveDrugsLoud",
      "outputs": [],
      "payable": false,
      "stateMutability": "nonpayable",
      "type": "function"
    },
    {
      "constant": false,
      "inputs": [],
      "name": "renounceMeFromConsumer",
      "outputs": [],
      "payable": false,
      "stateMutability": "nonpayable",
      "type": "function"
    },
    {
      "constant": false,
      "inputs": [],
      "name": "renounceMeFromDesigner",
      "outputs": [],
      "payable": false,
      "stateMutability": "nonpayable",
      "type": "function"
    },
    {
      "constant": false,
      "inputs": [],
      "name": "renounceMeFromDistributor",
      "outputs": [],
      "payable": false,
      "stateMutability": "nonpayable",
      "type": "function"
    },
    {
      "constant": false,
      "inputs": [],
      "name": "renounceMeFromManufacturer",
      "outputs": [],
      "payable": false,
      "stateMutability": "nonpayable",
      "type": "function"
    },
    {
      "constant": false,
      "inputs": [],
      "name": "renounceMeFromRegulator",
      "outputs": [],
      "payable": false,
      "stateMutability": "nonpayable",
      "type": "function"
    },
    {
      "constant": false,
      "inputs": [],
      "name": "renounceMeFromRetailer",
      "outputs": [],
      "payable": false,
      "stateMutability": "nonpayable",
      "type": "function"
    },
    {
      "constant": false,
      "inputs": [],
      "name": "renouncePauser",
      "outputs": [],
      "payable": false,
      "stateMutability": "nonpayable",
      "type": "function"
    },
    {
      "constant": false,
      "inputs": [
        {
          "internalType": "uint256",
          "name": "_udpc",
          "type": "uint256"
        }
      ],
      "name": "restrictManufactPartnership",
      "outputs": [],
      "payable": false,
      "stateMutability": "nonpayable",
      "type": "function"
    },
    {
      "constant": false,
      "inputs": [
        {
          "internalType": "uint256",
          "name": "_slu",
          "type": "uint256"
        }
      ],
      "name": "shipDrugsLoud",
      "outputs": [],
      "payable": false,
      "stateMutability": "nonpayable",
      "type": "function"
    },
    {
      "constant": true,
      "inputs": [],
      "name": "udpc",
      "outputs": [
        {
          "internalType": "uint256",
          "name": "",
          "type": "uint256"
        }
      ],
      "payable": false,
      "stateMutability": "view",
      "type": "function"
    },
    {
      "constant": false,
      "inputs": [],
      "name": "unpause",
      "outputs": [],
      "payable": false,
      "stateMutability": "nonpayable",
      "type": "function"
    },
    {
      "constant": false,
      "inputs": [
        {
          "internalType": "uint256",
          "name": "_udpc",
          "type": "uint256"
        },
        {
          "internalType": "uint256",
          "name": "_price",
          "type": "uint256"
        }
      ],
      "name": "upForSale",
      "outputs": [],
      "payable": false,
      "stateMutability": "nonpayable",
      "type": "function"
    },
    {
      "constant": false,
      "inputs": [
        {
          "internalType": "uint256",
          "name": "_slu",
          "type": "uint256"
        },
        {
          "internalType": "uint256",
          "name": "_humidity",
          "type": "uint256"
        },
        {
          "internalType": "uint256",
          "name": "_temprture",
          "type": "uint256"
        }
      ],
      "name": "updateDrugsLoudShippmentEnv",
      "outputs": [],
      "payable": false,
      "stateMutability": "nonpayable",
      "type": "function"
    },
    {
      "constant": false,
      "inputs": [
        {
          "internalType": "uint256",
          "name": "_slu",
          "type": "uint256"
        },
        {
          "internalType": "uint256",
          "name": "_humidity",
          "type": "uint256"
        },
        {
          "internalType": "uint256",
          "name": "_temprture",
          "type": "uint256"
        }
      ],
      "name": "updateDrugsLoudStockEnv",
      "outputs": [],
      "payable": false,
      "stateMutability": "nonpayable",
      "type": "function"
    },
    {
      "constant": true,
      "inputs": [],
      "name": "whoAmI",
      "outputs": [
        {
          "internalType": "bool",
          "name": "consumer",
          "type": "bool"
        },
        {
          "internalType": "bool",
          "name": "retailer",
          "type": "bool"
        },
        {
          "internalType": "bool",
          "name": "distributor",
          "type": "bool"
        },
        {
          "internalType": "bool",
          "name": "manufacturer",
          "type": "bool"
        },
        {
          "internalType": "bool",
          "name": "regulator",
          "type": "bool"
        },
        {
          "internalType": "bool",
          "name": "designer",
          "type": "bool"
        }
      ],
      "payable": false,
      "stateMutability": "view",
      "type": "function"
    },
    {
      "constant": false,
      "inputs": [
        {
          "internalType": "string",
          "name": "_designerName",
          "type": "string"
        },
        {
          "internalType": "string",
          "name": "_drugName",
          "type": "string"
        },
        {
          "internalType": "string",
          "name": "_description",
          "type": "string"
        },
        {
          "internalType": "string",
          "name": "_notes",
          "type": "string"
        }
      ],
      "name": "designDrug",
      "outputs": [],
      "payable": false,
      "stateMutability": "nonpayable",
      "type": "function"
    },
    {
      "constant": false,
      "inputs": [
        {
          "internalType": "uint256",
          "name": "_udpc",
          "type": "uint256"
        },
        {
          "internalType": "string",
          "name": "_description",
          "type": "string"
        },
        {
          "internalType": "bool",
          "name": "_isPassed",
          "type": "bool"
        },
        {
          "internalType": "string",
          "name": "_notes",
          "type": "string"
        }
      ],
      "name": "addTestCaseByRegulaor",
      "outputs": [],
      "payable": false,
      "stateMutability": "nonpayable",
      "type": "function"
    },
    {
      "constant": false,
      "inputs": [
        {
          "internalType": "uint256",
          "name": "_udpc",
          "type": "uint256"
        }
      ],
      "name": "approveDrug",
      "outputs": [],
      "payable": false,
      "stateMutability": "nonpayable",
      "type": "function"
    },
    {
      "constant": false,
      "inputs": [
        {
          "internalType": "uint256",
          "name": "_udpc",
          "type": "uint256"
        }
      ],
      "name": "purchaseDrugDesign",
      "outputs": [],
      "payable": true,
      "stateMutability": "payable",
      "type": "function"
    },
    {
      "constant": false,
      "inputs": [
        {
          "internalType": "uint256",
          "name": "_udpc",
          "type": "uint256"
        },
        {
          "internalType": "string",
          "name": "_name",
          "type": "string"
        }
      ],
      "name": "buildPartnerContract",
      "outputs": [],
      "payable": false,
      "stateMutability": "nonpayable",
      "type": "function"
    },
    {
      "constant": false,
      "inputs": [
        {
          "internalType": "uint256",
          "name": "_udpc",
          "type": "uint256"
        },
        {
          "internalType": "uint256",
          "name": "quantity",
          "type": "uint256"
        }
      ],
      "name": "manufacturDrugsLoud",
      "outputs": [],
      "payable": false,
      "stateMutability": "nonpayable",
      "type": "function"
    },
    {
      "constant": false,
      "inputs": [
        {
          "internalType": "uint256",
          "name": "_slu",
          "type": "uint256"
        },
        {
          "internalType": "address",
          "name": "_receiver",
          "type": "address"
        }
      ],
      "name": "buyDrugsLoud",
      "outputs": [],
      "payable": true,
      "stateMutability": "payable",
      "type": "function"
    },
    {
      "constant": false,
      "inputs": [
        {
          "internalType": "uint256",
          "name": "_pku",
          "type": "uint256"
        }
      ],
      "name": "purchaseDrug",
      "outputs": [],
      "payable": true,
      "stateMutability": "payable",
      "type": "function"
    }
  ],
  "bytecode": "0x60806040523480156200001157600080fd5b506200002333620000c260201b60201c565b62000034336200012360201b60201c565b62000045336200018460201b60201c565b6200005633620001e560201b60201c565b62000067336200024660201b60201c565b6200007833620002a760201b60201c565b62000089336200030860201b60201c565b6000600760006101000a81548160ff02191690831515021790555060006008819055506000600b819055506000600a81905550620004b2565b620000dd8160006200036960201b62007b0d1790919060201c565b8073ffffffffffffffffffffffffffffffffffffffff167f28b26e7a3d20aedbc5f8f2ebf7da671c0491723a2b78f47a097b0e46dee0714260405160405180910390a250565b6200013e8160016200036960201b62007b0d1790919060201c565b8073ffffffffffffffffffffffffffffffffffffffff167f561138658ca49a8540dc70dcfe64c9026c1c5b9344642242dd6562970f9c127860405160405180910390a250565b6200019f8160026200036960201b62007b0d1790919060201c565b8073ffffffffffffffffffffffffffffffffffffffff167f97069a05372df648feb174cc125711b2c72a81450a1ab2769c8faf49917d7fd260405160405180910390a250565b620002008160036200036960201b62007b0d1790919060201c565b8073ffffffffffffffffffffffffffffffffffffffff167fddbf200aa634dc3fb81cfd68583dd1040d1c751d335e1d86b631bde3e977fea860405160405180910390a250565b620002618160046200036960201b62007b0d1790919060201c565b8073ffffffffffffffffffffffffffffffffffffffff167f2860b5ba44f983f8f363ee6eeb3c24cbca3096803fbdd5129b9e253f01cac07660405160405180910390a250565b620002c28160056200036960201b62007b0d1790919060201c565b8073ffffffffffffffffffffffffffffffffffffffff167f71ae26cad02663e3d92efd6ec56031a80d74a20c0ab4183faa8bf262261c9baa60405160405180910390a250565b620003238160066200036960201b62007b0d1790919060201c565b8073ffffffffffffffffffffffffffffffffffffffff167f6719d08c1888103bea251a4ed56406bd0c3e69723c8a1686e017e7bbe159b6f860405160405180910390a250565b600073ffffffffffffffffffffffffffffffffffffffff168173ffffffffffffffffffffffffffffffffffffffff161415620003a457600080fd5b620003b682826200041f60201b60201c565b15620003c157600080fd5b60018260000160008373ffffffffffffffffffffffffffffffffffffffff1673ffffffffffffffffffffffffffffffffffffffff16815260200190815260200160002060006101000a81548160ff0219169083151502179055505050565b60008073ffffffffffffffffffffffffffffffffffffffff168273ffffffffffffffffffffffffffffffffffffffff1614156200045b57600080fd5b8260000160008373ffffffffffffffffffffffffffffffffffffffff1673ffffffffffffffffffffffffffffffffffffffff16815260200190815260200160002060009054906101000a900460ff16905092915050565b617f0580620004c26000396000f3fe6080604052600436106103ad5760003560e01c80638456cb59116101e7578063c778145d1161010d578063e1d6f86f116100a0578063eda0baa81161006f578063eda0baa814611ddb578063ef20147714611df2578063fb32211114611e09578063fc42925214611e57576103ad565b8063e1d6f86f14611ad2578063e32ba99514611b01578063e63d2ee914611bfd578063e716a4d714611c38576103ad565b8063d3310297116100dc578063d33102971461180c578063d8f271a914611847578063d8fcc6f8146118d7578063da91254c14611a6c576103ad565b8063c778145d14611666578063c7bead1e14611691578063c82d9afc146117c6578063cf196671146117dd576103ad565b8063a4a418b111610185578063b442510b11610154578063b442510b14611594578063b6350536146115cf578063c3c7b82c14611614578063c4f220111461164f576103ad565b8063a4a418b114611354578063a4f03e231461136b578063a7d25040146113d4578063ac63f3c714611543576103ad565b80639af687a6116101c15780639af687a61461120e5780639ce6f51c1461123d5780639f1796821461126b578063a40e210f1461133d576103ad565b80638456cb5914611177578063879581ba1461118e5780638f0c86fa146111a5576103ad565b806348c149bd116102d7578063693082c41161026a578063784167af11610239578063784167af1461104a57806382dc1ec41461108f578063834ff739146110e057806383be91e514611149576103ad565b8063693082c414610f7e57806369d095c114610fcd5780636ef8d66d14610fe4578063719c2e5214610ffb576103ad565b80635c975abb116102a65780635c975abb14610e725780635da09b8814610ea15780635ec5b72814610f0a57806365c7c33114610f39576103ad565b806348c149bd14610d965780635043ceaf14610dad57806354fc916914610df257806355edd88b14610e5b576103ad565b806335c96e971161034f578063424ee0db1161031e578063424ee0db1461079f5780634314d44d14610a2c5780634346fac514610ba157806346fbf68e14610d2d576103ad565b806335c96e97146106af578063374a2409146106de5780633f4ba83a146107195780633f968f9e14610730576103ad565b80631395d0f21161038b5780631395d0f21461046757806317d4a491146104a25780631d375b0c1461050b5780631e8acbeb1461053a576103ad565b806301715f75146103b2578063076ed96814610425578063118f74f514610450575b600080fd5b3480156103be57600080fd5b5061040b600480360360408110156103d557600080fd5b8101908080359060200190929190803573ffffffffffffffffffffffffffffffffffffffff1690602001909291905050506120dc565b604051808215151515815260200191505060405180910390f35b34801561043157600080fd5b5061043a61210e565b6040518082815260200191505060405180910390f35b34801561045c57600080fd5b50610465612118565b005b34801561047357600080fd5b506104a06004803603602081101561048a57600080fd5b8101908080359060200190929190505050612123565b005b3480156104ae57600080fd5b506104f1600480360360208110156104c557600080fd5b81019080803573ffffffffffffffffffffffffffffffffffffffff1690602001909291905050506121c4565b604051808215151515815260200191505060405180910390f35b34801561051757600080fd5b506105206121e1565b604051808215151515815260200191505060405180910390f35b34801561054657600080fd5b506106ad6004803603608081101561055d57600080fd5b81019080803590602001909291908035906020019064010000000081111561058457600080fd5b82018360208201111561059657600080fd5b803590602001918460018302840111640100000000831117156105b857600080fd5b91908080601f016020809104026020016040519081016040528093929190818152602001838380828437600081840152601f19601f8201169050808301925050505050505091929192908035151590602001909291908035906020019064010000000081111561062757600080fd5b82018360208201111561063957600080fd5b8035906020019184600183028401116401000000008311171561065b57600080fd5b91908080601f016020809104026020016040519081016040528093929190818152602001838380828437600081840152601f19601f8201169050808301925050505050505091929192905050506121fc565b005b3480156106bb57600080fd5b506106c46124f8565b604051808215151515815260200191505060405180910390f35b3480156106ea57600080fd5b506107176004803603602081101561070157600080fd5b8101908080359060200190929190505050612513565b005b34801561072557600080fd5b5061072e612640565b005b34801561073c57600080fd5b506107896004803603604081101561075357600080fd5b8101908080359060200190929190803573ffffffffffffffffffffffffffffffffffffffff1690602001909291905050506126eb565b6040518082815260200191505060405180910390f35b3480156107ab57600080fd5b50610a2a600480360360808110156107c257600080fd5b81019080803590602001906401000000008111156107df57600080fd5b8201836020820111156107f157600080fd5b8035906020019184600183028401116401000000008311171561081357600080fd5b91908080601f016020809104026020016040519081016040528093929190818152602001838380828437600081840152601f19601f8201169050808301925050505050505091929192908035906020019064010000000081111561087657600080fd5b82018360208201111561088857600080fd5b803590602001918460018302840111640100000000831117156108aa57600080fd5b91908080601f016020809104026020016040519081016040528093929190818152602001838380828437600081840152601f19601f8201169050808301925050505050505091929192908035906020019064010000000081111561090d57600080fd5b82018360208201111561091f57600080fd5b8035906020019184600183028401116401000000008311171561094157600080fd5b91908080601f016020809104026020016040519081016040528093929190818152602001838380828437600081840152601f19601f820116905080830192505050505050509192919290803590602001906401000000008111156109a457600080fd5b8201836020820111156109b657600080fd5b803590602001918460018302840111640100000000831117156109d857600080fd5b91908080601f016020809104026020016040519081016040528093929190818152602001838380828437600081840152601f19601f82011690508083019250505050505050919291929050505061271d565b005b348015610a3857600080fd5b50610b9f60048036036080811015610a4f57600080fd5b810190808035906020019092919080359060200190640100000000811115610a7657600080fd5b820183602082011115610a8857600080fd5b80359060200191846001830284011164010000000083111715610aaa57600080fd5b91908080601f016020809104026020016040519081016040528093929190818152602001838380828437600081840152601f19601f82011690508083019250505050505050919291929080351515906020019092919080359060200190640100000000811115610b1957600080fd5b820183602082011115610b2b57600080fd5b80359060200191846001830284011164010000000083111715610b4d57600080fd5b91908080601f016020809104026020016040519081016040528093929190818152602001838380828437600081840152601f19601f8201169050808301925050505050505091929192905050506127c4565b005b348015610bad57600080fd5b50610bda60048036036020811015610bc457600080fd5b8101908080359060200190929190505050612851565b60405180806020018060200180602001848103845287818151815260200191508051906020019080838360005b83811015610c22578082015181840152602081019050610c07565b50505050905090810190601f168015610c4f5780820380516001836020036101000a031916815260200191505b50848103835286818151815260200191508051906020019080838360005b83811015610c88578082015181840152602081019050610c6d565b50505050905090810190601f168015610cb55780820380516001836020036101000a031916815260200191505b50848103825285818151815260200191508051906020019080838360005b83811015610cee578082015181840152602081019050610cd3565b50505050905090810190601f168015610d1b5780820380516001836020036101000a031916815260200191505b50965050505050505060405180910390f35b348015610d3957600080fd5b50610d7c60048036036020811015610d5057600080fd5b81019080803573ffffffffffffffffffffffffffffffffffffffff169060200190929190505050612b00565b604051808215151515815260200191505060405180910390f35b348015610da257600080fd5b50610dab612b1d565b005b348015610db957600080fd5b50610df060048036036040811015610dd057600080fd5b810190808035906020019092919080359060200190929190505050612b28565b005b348015610dfe57600080fd5b50610e4160048036036020811015610e1557600080fd5b81019080803573ffffffffffffffffffffffffffffffffffffffff169060200190929190505050612c50565b604051808215151515815260200191505060405180910390f35b348015610e6757600080fd5b50610e70612c6d565b005b348015610e7e57600080fd5b50610e87612c78565b604051808215151515815260200191505060405180910390f35b348015610ead57600080fd5b50610ef060048036036020811015610ec457600080fd5b81019080803573ffffffffffffffffffffffffffffffffffffffff169060200190929190505050612c8f565b604051808215151515815260200191505060405180910390f35b348015610f1657600080fd5b50610f1f612cac565b604051808215151515815260200191505060405180910390f35b348015610f4557600080fd5b50610f7c60048036036040811015610f5c57600080fd5b810190808035906020019092919080359060200190929190505050612cc7565b005b348015610f8a57600080fd5b50610fcb60048036036060811015610fa157600080fd5b81019080803590602001909291908035906020019092919080359060200190929190505050612e8a565b005b348015610fd957600080fd5b50610fe2613197565b005b348015610ff057600080fd5b50610ff96131a2565b005b34801561100757600080fd5b506110486004803603606081101561101e57600080fd5b810190808035906020019092919080359060200190929190803590602001909291905050506131ad565b005b34801561105657600080fd5b5061108d6004803603604081101561106d57600080fd5b8101908080359060200190929190803590602001909291905050506134eb565b005b34801561109b57600080fd5b506110de600480360360208110156110b257600080fd5b81019080803573ffffffffffffffffffffffffffffffffffffffff169060200190929190505050613631565b005b3480156110ec57600080fd5b5061112f6004803603602081101561110357600080fd5b81019080803573ffffffffffffffffffffffffffffffffffffffff16906020019092919050505061364f565b604051808215151515815260200191505060405180910390f35b6111756004803603602081101561115f57600080fd5b810190808035906020019092919050505061366c565b005b34801561118357600080fd5b5061118c613927565b005b34801561119a57600080fd5b506111a36139d3565b005b3480156111b157600080fd5b506111f4600480360360208110156111c857600080fd5b81019080803573ffffffffffffffffffffffffffffffffffffffff1690602001909291905050506139de565b604051808215151515815260200191505060405180910390f35b34801561121a57600080fd5b506112236139fb565b604051808215151515815260200191505060405180910390f35b6112696004803603602081101561125357600080fd5b8101908080359060200190929190505050613a16565b005b34801561127757600080fd5b5061133b6004803603604081101561128e57600080fd5b8101908080359060200190929190803590602001906401000000008111156112b557600080fd5b8201836020820111156112c757600080fd5b803590602001918460018302840111640100000000831117156112e957600080fd5b91908080601f016020809104026020016040519081016040528093929190818152602001838380828437600081840152601f19601f820116905080830192505050505050509192919290505050613a9d565b005b34801561134957600080fd5b50611352613b40565b005b34801561136057600080fd5b50611369613b4b565b005b34801561137757600080fd5b506113ba6004803603602081101561138e57600080fd5b81019080803573ffffffffffffffffffffffffffffffffffffffff169060200190929190505050613b6d565b604051808215151515815260200191505060405180910390f35b3480156113e057600080fd5b5061140d600480360360208110156113f757600080fd5b8101908080359060200190929190505050613b8a565b6040518086815260200180602001806020018060200180602001858103855289818151815260200191508051906020019060200280838360005b83811015611462578082015181840152602081019050611447565b50505050905001858103845288818151815260200191508051906020019060200280838360005b838110156114a4578082015181840152602081019050611489565b50505050905001858103835287818151815260200191508051906020019060200280838360005b838110156114e65780820151818401526020810190506114cb565b50505050905001858103825286818151815260200191508051906020019060200280838360005b8381101561152857808201518184015260208101905061150d565b50505050905001995050505050505050505060405180910390f35b34801561154f57600080fd5b506115926004803603602081101561156657600080fd5b81019080803573ffffffffffffffffffffffffffffffffffffffff169060200190929190505050613dc4565b005b3480156115a057600080fd5b506115cd600480360360208110156115b757600080fd5b8101908080359060200190929190505050613dd0565b005b3480156115db57600080fd5b50611612600480360360408110156115f257600080fd5b810190808035906020019092919080359060200190929190505050613fc4565b005b34801561162057600080fd5b5061164d6004803603602081101561163757600080fd5b81019080803590602001909291905050506141d4565b005b34801561165b57600080fd5b506116646143e3565b005b34801561167257600080fd5b5061167b6143ee565b6040518082815260200191505060405180910390f35b34801561169d57600080fd5b506116d4600480360360408110156116b457600080fd5b8101908080359060200190929190803590602001909291905050506143f4565b60405180806020018415151515815260200180602001838103835286818151815260200191508051906020019080838360005b83811015611722578082015181840152602081019050611707565b50505050905090810190601f16801561174f5780820380516001836020036101000a031916815260200191505b50838103825284818151815260200191508051906020019080838360005b8381101561178857808201518184015260208101905061176d565b50505050905090810190601f1680156117b55780820380516001836020036101000a031916815260200191505b509550505050505060405180910390f35b3480156117d257600080fd5b506117db6146d4565b005b3480156117e957600080fd5b506117f26146df565b604051808215151515815260200191505060405180910390f35b34801561181857600080fd5b506118456004803603602081101561182f57600080fd5b81019080803590602001909291905050506146fa565b005b34801561185357600080fd5b506118806004803603602081101561186a57600080fd5b8101908080359060200190929190505050614943565b6040518080602001828103825283818151815260200191508051906020019060200280838360005b838110156118c35780820151818401526020810190506118a8565b505050509050019250505060405180910390f35b3480156118e357600080fd5b50611910600480360360208110156118fa57600080fd5b81019080803590602001909291905050506149ae565b60405180898152602001888152602001806020018773ffffffffffffffffffffffffffffffffffffffff1673ffffffffffffffffffffffffffffffffffffffff1681526020018673ffffffffffffffffffffffffffffffffffffffff1673ffffffffffffffffffffffffffffffffffffffff1681526020018573ffffffffffffffffffffffffffffffffffffffff1673ffffffffffffffffffffffffffffffffffffffff1681526020018473ffffffffffffffffffffffffffffffffffffffff1673ffffffffffffffffffffffffffffffffffffffff168152602001838152602001828103825288818151815260200191508051906020019080838360005b83811015611a2a578082015181840152602081019050611a0f565b50505050905090810190601f168015611a575780820380516001836020036101000a031916815260200191505b50995050505050505050505060405180910390f35b348015611a7857600080fd5b50611a81614adc565b60405180871515151581526020018615151515815260200185151515158152602001841515151581526020018315151515815260200182151515158152602001965050505050505060405180910390f35b348015611ade57600080fd5b50611ae7614b29565b604051808215151515815260200191505060405180910390f35b348015611b0d57600080fd5b50611bfb60048036036080811015611b2457600080fd5b8101908080359060200190929190803573ffffffffffffffffffffffffffffffffffffffff16906020019092919080359060200190640100000000811115611b6b57600080fd5b820183602082011115611b7d57600080fd5b80359060200191846001830284011164010000000083111715611b9f57600080fd5b91908080601f016020809104026020016040519081016040528093929190818152602001838380828437600081840152601f19601f82011690508083019250505050505050919291929080359060200190929190505050614b44565b005b348015611c0957600080fd5b50611c3660048036036020811015611c2057600080fd5b8101908080359060200190929190505050614d5b565b005b348015611c4457600080fd5b50611c7160048036036020811015611c5b57600080fd5b8101908080359060200190929190505050614eaa565b604051808b81526020018a8152602001806020018973ffffffffffffffffffffffffffffffffffffffff1673ffffffffffffffffffffffffffffffffffffffff1681526020018873ffffffffffffffffffffffffffffffffffffffff1673ffffffffffffffffffffffffffffffffffffffff1681526020018773ffffffffffffffffffffffffffffffffffffffff1673ffffffffffffffffffffffffffffffffffffffff1681526020018673ffffffffffffffffffffffffffffffffffffffff1673ffffffffffffffffffffffffffffffffffffffff16815260200185815260200184815260200183815260200182810382528a818151815260200191508051906020019080838360005b83811015611d97578082015181840152602081019050611d7c565b50505050905090810190601f168015611dc45780820380516001836020036101000a031916815260200191505b509b50505050505050505050505060405180910390f35b348015611de757600080fd5b50611df061531f565b005b348015611dfe57600080fd5b50611e0761532a565b005b611e5560048036036040811015611e1f57600080fd5b8101908080359060200190929190803573ffffffffffffffffffffffffffffffffffffffff169060200190929190505050615335565b005b348015611e6357600080fd5b50611e9060048036036020811015611e7a57600080fd5b81019080803590602001909291905050506158d4565b604051808c73ffffffffffffffffffffffffffffffffffffffff1673ffffffffffffffffffffffffffffffffffffffff1681526020018b73ffffffffffffffffffffffffffffffffffffffff1673ffffffffffffffffffffffffffffffffffffffff1681526020018060200180602001806020018a1515151581526020018981526020018060200188815260200187815260200186815260200185810385528e818151815260200191508051906020019080838360005b83811015611f62578082015181840152602081019050611f47565b50505050905090810190601f168015611f8f5780820380516001836020036101000a031916815260200191505b5085810384528d818151815260200191508051906020019080838360005b83811015611fc8578082015181840152602081019050611fad565b50505050905090810190601f168015611ff55780820380516001836020036101000a031916815260200191505b5085810383528c818151815260200191508051906020019080838360005b8381101561202e578082015181840152602081019050612013565b50505050905090810190601f16801561205b5780820380516001836020036101000a031916815260200191505b50858103825289818151815260200191508051906020019080838360005b83811015612094578082015181840152602081019050612079565b50505050905090810190601f1680156120c15780820380516001836020036101000a031916815260200191505b509f5050505050505050505050505050505060405180910390f35b60006121068260096000868152602001908152602001600020600b01615e6890919063ffffffff16565b905092915050565b6000600854905090565b61212133615efa565b565b61212c33612c50565b61219e576040517f08c379a00000000000000000000000000000000000000000000000000000000081526004018080602001828103825260108152602001807f4e6f74204120526567756c61746f72210000000000000000000000000000000081525060200191505060405180910390fd5b600760009054906101000a900460ff16156121b857600080fd5b6121c181615f54565b50565b60006121da82600161600e90919063ffffffff16565b9050919050565b60006121f733600561600e90919063ffffffff16565b905090565b833373ffffffffffffffffffffffffffffffffffffffff166009600083815260200190815260200160002060010160009054906101000a900473ffffffffffffffffffffffffffffffffffffffff1673ffffffffffffffffffffffffffffffffffffffff161461226b57600080fd5b6008548511156122e3576040517f08c379a000000000000000000000000000000000000000000000000000000000815260040180806020018281038252601b8152602001807f476976656e2055445043204e6f7420437265617465642059657421000000000081525060200191505060405180910390fd5b6122eb617bb9565b6040518060a001604052803373ffffffffffffffffffffffffffffffffffffffff16815260200142815260200185151581526020018681526020018481525090508060096000888152602001908152602001600020600a016000600960008a815260200190815260200160002060090154815260200190815260200160002060008201518160000160006101000a81548173ffffffffffffffffffffffffffffffffffffffff021916908373ffffffffffffffffffffffffffffffffffffffff1602179055506020820151816001015560408201518160020160006101000a81548160ff02191690831515021790555060608201518160030190805190602001906123f7929190617c00565b506080820151816004019080519060200190612414929190617c00565b5090505060096000878152602001908152602001600020600901600081548092919060010191905055506000600381111561244b57fe5b6009600088815260200190815260200160002060040160009054906101000a900460ff16600381111561247a57fe5b14156124b95760016009600088815260200190815260200160002060040160006101000a81548160ff021916908360038111156124b357fe5b02179055505b7f81d5f9bced9b9d1723f40796f43346ab2f3d2147b09cc27e573f3eb3b5875864866040518082815260200191505060405180910390a1505050505050565b600061250e33600461600e90919063ffffffff16565b905090565b806002600381111561252157fe5b6009600083815260200190815260200160002060040160009054906101000a900460ff16600381111561255057fe5b1461255a57600080fd5b813373ffffffffffffffffffffffffffffffffffffffff166009600083815260200190815260200160002060010160009054906101000a900473ffffffffffffffffffffffffffffffffffffffff1673ffffffffffffffffffffffffffffffffffffffff16146125c957600080fd5b600060096000858152602001908152602001600020600b0160020160006101000a81548160ff021916908360028111156125ff57fe5b02179055507fecd07b3c3d2d5a97909bbc0b960a7481613849c91ef6c3a8b139c3b7c4c8083b836040518082815260200191505060405180910390a1505050565b61264933612b00565b61265257600080fd5b600760009054906101000a900460ff1661266b57600080fd5b6000600760006101000a81548160ff0219169083151502179055507f5db9ee0a495bf2e6ff9c91a7834c1ba4fdd244a5e8aa4e537bd38aeae4b073aa33604051808273ffffffffffffffffffffffffffffffffffffffff1673ffffffffffffffffffffffffffffffffffffffff16815260200191505060405180910390a1565b60006127158260096000868152602001908152602001600020600b016160a090919063ffffffff16565b905092915050565b61272633613b6d565b612798576040517f08c379a000000000000000000000000000000000000000000000000000000000815260040180806020018281038252600f8152602001807f4e6f7420412044657369676e657221000000000000000000000000000000000081525060200191505060405180910390fd5b600760009054906101000a900460ff16156127b257600080fd5b6127be84848484616156565b50505050565b6127cd33612c50565b61283f576040517f08c379a00000000000000000000000000000000000000000000000000000000081526004018080602001828103825260108152602001807f4e6f74204120526567756c61746f72210000000000000000000000000000000081525060200191505060405180910390fd5b61284b84848484616493565b50505050565b60608060606008548411156128ce576040517f08c379a000000000000000000000000000000000000000000000000000000000815260040180806020018281038252601b8152602001807f476976656e2055445043204e6f7420437265617465642059657421000000000081525060200191505060405180910390fd5b600960008581526020019081526020016000206005016000016009600086815260200190815260200160002060050160010160096000878152602001908152602001600020600501600201828054600181600116156101000203166002900480601f0160208091040260200160405190810160405280929190818152602001828054600181600116156101000203166002900480156129ae5780601f10612983576101008083540402835291602001916129ae565b820191906000526020600020905b81548152906001019060200180831161299157829003601f168201915b50505050509250818054600181600116156101000203166002900480601f016020809104026020016040519081016040528092919081815260200182805460018160011615610100020316600290048015612a4a5780601f10612a1f57610100808354040283529160200191612a4a565b820191906000526020600020905b815481529060010190602001808311612a2d57829003601f168201915b50505050509150808054600181600116156101000203166002900480601f016020809104026020016040519081016040528092919081815260200182805460018160011615610100020316600290048015612ae65780601f10612abb57610100808354040283529160200191612ae6565b820191906000526020600020905b815481529060010190602001808311612ac957829003601f168201915b505050505090508093508194508295505050509193909250565b6000612b1682600661600e90919063ffffffff16565b9050919050565b612b263361671f565b565b612b31336121c4565b612ba3576040517f08c379a00000000000000000000000000000000000000000000000000000000081526004018080602001828103825260138152602001807f4e6f742041204d616e756661637475726572210000000000000000000000000081525060200191505060405180910390fd5b81612bcc3360096000848152602001908152602001600020600b01615e6890919063ffffffff16565b80612c3857503373ffffffffffffffffffffffffffffffffffffffff166009600083815260200190815260200160002060010160009054906101000a900473ffffffffffffffffffffffffffffffffffffffff1673ffffffffffffffffffffffffffffffffffffffff16145b612c4157600080fd5b612c4b8383616779565b505050565b6000612c6682600461600e90919063ffffffff16565b9050919050565b612c7633616a96565b565b6000600760009054906101000a900460ff16905090565b6000612ca582600561600e90919063ffffffff16565b9050919050565b6000612cc233600261600e90919063ffffffff16565b905090565b8160026003811115612cd557fe5b6009600083815260200190815260200160002060040160009054906101000a900460ff166003811115612d0457fe5b14612d0e57600080fd5b823373ffffffffffffffffffffffffffffffffffffffff166009600083815260200190815260200160002060010160009054906101000a900473ffffffffffffffffffffffffffffffffffffffff1673ffffffffffffffffffffffffffffffffffffffff1614612d7d57600080fd5b6064831115612df4576040517f08c379a00000000000000000000000000000000000000000000000000000000081526004018080602001828103825260168152602001807f4d6f7374206265206c657373207468616e20253130300000000000000000000081525060200191505060405180910390fd5b8260096000868152602001908152602001600020600b0160010181905550600160096000868152602001908152602001600020600b0160020160006101000a81548160ff02191690836002811115612e4857fe5b02179055507f7757356b46f23cb3ef1647e45863d1afc6f69c56c39b4afc70f3e2cea14c3a9d846040518082815260200191505060405180910390a150505050565b826000600d6000838152602001908152602001600020600081548110612eac57fe5b9060005260206000200154905060056006811115612ec657fe5b600c600083815260200190815260200160002060030160009054906101000a900460ff166006811115612ef557fe5b14612eff57600080fd5b846000600d6000838152602001908152602001600020600081548110612f2157fe5b9060005260206000200154905060003373ffffffffffffffffffffffffffffffffffffffff16600c600084815260200190815260200160002060060160009054906101000a900473ffffffffffffffffffffffffffffffffffffffff1673ffffffffffffffffffffffffffffffffffffffff1614905080612fa157600080fd5b6000600d60008a8152602001908152602001600020805490509050612fc4617c80565b60405180608001604052804281526020018a81526020018981526020013373ffffffffffffffffffffffffffffffffffffffff16815250905060008090505b82811015613153576000600d60008d8152602001908152602001600020828154811061302b57fe5b9060005260206000200154905060068081111561304457fe5b600c600083815260200190815260200160002060030160009054906101000a900460ff16600681111561307357fe5b146131455782600c60008381526020019081526020016000206009016000600c6000858152602001908152602001600020600a0154815260200190815260200160002060008201518160000155602082015181600101556040820151816002015560608201518160030160006101000a81548173ffffffffffffffffffffffffffffffffffffffff021916908373ffffffffffffffffffffffffffffffffffffffff160217905550905050600c6000828152602001908152602001600020600a01600081548092919060010191905055505b508080600101915050613003565b507f332d23c9d7e8e885c3f1696ae3b424351c1e9e2a4cc531396d6848b79a0dac988a6040518082815260200191505060405180910390a150505050505050505050565b6131a033616af0565b565b6131ab33616b4a565b565b826000600d60008381526020019081526020016000206000815481106131cf57fe5b90600052602060002001549050600460068111156131e957fe5b600c600083815260200190815260200160002060030160009054906101000a900460ff16600681111561321857fe5b1461322257600080fd5b846000600d600083815260200190815260200160002060008154811061324457fe5b9060005260206000200154905060003373ffffffffffffffffffffffffffffffffffffffff16600c600084815260200190815260200160002060040160009054906101000a900473ffffffffffffffffffffffffffffffffffffffff1673ffffffffffffffffffffffffffffffffffffffff1614905060003373ffffffffffffffffffffffffffffffffffffffff16600c600085815260200190815260200160002060050160009054906101000a900473ffffffffffffffffffffffffffffffffffffffff1673ffffffffffffffffffffffffffffffffffffffff16149050818061332c5750805b61333557600080fd5b6000600d60008b8152602001908152602001600020805490509050613358617c80565b60405180608001604052804281526020018b81526020018a81526020013373ffffffffffffffffffffffffffffffffffffffff16815250905060008090505b828110156134a6576000600d60008e815260200190815260200160002082815481106133bf57fe5b9060005260206000200154905082600c60008381526020019081526020016000206009016000600c6000858152602001908152602001600020600a0154815260200190815260200160002060008201518160000155602082015181600101556040820151816002015560608201518160030160006101000a81548173ffffffffffffffffffffffffffffffffffffffff021916908373ffffffffffffffffffffffffffffffffffffffff160217905550905050600c6000828152602001908152602001600020600a0160008154809291906001019190505550508080600101915050613397565b507f332d23c9d7e8e885c3f1696ae3b424351c1e9e2a4cc531396d6848b79a0dac988b6040518082815260200191505060405180910390a15050505050505050505050565b813373ffffffffffffffffffffffffffffffffffffffff166009600083815260200190815260200160002060010160009054906101000a900473ffffffffffffffffffffffffffffffffffffffff1673ffffffffffffffffffffffffffffffffffffffff161461355a57600080fd5b826002600381111561356857fe5b6009600083815260200190815260200160002060040160009054906101000a900460ff16600381111561359757fe5b146135a157600080fd5b82600960008681526020019081526020016000206008018190555060036009600086815260200190815260200160002060040160006101000a81548160ff021916908360038111156135ef57fe5b02179055507f9830dea00c267e7b6913a128e9a399b9272b3c2b650ac4c447ce2b876b100488846040518082815260200191505060405180910390a150505050565b61363a33612b00565b61364357600080fd5b61364c81616ba4565b50565b600061366582600061600e90919063ffffffff16565b9050919050565b6136753361364f565b6136e7576040517f08c379a000000000000000000000000000000000000000000000000000000000815260040180806020018281038252600f8152602001807f4e6f74204120436f6e73756d657221000000000000000000000000000000000081525060200191505060405180910390fd5b600760009054906101000a900460ff161561370157600080fd5b6000600c60008381526020019081526020016000206007015490506000600c600084815260200190815260200160002060030160019054906101000a900473ffffffffffffffffffffffffffffffffffffffff1690506000600c600085815260200190815260200160002060060160009054906101000a900473ffffffffffffffffffffffffffffffffffffffff1690506000606460058502816137a157fe5b0490506000606460018602816137b357fe5b0490508434101561382c576040517f08c379a000000000000000000000000000000000000000000000000000000000815260040180806020018281038252600b8152602001807f4e6f7420456e6f7567682100000000000000000000000000000000000000000081525060200191505060405180910390fd5b6000853403905060008114613883573373ffffffffffffffffffffffffffffffffffffffff166108fc829081150290604051600060405180830381858888f19350505050158015613881573d6000803e3d6000fd5b505b61388c87616bfe565b8473ffffffffffffffffffffffffffffffffffffffff166108fc83850188039081150290604051600060405180830381858888f193505050501580156138d6573d6000803e3d6000fd5b508373ffffffffffffffffffffffffffffffffffffffff166108fc849081150290604051600060405180830381858888f1935050505015801561391d573d6000803e3d6000fd5b5050505050505050565b61393033612b00565b61393957600080fd5b600760009054906101000a900460ff161561395357600080fd5b6001600760006101000a81548160ff0219169083151502179055507f62e78cea01bee320cd4e420270b5ea74000d11b0c9f74754ebdbfc544b05a25833604051808273ffffffffffffffffffffffffffffffffffffffff1673ffffffffffffffffffffffffffffffffffffffff16815260200191505060405180910390a1565b6139dc33616d33565b565b60006139f482600361600e90919063ffffffff16565b9050919050565b6000613a1133600061600e90919063ffffffff16565b905090565b613a1f336121c4565b613a91576040517f08c379a00000000000000000000000000000000000000000000000000000000081526004018080602001828103825260138152602001807f4e6f742041204d616e756661637475726572210000000000000000000000000081525060200191505060405180910390fd5b613a9a81616d8d565b50565b613aa6336121c4565b613b18576040517f08c379a00000000000000000000000000000000000000000000000000000000081526004018080602001828103825260138152602001807f4e6f742041204d616e756661637475726572210000000000000000000000000081525060200191505060405180910390fd5b600760009054906101000a900460ff1615613b3257600080fd5b613b3c8282616ff5565b5050565b613b49336170f0565b565b613b543361714a565b613b5d336121c4565b613b6b57613b6a3361671f565b5b565b6000613b8382600261600e90919063ffffffff16565b9050919050565b6000606080606080856000600c6000838152602001908152602001600020600a01541415613bb757600080fd5b6000600c6000898152602001908152602001600020905080600a01549650606087604051908082528060200260200182016040528015613c065781602001602082028038833980820191505090505b509050606088604051908082528060200260200182016040528015613c3a5781602001602082028038833980820191505090505b509050606089604051908082528060200260200182016040528015613c6e5781602001602082028038833980820191505090505b50905060608a604051908082528060200260200182016040528015613ca25781602001602082028038833980820191505090505b50905060008090505b85600a0154811015613da057600086600901600083815260200190815260200160002090508060000154868381518110613ce157fe5b6020026020010181815250508060020154858381518110613cfe57fe5b6020026020010181815250508060010154848381518110613d1b57fe5b6020026020010181815250508060030160009054906101000a900473ffffffffffffffffffffffffffffffffffffffff16838381518110613d5857fe5b602002602001019073ffffffffffffffffffffffffffffffffffffffff16908173ffffffffffffffffffffffffffffffffffffffff1681525050508080600101915050613cab565b5083838383809a50819b50829c50839d505050505050505050505091939590929450565b613dcd816171a4565b50565b806000600d6000838152602001908152602001600020600081548110613df257fe5b9060005260206000200154905060036006811115613e0c57fe5b600c600083815260200190815260200160002060030160009054906101000a900460ff166006811115613e3b57fe5b14613e4557600080fd5b826000600d6000838152602001908152602001600020600081548110613e6757fe5b9060005260206000200154905060003373ffffffffffffffffffffffffffffffffffffffff16600c600084815260200190815260200160002060040160009054906101000a900473ffffffffffffffffffffffffffffffffffffffff1673ffffffffffffffffffffffffffffffffffffffff1614905080613ee757600080fd5b6000600d600088815260200190815260200160002080549050905060008090505b81811015613f83576000600d60008a81526020019081526020016000208281548110613f3057fe5b906000526020600020015490506004600c600083815260200190815260200160002060030160006101000a81548160ff02191690836006811115613f7057fe5b0217905550508080600101915050613f08565b507ff00b9a5725b80c54016f42114f6ed7792d22eecb116011c4afac29c57bef6c95876040518082815260200191505060405180910390a150505050505050565b816000600d6000838152602001908152602001600020600081548110613fe657fe5b906000526020600020015490506001600681111561400057fe5b600c600083815260200190815260200160002060030160009054906101000a900460ff16600681111561402f57fe5b1461403957600080fd5b836000600d600083815260200190815260200160002060008154811061405b57fe5b9060005260206000200154905060003373ffffffffffffffffffffffffffffffffffffffff16600c600084815260200190815260200160002060040160009054906101000a900473ffffffffffffffffffffffffffffffffffffffff1673ffffffffffffffffffffffffffffffffffffffff16149050806140db57600080fd5b6000600d600089815260200190815260200160002080549050905060008090505b81811015614192576000600d60008b8152602001908152602001600020828154811061412457fe5b906000526020600020015490506002600c600083815260200190815260200160002060030160006101000a81548160ff0219169083600681111561416457fe5b021790555088600c6000838152602001908152602001600020600701819055505080806001019150506140fc565b507fa96ae0fc3224ebd79eebfe54bd130cc9cb94416cddd1f2386115e00b72532468886040518082815260200191505060405180910390a15050505050505050565b806000600d60008381526020019081526020016000206000815481106141f657fe5b906000526020600020015490506000600681111561421057fe5b600c600083815260200190815260200160002060030160009054906101000a900460ff16600681111561423f57fe5b1461424957600080fd5b826000600d600083815260200190815260200160002060008154811061426b57fe5b9060005260206000200154905060003373ffffffffffffffffffffffffffffffffffffffff16600c600084815260200190815260200160002060040160009054906101000a900473ffffffffffffffffffffffffffffffffffffffff1673ffffffffffffffffffffffffffffffffffffffff16149050806142eb57600080fd5b6000600d600088815260200190815260200160002080549050905060008090505b818110156143a2576000600d60008a8152602001908152602001600020828154811061433457fe5b906000526020600020015490506001600c600083815260200190815260200160002060030160006101000a81548160ff0219169083600681111561437457fe5b021790555042600c60008381526020019081526020016000206008018190555050808060010191505061430c565b507f9b3b66e2380b690bae22c73ef1428fb0c91e72fe14a4b6defa13035214187aff876040518082815260200191505060405180910390a150505050505050565b6143ec336171fe565b565b60085481565b606060006060600854851115614472576040517f08c379a000000000000000000000000000000000000000000000000000000000815260040180806020018281038252601b8152602001807f476976656e2055445043204e6f7420437265617465642059657421000000000081525060200191505060405180910390fd5b600960008681526020019081526020016000206009015484106144fd576040517f08c379a000000000000000000000000000000000000000000000000000000000815260040180806020018281038252601a8152602001807f546573742043617365204e6f742043726561746564205965742100000000000081525060200191505060405180910390fd5b60096000868152602001908152602001600020600a01600085815260200190815260200160002060030160096000878152602001908152602001600020600a01600086815260200190815260200160002060020160009054906101000a900460ff1660096000888152602001908152602001600020600a016000878152602001908152602001600020600401828054600181600116156101000203166002900480601f01602080910402602001604051908101604052809291908181526020018280546001816001161561010002031660029004801561461e5780601f106145f35761010080835404028352916020019161461e565b820191906000526020600020905b81548152906001019060200180831161460157829003601f168201915b50505050509250808054600181600116156101000203166002900480601f0160208091040260200160405190810160405280929190818152602001828054600181600116156101000203166002900480156146ba5780601f1061468f576101008083540402835291602001916146ba565b820191906000526020600020905b81548152906001019060200180831161469d57829003601f168201915b505050505090508093508194508295505050509250925092565b6146dd33617258565b565b60006146f533600361600e90919063ffffffff16565b905090565b806000600d600083815260200190815260200160002060008154811061471c57fe5b906000526020600020015490506004600681111561473657fe5b600c600083815260200190815260200160002060030160009054906101000a900460ff16600681111561476557fe5b1461476f57600080fd5b826000600d600083815260200190815260200160002060008154811061479157fe5b906000526020600020015490506000600c6000838152602001908152602001600020600a015414156147c257600080fd5b846000600d60008381526020019081526020016000206000815481106147e457fe5b9060005260206000200154905060003373ffffffffffffffffffffffffffffffffffffffff16600c600084815260200190815260200160002060060160009054906101000a900473ffffffffffffffffffffffffffffffffffffffff1673ffffffffffffffffffffffffffffffffffffffff161490508061486457600080fd5b6000600d60008a815260200190815260200160002080549050905060008090505b81811015614900576000600d60008c815260200190815260200160002082815481106148ad57fe5b906000526020600020015490506005600c600083815260200190815260200160002060030160006101000a81548160ff021916908360068111156148ed57fe5b0217905550508080600101915050614885565b507fa8142743f8f70a4c26f3691cf4ed59718381fb2f18070ec52be1f1022d855557896040518082815260200191505060405180910390a1505050505050505050565b6060600d60008381526020019081526020016000208054806020026020016040519081016040528092919081815260200182805480156149a257602002820191906000526020600020905b81548152602001906001019080831161498e575b50505050509050919050565b60008060606000806000806000600b5489111580156149ce575060008914155b614a40576040517f08c379a000000000000000000000000000000000000000000000000000000000815260040180806020018281038252601a8152602001807f476976656e20534c55204e6f742043726561746564205965742100000000000081525060200191505060405180910390fd5b6000600d60008b81526020019081526020016000206001600d60008d8152602001908152602001600020805490500381548110614a7957fe5b90600052602060002001549050614a8f81614eaa565b909192939495969750905050809850819950829a50839b50849c50859d50869e5050505050505050600d60008b815260200190815260200160002080549050985050919395975091939597565b600080600080600080614aed6139fb565b9550614af76121e1565b9450614b016146df565b9350614b0b614b29565b9250614b156124f8565b9150614b1f612cac565b9050909192939495565b6000614b3f33600161600e90919063ffffffff16565b905090565b8360026003811115614b5257fe5b6009600083815260200190815260200160002060040160009054906101000a900460ff166003811115614b8157fe5b14614b8b57600080fd5b843373ffffffffffffffffffffffffffffffffffffffff166009600083815260200190815260200160002060010160009054906101000a900473ffffffffffffffffffffffffffffffffffffffff1673ffffffffffffffffffffffffffffffffffffffff1614614bfa57600080fd5b8560006002811115614c0857fe5b60096000838152602001908152602001600020600b0160020160009054906101000a900460ff166002811115614c3a57fe5b14614c4457600080fd5b6064841115614cbb576040517f08c379a00000000000000000000000000000000000000000000000000000000081526004018080602001828103825260168152602001807f4d6f7374206265206c657373207468616e20253130300000000000000000000081525060200191505060405180910390fd5b614ce7868686600960008c8152602001908152602001600020600b016172b2909392919063ffffffff16565b7fcf9b82493d27751c082844bdd5f86709a115d8bbc98b6ebb688d96ff15837cc48787604051808381526020018273ffffffffffffffffffffffffffffffffffffffff1673ffffffffffffffffffffffffffffffffffffffff1681526020019250505060405180910390a150505050505050565b803373ffffffffffffffffffffffffffffffffffffffff166009600083815260200190815260200160002060010160009054906101000a900473ffffffffffffffffffffffffffffffffffffffff1673ffffffffffffffffffffffffffffffffffffffff1614614dca57600080fd5b8160016002811115614dd857fe5b60096000838152602001908152602001600020600b0160020160009054906101000a900460ff166002811115614e0a57fe5b14614e1457600080fd5b600260096000858152602001908152602001600020600b0160020160006101000a81548160ff02191690836002811115614e4a57fe5b0217905550600060096000858152602001908152602001600020600b01600101819055507fa54024b3473fdbaabff7d6742d51ced76d6ec5df786a4b361595bb0623e8d167836040518082815260200191505060405180910390a1505050565b60008060606000806000806000806000600a548b11158015614ecd575060008b14155b614f3f576040517f08c379a000000000000000000000000000000000000000000000000000000000815260040180806020018281038252601a8152602001807f476976656e20504b55204e6f742043726561746564205965742100000000000081525060200191505060405180910390fd5b6000600c60008d8152602001908152602001600020905080600001549a508060020154995060006006811115614f7157fe5b8160030160009054906101000a900460ff166006811115614f8e57fe5b1415614fd1576040518060400160405280600c81526020017f4d616e75666163747572656400000000000000000000000000000000000000008152509850615260565b60016006811115614fde57fe5b8160030160009054906101000a900460ff166006811115614ffb57fe5b141561503e576040518060400160405280600681526020017f5061636b65640000000000000000000000000000000000000000000000000000815250985061525f565b6002600681111561504b57fe5b8160030160009054906101000a900460ff16600681111561506857fe5b14156150ab576040518060400160405280600781526020017f466f7253616c6500000000000000000000000000000000000000000000000000815250985061525e565b600360068111156150b857fe5b8160030160009054906101000a900460ff1660068111156150d557fe5b1415615118576040518060400160405280600481526020017f536f6c6400000000000000000000000000000000000000000000000000000000815250985061525d565b6004600681111561512557fe5b8160030160009054906101000a900460ff16600681111561514257fe5b1415615185576040518060400160405280600781526020017f5368697070656400000000000000000000000000000000000000000000000000815250985061525c565b6005600681111561519257fe5b8160030160009054906101000a900460ff1660068111156151af57fe5b14156151f2576040518060400160405280600881526020017f5265636569766564000000000000000000000000000000000000000000000000815250985061525b565b6006808111156151fe57fe5b8160030160009054906101000a900460ff16600681111561521b57fe5b141561525a576040518060400160405280600981526020017f507572636861736564000000000000000000000000000000000000000000000081525098505b5b5b5b5b5b5b8060030160019054906101000a900473ffffffffffffffffffffffffffffffffffffffff1697508060040160009054906101000a900473ffffffffffffffffffffffffffffffffffffffff1696508060050160009054906101000a900473ffffffffffffffffffffffffffffffffffffffff1695508060060160009054906101000a900473ffffffffffffffffffffffffffffffffffffffff169450806007015493508060080154925080600a01549150509193959799509193959799565b6153283361756c565b565b615333336175c6565b565b61533e336139de565b6153b0576040517f08c379a00000000000000000000000000000000000000000000000000000000081526004018080602001828103825260128152602001807f4e6f742041204469737472696275746f7221000000000000000000000000000081525060200191505060405180910390fd5b600760009054906101000a900460ff16156153ca57600080fd5b6153d381612c8f565b6153dc57600080fd5b6153e4617cbe565b600c6000600d600086815260200190815260200160002060008154811061540757fe5b90600052602060002001548152602001908152602001600020604051806101600160405290816000820154815260200160018201548152602001600282015481526020016003820160009054906101000a900460ff16600681111561546857fe5b600681111561547357fe5b81526020016003820160019054906101000a900473ffffffffffffffffffffffffffffffffffffffff1673ffffffffffffffffffffffffffffffffffffffff1673ffffffffffffffffffffffffffffffffffffffff1681526020016004820160009054906101000a900473ffffffffffffffffffffffffffffffffffffffff1673ffffffffffffffffffffffffffffffffffffffff1673ffffffffffffffffffffffffffffffffffffffff1681526020016005820160009054906101000a900473ffffffffffffffffffffffffffffffffffffffff1673ffffffffffffffffffffffffffffffffffffffff1673ffffffffffffffffffffffffffffffffffffffff1681526020016006820160009054906101000a900473ffffffffffffffffffffffffffffffffffffffff1673ffffffffffffffffffffffffffffffffffffffff1673ffffffffffffffffffffffffffffffffffffffff1681526020016007820154815260200160088201548152602001600a820154815250509050600081600001519050600082610100015190506000600d600087815260200190815260200160002080549050905060008183029050600085608001519050813410156156a3576040517f08c379a000000000000000000000000000000000000000000000000000000000815260040180806020018281038252600b8152602001807f4e6f7420456e6f7567682100000000000000000000000000000000000000000081525060200191505060405180910390fd5b60008234039050600081146156fa573373ffffffffffffffffffffffffffffffffffffffff166108fc829081150290604051600060405180830381858888f193505050501580156156f8573d6000803e3d6000fd5b505b6157048989617620565b6009600087815260200190815260200160002060010160009054906101000a900473ffffffffffffffffffffffffffffffffffffffff1673ffffffffffffffffffffffffffffffffffffffff168273ffffffffffffffffffffffffffffffffffffffff1614156157ba578173ffffffffffffffffffffffffffffffffffffffff166108fc849081150290604051600060405180830381858888f193505050501580156157b4573d6000803e3d6000fd5b506158c9565b60006157e483600960008a8152602001908152602001600020600b016160a090919063ffffffff16565b905060006064858302816157f457fe5b0490506000600960008a8152602001908152602001600020600b0160000160009054906101000a900473ffffffffffffffffffffffffffffffffffffffff1690508473ffffffffffffffffffffffffffffffffffffffff166108fc839081150290604051600060405180830381858888f1935050505015801561587b573d6000803e3d6000fd5b508073ffffffffffffffffffffffffffffffffffffffff166108fc8388039081150290604051600060405180830381858888f193505050501580156158c4573d6000803e3d6000fd5b505050505b505050505050505050565b6000806060806060600080606060008060006008548c111561595e576040517f08c379a000000000000000000000000000000000000000000000000000000000815260040180806020018281038252601b8152602001807f476976656e2055445043204e6f7420437265617465642059657421000000000081525060200191505060405180910390fd5b600960008d815260200190815260200160002060010160009054906101000a900473ffffffffffffffffffffffffffffffffffffffff169a50600960008d815260200190815260200160002060020160009054906101000a900473ffffffffffffffffffffffffffffffffffffffff169950600960008d81526020019081526020016000206003018054600181600116156101000203166002900480601f016020809104026020016040519081016040528092919081815260200182805460018160011615610100020316600290048015615a7a5780601f10615a4f57610100808354040283529160200191615a7a565b820191906000526020600020905b815481529060010190602001808311615a5d57829003601f168201915b50505050509850600960008d81526020019081526020016000206005016000018054600181600116156101000203166002900480601f016020809104026020016040519081016040528092919081815260200182805460018160011615610100020316600290048015615b2e5780601f10615b0357610100808354040283529160200191615b2e565b820191906000526020600020905b815481529060010190602001808311615b1157829003601f168201915b5050505050975060006003811115615b4257fe5b600960008e815260200190815260200160002060040160009054906101000a900460ff166003811115615b7157fe5b1415615bb4576040518060400160405280600781526020017f43726561746564000000000000000000000000000000000000000000000000008152509650615dae565b60016003811115615bc157fe5b600960008e815260200190815260200160002060040160009054906101000a900460ff166003811115615bf057fe5b1415615c33576040518060400160405280600681526020017f54657374656400000000000000000000000000000000000000000000000000008152509650615dad565b60026003811115615c4057fe5b600960008e815260200190815260200160002060040160009054906101000a900460ff166003811115615c6f57fe5b1415615cb2576040518060400160405280600881526020017f417070726f7665640000000000000000000000000000000000000000000000008152509650615dac565b600380811115615cbe57fe5b600960008e815260200190815260200160002060040160009054906101000a900460ff166003811115615ced57fe5b1415615d30576040518060400160405280600781526020017f466f7253616c65000000000000000000000000000000000000000000000000008152509650615dab565b600380811115615d3c57fe5b600960008e815260200190815260200160002060040160009054906101000a900460ff166003811115615d6b57fe5b1415615daa576040518060400160405280600781526020017f466f7253616c650000000000000000000000000000000000000000000000000081525096505b5b5b5b5b615dcc600960008e8152602001908152602001600020600b0161786f565b9350600960008d8152602001908152602001600020600b016001015492506000600960008e81526020019081526020016000206008015414159550600960008d8152602001908152602001600020600801549450600960008d8152602001908152602001600020600901549150615e57600960008e8152602001908152602001600020600b016179bd565b905091939597999b90929496989a50565b60008073ffffffffffffffffffffffffffffffffffffffff168273ffffffffffffffffffffffffffffffffffffffff161415615ea357600080fd5b8260050160008373ffffffffffffffffffffffffffffffffffffffff1673ffffffffffffffffffffffffffffffffffffffff16815260200190815260200160002060009054906101000a900460ff16905092915050565b615f0e816000617a6290919063ffffffff16565b8073ffffffffffffffffffffffffffffffffffffffff167fe3f5ed5f263f1f01764a96edfc7d025f511ec5f7d180e8816908b78bcf74f09860405160405180910390a250565b8060016003811115615f6257fe5b6009600083815260200190815260200160002060040160009054906101000a900460ff166003811115615f9157fe5b14615f9b57600080fd5b60026009600084815260200190815260200160002060040160006101000a81548160ff02191690836003811115615fce57fe5b02179055507f3ad93af63cb7967b23e4fb500b7d7d28b07516325dcf341f88bebf959d82c1cb826040518082815260200191505060405180910390a15050565b60008073ffffffffffffffffffffffffffffffffffffffff168273ffffffffffffffffffffffffffffffffffffffff16141561604957600080fd5b8260000160008373ffffffffffffffffffffffffffffffffffffffff1673ffffffffffffffffffffffffffffffffffffffff16815260200190815260200160002060009054906101000a900460ff16905092915050565b60008073ffffffffffffffffffffffffffffffffffffffff168273ffffffffffffffffffffffffffffffffffffffff1614156160db57600080fd5b6160e58383615e68565b6160ee57600080fd5b60008360060160008473ffffffffffffffffffffffffffffffffffffffff1673ffffffffffffffffffffffffffffffffffffffff1681526020019081526020016000205490508360040160008281526020019081526020016000206002015491505092915050565b600860008154809291906001019190505550616170617d7b565b60085481600001818152505033816020019073ffffffffffffffffffffffffffffffffffffffff16908173ffffffffffffffffffffffffffffffffffffffff168152505033816040019073ffffffffffffffffffffffffffffffffffffffff16908173ffffffffffffffffffffffffffffffffffffffff168152505084816060018190525060008160800190600381111561620757fe5b9081600381111561621457fe5b815250506040518060600160405280858152602001848152602001838152508160a0018190525060008160c001818152505060018161010001516060018181525050806009600060085481526020019081526020016000206000820151816000015560208201518160010160006101000a81548173ffffffffffffffffffffffffffffffffffffffff021916908373ffffffffffffffffffffffffffffffffffffffff16021790555060408201518160020160006101000a81548173ffffffffffffffffffffffffffffffffffffffff021916908373ffffffffffffffffffffffffffffffffffffffff1602179055506060820151816003019080519060200190616320929190617c00565b5060808201518160040160006101000a81548160ff0219169083600381111561634557fe5b021790555060a082015181600501600082015181600001908051906020019061636f929190617c00565b50602082015181600101908051906020019061638c929190617c00565b5060408201518160020190805190602001906163a9929190617c00565b50505060c0820151816008015560e0820151816009015561010082015181600b0160008201518160000160006101000a81548173ffffffffffffffffffffffffffffffffffffffff021916908373ffffffffffffffffffffffffffffffffffffffff1602179055506020820151816001015560408201518160020160006101000a81548160ff0219169083600281111561643f57fe5b02179055506060820151816003015550509050507f4bea4fa538d41a7b7fb10bb3405cf3e168122aa3438625bbf0ac6dde64fbdb0c6008546040518082815260200191505060405180910390a15050505050565b60085484111561650b576040517f08c379a000000000000000000000000000000000000000000000000000000000815260040180806020018281038252601b8152602001807f476976656e2055445043204e6f7420437265617465642059657421000000000081525060200191505060405180910390fd5b616513617bb9565b6040518060a001604052803373ffffffffffffffffffffffffffffffffffffffff16815260200142815260200184151581526020018581526020018381525090508060096000878152602001908152602001600020600a0160006009600089815260200190815260200160002060090154815260200190815260200160002060008201518160000160006101000a81548173ffffffffffffffffffffffffffffffffffffffff021916908373ffffffffffffffffffffffffffffffffffffffff1602179055506020820151816001015560408201518160020160006101000a81548160ff021916908315150217905550606082015181600301908051906020019061661f929190617c00565b50608082015181600401908051906020019061663c929190617c00565b5090505060096000868152602001908152602001600020600901600081548092919060010191905055506000600381111561667357fe5b6009600087815260200190815260200160002060040160009054906101000a900460ff1660038111156166a257fe5b14156166e15760016009600087815260200190815260200160002060040160006101000a81548160ff021916908360038111156166db57fe5b02179055505b7f81d5f9bced9b9d1723f40796f43346ab2f3d2147b09cc27e573f3eb3b5875864856040518082815260200191505060405180910390a15050505050565b616733816001617b0d90919063ffffffff16565b8073ffffffffffffffffffffffffffffffffffffffff167f561138658ca49a8540dc70dcfe64c9026c1c5b9344642242dd6562970f9c127860405160405180910390a250565b6000600b600081546001019190508190559050616794617cbe565b83816000018181525050818160400181815250506000816060019060068111156167ba57fe5b908160068111156167c757fe5b8152505033816080019073ffffffffffffffffffffffffffffffffffffffff16908173ffffffffffffffffffffffffffffffffffffffff1681525050338160a0019073ffffffffffffffffffffffffffffffffffffffff16908173ffffffffffffffffffffffffffffffffffffffff168152505060008161014001818152505060008090505b83811015616a58576000600a6000815460010191905081905590508083602001818152505082600c600083815260200190815260200160002060008201518160000155602082015181600101556040820151816002015560608201518160030160006101000a81548160ff021916908360068111156168c857fe5b021790555060808201518160030160016101000a81548173ffffffffffffffffffffffffffffffffffffffff021916908373ffffffffffffffffffffffffffffffffffffffff16021790555060a08201518160040160006101000a81548173ffffffffffffffffffffffffffffffffffffffff021916908373ffffffffffffffffffffffffffffffffffffffff16021790555060c08201518160050160006101000a81548173ffffffffffffffffffffffffffffffffffffffff021916908373ffffffffffffffffffffffffffffffffffffffff16021790555060e08201518160060160006101000a81548173ffffffffffffffffffffffffffffffffffffffff021916908373ffffffffffffffffffffffffffffffffffffffff1602179055506101008201518160070155610120820151816008015561014082015181600a0155905050600d600085815260200190815260200160002081908060018154018082558091505090600182039060005260206000200160009091929091909150555050808060010191505061684d565b507fd29d8a68ca7c8c74be5579719d445aabfe230ed6e6a83aff475a663500eb7609826040518082815260200191505060405180910390a150505050565b616aaa816003617a6290919063ffffffff16565b8073ffffffffffffffffffffffffffffffffffffffff167f126174f6cf49c81cdb4a9214c6b8f037bef55b4ec31e4fc776cea2a1c8a88d5960405160405180910390a250565b616b04816005617a6290919063ffffffff16565b8073ffffffffffffffffffffffffffffffffffffffff167fdb7176e79cffef81cb01767dd0447a0b24bb72ca9778d4b245581086b2a7e6db60405160405180910390a250565b616b5e816006617a6290919063ffffffff16565b8073ffffffffffffffffffffffffffffffffffffffff167fcd265ebaf09df2871cc7bd4133404a235ba12eff2041bb89d9c714a2621c7c7e60405160405180910390a250565b616bb8816006617b0d90919063ffffffff16565b8073ffffffffffffffffffffffffffffffffffffffff167f6719d08c1888103bea251a4ed56406bd0c3e69723c8a1686e017e7bbe159b6f860405160405180910390a250565b8060056006811115616c0c57fe5b600c600083815260200190815260200160002060030160009054906101000a900460ff166006811115616c3b57fe5b14616c4557600080fd5b816000600c6000838152602001908152602001600020600a01541415616c6a57600080fd5b6006600c600085815260200190815260200160002060030160006101000a81548160ff02191690836006811115616c9d57fe5b021790555033600c600085815260200190815260200160002060030160016101000a81548173ffffffffffffffffffffffffffffffffffffffff021916908373ffffffffffffffffffffffffffffffffffffffff1602179055507f653d56639fee6b566a5c804764e9689de38645f0b733df89a36a1b7b42173dd8836040518082815260200191505060405180910390a1505050565b616d47816004617a6290919063ffffffff16565b8073ffffffffffffffffffffffffffffffffffffffff167fc8ecc453f78c13ccc7596603b61935f29b99dc15bb91b91647e1ccf2469ad00a60405160405180910390a250565b80600380811115616d9a57fe5b6009600083815260200190815260200160002060040160009054906101000a900460ff166003811115616dc957fe5b14616dd357600080fd5b816009600082815260200190815260200160002060080154341015616e60576040517f08c379a000000000000000000000000000000000000000000000000000000000815260040180806020018281038252600b8152602001807f4e6f7420456e6f7567682100000000000000000000000000000000000000000081525060200191505060405180910390fd5b60026009600085815260200190815260200160002060040160006101000a81548160ff02191690836003811115616e9357fe5b0217905550336009600085815260200190815260200160002060010160006101000a81548173ffffffffffffffffffffffffffffffffffffffff021916908373ffffffffffffffffffffffffffffffffffffffff1602179055503360096000858152602001908152602001600020600b0160000160006101000a81548173ffffffffffffffffffffffffffffffffffffffff021916908373ffffffffffffffffffffffffffffffffffffffff1602179055507f761e3276be1dd60429a48581fa8d3df6c90c05fff554645023f8318bc29402b7836040518082815260200191505060405180910390a16000600960008381526020019081526020016000206008015490506000813403905060008114616fee573373ffffffffffffffffffffffffffffffffffffffff166108fc829081150290604051600060405180830381858888f19350505050158015616fec573d6000803e3d6000fd5b505b5050505050565b816002600381111561700357fe5b6009600083815260200190815260200160002060040160009054906101000a900460ff16600381111561703257fe5b1461703c57600080fd5b826001600281111561704a57fe5b60096000838152602001908152602001600020600b0160020160009054906101000a900460ff16600281111561707c57fe5b1461708657600080fd5b6170b33384600060096000898152602001908152602001600020600b016172b2909392919063ffffffff16565b7f74c5d412ef45f2e49816788001b6e27a174bb63e91ade58fd0631869b74a6ec5846040518082815260200191505060405180910390a150505050565b617104816001617a6290919063ffffffff16565b8073ffffffffffffffffffffffffffffffffffffffff167f2fed5abf6a80d6dfe30b4895481b2fc5d7dce5f8f7b931832f4a2947d5040c7f60405160405180910390a250565b61715e816002617b0d90919063ffffffff16565b8073ffffffffffffffffffffffffffffffffffffffff167f97069a05372df648feb174cc125711b2c72a81450a1ab2769c8faf49917d7fd260405160405180910390a250565b6171b8816004617b0d90919063ffffffff16565b8073ffffffffffffffffffffffffffffffffffffffff167f2860b5ba44f983f8f363ee6eeb3c24cbca3096803fbdd5129b9e253f01cac07660405160405180910390a250565b617212816003617b0d90919063ffffffff16565b8073ffffffffffffffffffffffffffffffffffffffff167fddbf200aa634dc3fb81cfd68583dd1040d1c751d335e1d86b631bde3e977fea860405160405180910390a250565b61726c816000617b0d90919063ffffffff16565b8073ffffffffffffffffffffffffffffffffffffffff167f28b26e7a3d20aedbc5f8f2ebf7da671c0491723a2b78f47a097b0e46dee0714260405160405180910390a250565b600084600101549050600073ffffffffffffffffffffffffffffffffffffffff168473ffffffffffffffffffffffffffffffffffffffff1614156172f557600080fd5b6172ff8585615e68565b1561730957600080fd5b6000600281111561731657fe5b8560020160009054906101000a900460ff16600281111561733357fe5b1415617399578460000160009054906101000a900473ffffffffffffffffffffffffffffffffffffffff1673ffffffffffffffffffffffffffffffffffffffff163373ffffffffffffffffffffffffffffffffffffffff161461739557600080fd5b8190505b6002808111156173a557fe5b8560020160009054906101000a900460ff1660028111156173c257fe5b14156173ce5750617566565b60018560050160008673ffffffffffffffffffffffffffffffffffffffff1673ffffffffffffffffffffffffffffffffffffffff16815260200190815260200160002060006101000a81548160ff021916908315150217905550617430617e0a565b84816000019073ffffffffffffffffffffffffffffffffffffffff16908173ffffffffffffffffffffffffffffffffffffffff168152505083816020018190525081816040018181525050808660040160008860030154815260200190815260200160002060008201518160000160006101000a81548173ffffffffffffffffffffffffffffffffffffffff021916908373ffffffffffffffffffffffffffffffffffffffff16021790555060208201518160010190805190602001906174f8929190617c00565b506040820151816002015590505085600301548660060160008773ffffffffffffffffffffffffffffffffffffffff1673ffffffffffffffffffffffffffffffffffffffff168152602001908152602001600020819055506001866003016000828254019250508190555050505b50505050565b617580816002617a6290919063ffffffff16565b8073ffffffffffffffffffffffffffffffffffffffff167fe16181bbb8b138f88a23696ae25f2c63713913e3fc6922b234a08639bf53cbea60405160405180910390a250565b6175da816005617b0d90919063ffffffff16565b8073ffffffffffffffffffffffffffffffffffffffff167f71ae26cad02663e3d92efd6ec56031a80d74a20c0ab4183faa8bf262261c9baa60405160405180910390a250565b816000600d600083815260200190815260200160002060008154811061764257fe5b906000526020600020015490506002600681111561765c57fe5b600c600083815260200190815260200160002060030160009054906101000a900460ff16600681111561768b57fe5b1461769557600080fd5b6000600d600086815260200190815260200160002080549050905060008090505b81811015617830576000600d600088815260200190815260200160002082815481106176de57fe5b906000526020600020015490506003600c600083815260200190815260200160002060030160006101000a81548160ff0219169083600681111561771e57fe5b021790555033600c600083815260200190815260200160002060030160016101000a81548173ffffffffffffffffffffffffffffffffffffffff021916908373ffffffffffffffffffffffffffffffffffffffff16021790555033600c600083815260200190815260200160002060050160006101000a81548173ffffffffffffffffffffffffffffffffffffffff021916908373ffffffffffffffffffffffffffffffffffffffff16021790555085600c600083815260200190815260200160002060060160006101000a81548173ffffffffffffffffffffffffffffffffffffffff021916908373ffffffffffffffffffffffffffffffffffffffff1602179055505080806001019150506176b6565b507f92f64ca637d023f354075a4be751b169c1a8a9ccb6d33cdd0cb3520543995727856040518082815260200191505060405180910390a15050505050565b60606001600281111561787e57fe5b8260020160009054906101000a900460ff16600281111561789b57fe5b14156178de576040518060400160405280600481526020017f4f70656e0000000000000000000000000000000000000000000000000000000081525090506179b8565b6002808111156178ea57fe5b8260020160009054906101000a900460ff16600281111561790757fe5b141561794a576040518060400160405280600581526020017f436c6f736500000000000000000000000000000000000000000000000000000081525090506179b8565b6000600281111561795757fe5b8260020160009054906101000a900460ff16600281111561797457fe5b14156179b7576040518060400160405280600881526020017f526573747269637400000000000000000000000000000000000000000000000081525090506179b8565b5b919050565b6000806000905060008090505b8360030154811015617a5857600073ffffffffffffffffffffffffffffffffffffffff1684600401600083815260200190815260200160002060000160009054906101000a900473ffffffffffffffffffffffffffffffffffffffff1673ffffffffffffffffffffffffffffffffffffffff1614617a4b5781806001019250505b80806001019150506179ca565b5080915050919050565b600073ffffffffffffffffffffffffffffffffffffffff168173ffffffffffffffffffffffffffffffffffffffff161415617a9c57600080fd5b617aa6828261600e565b617aaf57600080fd5b60008260000160008373ffffffffffffffffffffffffffffffffffffffff1673ffffffffffffffffffffffffffffffffffffffff16815260200190815260200160002060006101000a81548160ff0219169083151502179055505050565b600073ffffffffffffffffffffffffffffffffffffffff168173ffffffffffffffffffffffffffffffffffffffff161415617b4757600080fd5b617b51828261600e565b15617b5b57600080fd5b60018260000160008373ffffffffffffffffffffffffffffffffffffffff1673ffffffffffffffffffffffffffffffffffffffff16815260200190815260200160002060006101000a81548160ff0219169083151502179055505050565b6040518060a00160405280600073ffffffffffffffffffffffffffffffffffffffff1681526020016000815260200160001515815260200160608152602001606081525090565b828054600181600116156101000203166002900490600052602060002090601f016020900481019282601f10617c4157805160ff1916838001178555617c6f565b82800160010185558215617c6f579182015b82811115617c6e578251825591602001919060010190617c53565b5b509050617c7c9190617e41565b5090565b6040518060800160405280600081526020016000815260200160008152602001600073ffffffffffffffffffffffffffffffffffffffff1681525090565b60405180610160016040528060008152602001600081526020016000815260200160006006811115617cec57fe5b8152602001600073ffffffffffffffffffffffffffffffffffffffff168152602001600073ffffffffffffffffffffffffffffffffffffffff168152602001600073ffffffffffffffffffffffffffffffffffffffff168152602001600073ffffffffffffffffffffffffffffffffffffffff1681526020016000815260200160008152602001600081525090565b60405180610120016040528060008152602001600073ffffffffffffffffffffffffffffffffffffffff168152602001600073ffffffffffffffffffffffffffffffffffffffff1681526020016060815260200160006003811115617ddc57fe5b8152602001617de9617e66565b81526020016000815260200160008152602001617e04617e87565b81525090565b6040518060600160405280600073ffffffffffffffffffffffffffffffffffffffff16815260200160608152602001600081525090565b617e6391905b80821115617e5f576000816000905550600101617e47565b5090565b90565b60405180606001604052806060815260200160608152602001606081525090565b6040518060800160405280600073ffffffffffffffffffffffffffffffffffffffff1681526020016000815260200160006002811115617ec357fe5b815260200160008152509056fea265627a7a72315820a74af85513fb3e2874d5d95235d3c14dcddff25f21266bde5629a56ac7754ba264736f6c63430005110032",
  "source": "pragma solidity ^0.5.0;\n\n/// Import main chains contracts\nimport \"./Storage/Drug.sol\";\nimport \"./Storage/DrugDesign.sol\";\n\n/// Import Main Roles contract `Rolable.sol`\nimport \"../AccessControl/Rolable.sol\";\n\n/// Import Pausable contract from OpenZeppelin library\nimport \"openzeppelin-solidity/contracts/lifecycle/Pausable.sol\";\n\n\n/// @author Khalid F.Sh\n/// @title Supply Chain Contract\ncontract SupplyChain is Rolable, Pausable, DrugDesign, Drug {\n\n    constructor() public {\n\n    }\n\n    // function getUdpc() public view returns (\n    //     uint _udpc\n    // ) {\n    //     super.getUdpc();\n    // }\n\n    /// Function helps Designer to estaplish a new Drug Design\n    function designDrug(\n        string memory _designerName,\n        string memory _drugName,\n        string memory _description,\n        string memory _notes\n    )\n        public\n        onlyDesigner()\n        whenNotPaused()\n    {\n        super.designDrug(\n            _designerName,\n            _drugName,\n            _description,\n            _notes\n        );\n    }\n\n    // Add Test Case for Drug Design by regulator\n    function addTestCaseByRegulaor(\n        uint _udpc,\n        string memory _description,\n        bool _isPassed,\n        string memory _notes\n    )\n        public\n        onlyRegulator()\n    {\n        super.addTestCaseByRegulaor(\n            _udpc,\n            _description,\n            _isPassed,\n            _notes\n        );\n    }\n\n    // Function to approve drug by a regulator only\n    function approveDrug(uint _udpc)\n        public\n        onlyRegulator()\n        whenNotPaused()\n    {\n        super.approveDrug(_udpc);\n    }\n\n    /// Function to purchase a drug design\n    function purchaseDrugDesign(uint _udpc)\n        public\n        payable\n        onlyManufacturer()\n    {\n        super.purchaseDrugDesign(_udpc);\n    }\n\n    /// Function to build a manufacturer partner contract\n    function buildPartnerContract(uint _udpc, string memory _name)\n        public\n        onlyManufacturer()\n        whenNotPaused()\n    {\n        super.buildPartnerContract(_udpc, _name);\n    }\n\n    /// Function helps manufacturer to manufactur a new Drug Loud\n    function manufacturDrugsLoud(uint _udpc, uint quantity)\n        public\n        onlyManufacturer()\n        onlyManufacturPartnerOf(_udpc)\n    {\n        super.manufacturDrugsLoud(_udpc, quantity);\n    }\n\n    /// Function helps distributor to buy a Drug Loud\n    /// it can be quantity only order but i think its not important for now\n    function buyDrugsLoud(uint _slu, address _receiver)\n        public\n        payable\n        onlyDistributor()\n        whenNotPaused()\n    {\n        /// reciever most be reteiler\n        require(isRetailer(_receiver));\n        /// collect info about the whole proccess\n        DrugItem memory sampleUnit = dItems[stockLouds[_slu][0]];\n        uint _udpc = sampleUnit.udpc;\n        uint price = sampleUnit.price;\n        uint quantity = stockLouds[_slu].length;\n        uint totalPrice = price*quantity;\n        \n        ///colect shared worker addresses to payed them\n        address payable sallerId = address(sampleUnit.currentOwnerId);\n\n        require(msg.value >= totalPrice, \"Not Enough!\");\n        uint amountToReturn = msg.value - totalPrice;\n        if (amountToReturn != 0)\n            address(msg.sender).transfer(amountToReturn);\n\n        super.buyDrugsLoud(_slu, _receiver);\n        \n        if (sallerId == dDItems[_udpc].currentOwner){\n            sallerId.transfer(totalPrice);\n        }\n        else {\n            uint shareOfSallerPresntage = dDItems[_udpc].manufacturers.sharesOf(sallerId);\n            uint shareOfSaller = (shareOfSallerPresntage*totalPrice)/100;\n            address payable orignalSallerId = dDItems[_udpc].manufacturers.owner;\n            sallerId.transfer(shareOfSaller);\n            orignalSallerId.transfer(totalPrice - shareOfSaller);\n        }\n        \n    }\n\n    /// Function helps manufacturer to Pack a isManufactured Drug Loud\n    function purchaseDrug (uint _pku)\n        public\n        payable\n        onlyConsumer()\n        whenNotPaused()\n    {\n        uint price = dItems[_pku].price;\n        address payable sallerId = dItems[_pku].currentOwnerId;\n\n        address payable retailerId = address(uint160(dItems[_pku].retailerId));\n        uint retialerBounty = (price*5) /100;\n        uint developerBounty = (price*1) /100; \n\n        require(msg.value >= price, \"Not Enough!\");\n        uint amountToReturn = msg.value - price;\n        if (amountToReturn != 0)\n            address(msg.sender).transfer(amountToReturn);\n\n        super.purchaseDrug(_pku);\n\n        sallerId.transfer(price - (retialerBounty + developerBounty));\n        retailerId.transfer(retialerBounty);\n    }\n\n}\n",
  "sourcePath": "/Users/rakshith/Workspace/blockchain/drug-supply-chain/contracts/Base/SupplyChain.sol",
  "compiler": {
    "name": "solc",
    "version": "0.5.17+commit.d19bba13.Emscripten.clang"
  },
  "schemaVersion": "3.3.0",
  "updatedAt": "2020-10-19T13:59:37.149Z",
  "devdoc": {
    "author": "Khalid F.Sh",
    "methods": {
      "addRegulator(address)": {
        "params": {
          "account": "address to be Added"
        }
      },
      "amIConsumer()": {
        "return": "boolean for caller address state in `_consumers` Role"
      },
      "amIDesigner()": {
        "return": "boolean for caller address state in `_designers` Role"
      },
      "amIDistributor()": {
        "return": "boolean for caller address state in `_distributors` Role"
      },
      "amIManufacturer()": {
        "return": "boolean for caller address state in `_manufacturers` Role"
      },
      "amIRegulator()": {
        "return": "boolean for caller address state in `_regulators` Role"
      },
      "amIRetailer()": {
        "return": "boolean for caller address state in `_retailers` Role"
      },
      "isConsumer(address)": {
        "params": {
          "account": "address to be checked"
        },
        "return": "boolean for this address state in `_consumers` Role"
      },
      "isDesigner(address)": {
        "params": {
          "account": "address to be checked"
        },
        "return": "boolean for this address state in `_designers` Role"
      },
      "isDistributor(address)": {
        "params": {
          "account": "address to be checked"
        },
        "return": "boolean for this address state in `_distributors` Role"
      },
      "isManufacturer(address)": {
        "params": {
          "account": "address to be checked"
        },
        "return": "boolean for this address state in `_manufacturers` Role"
      },
      "isRegulator(address)": {
        "params": {
          "account": "address to be checked"
        },
        "return": "boolean for this address state in `_regulators` Role"
      },
      "isRetailer(address)": {
        "params": {
          "account": "address to be checked"
        },
        "return": "boolean for this address state in `_retailers` Role"
      },
      "pause()": {
        "details": "called by the owner to pause, triggers stopped state"
      },
      "paused()": {
        "return": "true if the contract is paused, false otherwise."
      },
      "unpause()": {
        "details": "called by the owner to unpause, returns to normal state"
      },
      "whoAmI()": {
        "return": "array contining every role with its state as boolean"
      }
    },
    "title": "Supply Chain Contract"
  },
  "userdoc": {
    "methods": {
      "addDrugsLoud(uint256,uint256)": {
        "notice": "Function helps manufacturer to add Drug Loud for sale"
      },
      "addRegulator(address)": {
        "notice": "Function to add account to regulator role`onlyRegulator` modifier  assignd to sure that the whole role groub regulated"
      },
      "addTestCase(uint256,string,bool,string)": {
        "notice": "Add Test Case for Drug Design by currentOwner"
      },
      "amIConsumer()": {
        "notice": "Function to check caller `msg.sender` if he has consumer role"
      },
      "amIDesigner()": {
        "notice": "Function to check caller `msg.sender` if he has designer role"
      },
      "amIDistributor()": {
        "notice": "Function to check caller `msg.sender` if he has distributor role"
      },
      "amIManufacturer()": {
        "notice": "Function to check caller `msg.sender` if he has manufacturer role"
      },
      "amIRegulator()": {
        "notice": "Function to check caller `msg.sender` if he has regulator role"
      },
      "amIRetailer()": {
        "notice": "Function to check caller `msg.sender` if he has retailer role"
      },
      "assignMeAsConsumer()": {
        "notice": "Function to assign caller `msg.sender` to consumer role"
      },
      "assignMeAsDesigner()": {
        "notice": "Function to assign caller `msg.sender` to designer roledesigner allways should be a menufacturer, after checking isManufacturer add it if not"
      },
      "assignMeAsDistributor()": {
        "notice": "Function to assign caller `msg.sender` to distributor role"
      },
      "assignMeAsManufacturer()": {
        "notice": "Function to assign caller `msg.sender` to manufacturer role"
      },
      "assignMeAsRetailer()": {
        "notice": "Function to assign caller `msg.sender` to retailer role"
      },
      "buildPartnerContract(uint256,string)": {
        "notice": "Function to build a manufacturer partner contract"
      },
      "buildRestrictPartnerContract(uint256,address,string,uint256)": {
        "notice": "Function to build a manufacturer partner contract by the currentOwner when its restracted"
      },
      "buyDrugsLoud(uint256,address)": {
        "notice": "Function helps distributor to buy a Drug Loud it can be quantity only order but i think its not important for now"
      },
      "closeManufactPartnership(uint256)": {
        "notice": "Function to close manufacturer partnership"
      },
      "designDrug(string,string,string,string)": {
        "notice": "Function helps Designer to estaplish a new Drug Design"
      },
      "fetchDrugLoaudData(uint256)": {
        "notice": "public data featching functions"
      },
      "isConsumer(address)": {
        "notice": "Function to check even he has consumer role or notuses'Roles' library's internal function `has()` to check, refer to library for more detail"
      },
      "isDesigner(address)": {
        "notice": "Function to check even he has designer role or notuses'Roles' library's internal function `has()` to check, refer to library for more detail"
      },
      "isDistributor(address)": {
        "notice": "Function to check even he has distributor role or notuses'Roles' library's internal function `has()` to check, refer to library for more detail"
      },
      "isManufacturer(address)": {
        "notice": "Function to check even he has manufacturer role or notuses'Roles' library's internal function `has()` to check, refer to library for more detail"
      },
      "isRegulator(address)": {
        "notice": "Function to check even he has regulator role or notuses'Roles' library's internal function `has()` to check, refer to library for more detail"
      },
      "isRetailer(address)": {
        "notice": "Function to check even he has retailer role or notuses'Roles' library's internal function `has()` to check, refer to library for more detail"
      },
      "manufacturDrugsLoud(uint256,uint256)": {
        "notice": "Function helps manufacturer to manufactur a new Drug Loud"
      },
      "openManufactPartnership(uint256,uint256)": {
        "notice": "Function to open partnership for manufacturer"
      },
      "packDrugsLoud(uint256)": {
        "notice": "Function helps manufacturer to Pack a isManufactured Drug Loud"
      },
      "purchaseDrug(uint256)": {
        "notice": "Function helps manufacturer to Pack a isManufactured Drug Loud"
      },
      "purchaseDrugDesign(uint256)": {
        "notice": "Function to purchase a drug design"
      },
      "receiveDrugsLoud(uint256)": {
        "notice": "Function helps manufacturer to Pack a isManufactured Drug Loud"
      },
      "renounceMeFromConsumer()": {
        "notice": "Function to renounce caller `msg.sender` from consumer role"
      },
      "renounceMeFromDesigner()": {
        "notice": "Function to renounce caller `msg.sender` from designer role"
      },
      "renounceMeFromDistributor()": {
        "notice": "Function to renounce caller `msg.sender` from distributor role"
      },
      "renounceMeFromManufacturer()": {
        "notice": "Function to renounce caller `msg.sender` from manufacturer role"
      },
      "renounceMeFromRegulator()": {
        "notice": "Function to renounce caller `msg.sender` from regulator role"
      },
      "renounceMeFromRetailer()": {
        "notice": "Function to renounce caller `msg.sender` from retailer role"
      },
      "restrictManufactPartnership(uint256)": {
        "notice": "Function to open partnership for manufacturer"
      },
      "shipDrugsLoud(uint256)": {
        "notice": "Function helps manufacturer to ship a Drug Loud"
      },
      "upForSale(uint256,uint256)": {
        "notice": "Function to sale a drug design"
      },
      "updateDrugsLoudShippmentEnv(uint256,uint256,uint256)": {
        "notice": "Function helps manufacturer and distributor to update Drug Loud envuirment"
      },
      "updateDrugsLoudStockEnv(uint256,uint256,uint256)": {
        "notice": "Function helps manufacturer to Pack a isManufactured Drug Loud"
      },
      "whoAmI()": {
        "notice": "Function to check all roles for the caller"
      }
    }
  }
}